{
  "contractName": "Student",
  "abi": [
    {
      "inputs": [
        {
          "internalType": "address",
          "name": "_tutorContract",
          "type": "address"
        }
      ],
      "stateMutability": "nonpayable",
      "type": "constructor"
    },
    {
      "anonymous": false,
      "inputs": [
        {
          "indexed": true,
          "internalType": "address",
          "name": "from",
          "type": "address"
        },
        {
          "indexed": true,
          "internalType": "address",
          "name": "to",
          "type": "address"
        },
        {
          "indexed": false,
          "internalType": "uint256",
          "name": "value",
          "type": "uint256"
        }
      ],
      "name": "Transfer",
      "type": "event"
    },
    {
      "inputs": [
        {
          "internalType": "uint256",
          "name": "",
          "type": "uint256"
        }
      ],
      "name": "studentAddresses",
      "outputs": [
        {
          "internalType": "address",
          "name": "",
          "type": "address"
        }
      ],
      "stateMutability": "view",
      "type": "function"
    },
    {
      "inputs": [
        {
          "internalType": "address",
          "name": "",
          "type": "address"
        }
      ],
      "name": "students",
      "outputs": [
        {
          "internalType": "string",
          "name": "name",
          "type": "string"
        },
        {
          "internalType": "uint256",
          "name": "balance",
          "type": "uint256"
        },
        {
          "internalType": "address",
          "name": "wallet",
          "type": "address"
        }
      ],
      "stateMutability": "view",
      "type": "function"
    },
    {
      "inputs": [],
      "name": "tutorContract",
      "outputs": [
        {
          "internalType": "contract Tutor",
          "name": "",
          "type": "address"
        }
      ],
      "stateMutability": "view",
      "type": "function"
    },
    {
      "inputs": [
        {
          "internalType": "string",
          "name": "_name",
          "type": "string"
        },
        {
          "internalType": "uint256",
          "name": "_balance",
          "type": "uint256"
        },
        {
          "internalType": "string[]",
          "name": "_classesTaught",
          "type": "string[]"
        },
        {
          "internalType": "bool[7]",
          "name": "_daysAvailable",
          "type": "bool[7]"
        },
        {
          "internalType": "address",
          "name": "_adr",
          "type": "address"
        }
      ],
      "name": "addOrUpdateStudent",
      "outputs": [],
      "stateMutability": "nonpayable",
      "type": "function"
    },
    {
      "inputs": [
        {
          "internalType": "address",
          "name": "_receiver",
          "type": "address"
        },
        {
          "internalType": "uint256",
          "name": "_amount",
          "type": "uint256"
        }
      ],
      "name": "sendMoney",
      "outputs": [
        {
          "internalType": "bool",
          "name": "",
          "type": "bool"
        }
      ],
      "stateMutability": "nonpayable",
      "type": "function"
    },
    {
      "inputs": [
        {
          "internalType": "string",
          "name": "_name",
          "type": "string"
        }
      ],
      "name": "isStudentName",
      "outputs": [
        {
          "internalType": "bool",
          "name": "",
          "type": "bool"
        }
      ],
      "stateMutability": "view",
      "type": "function"
    },
    {
      "inputs": [
        {
          "internalType": "string",
          "name": "_name",
          "type": "string"
        }
      ],
      "name": "getStudent",
      "outputs": [
        {
          "components": [
            {
              "internalType": "string",
              "name": "name",
              "type": "string"
            },
            {
              "internalType": "uint256",
              "name": "balance",
              "type": "uint256"
            },
            {
              "internalType": "string[]",
              "name": "classesRequested",
              "type": "string[]"
            },
            {
              "internalType": "bool[7]",
              "name": "daysAvailable",
              "type": "bool[7]"
            },
            {
              "internalType": "address",
              "name": "wallet",
              "type": "address"
            }
          ],
          "internalType": "struct Student.StudentPerson",
          "name": "",
          "type": "tuple"
        }
      ],
      "stateMutability": "view",
      "type": "function"
    },
    {
      "inputs": [],
      "name": "returnAllStudents",
      "outputs": [
        {
          "components": [
            {
              "internalType": "string",
              "name": "name",
              "type": "string"
            },
            {
              "internalType": "uint256",
              "name": "balance",
              "type": "uint256"
            },
            {
              "internalType": "string[]",
              "name": "classesRequested",
              "type": "string[]"
            },
            {
              "internalType": "bool[7]",
              "name": "daysAvailable",
              "type": "bool[7]"
            },
            {
              "internalType": "address",
              "name": "wallet",
              "type": "address"
            }
          ],
          "internalType": "struct Student.StudentPerson[]",
          "name": "",
          "type": "tuple[]"
        }
      ],
      "stateMutability": "view",
      "type": "function"
    },
    {
      "inputs": [
        {
          "internalType": "address",
          "name": "_address",
          "type": "address"
        }
      ],
      "name": "isStudentAddress",
      "outputs": [
        {
          "internalType": "bool",
          "name": "",
          "type": "bool"
        }
      ],
      "stateMutability": "view",
      "type": "function"
    },
    {
      "inputs": [],
      "name": "matchWithTutor",
      "outputs": [],
      "stateMutability": "nonpayable",
      "type": "function"
    }
  ],
  "bytecode": "0x60806040523480156200001157600080fd5b506040516200217a3803806200217a833981810160405281019062000037919062000096565b80600260006101000a81548173ffffffffffffffffffffffffffffffffffffffff021916908373ffffffffffffffffffffffffffffffffffffffff1602179055505062000110565b6000815190506200009081620000f6565b92915050565b600060208284031215620000a957600080fd5b6000620000b9848285016200007f565b91505092915050565b6000620000cf82620000d6565b9050919050565b600073ffffffffffffffffffffffffffffffffffffffff82169050919050565b6200010181620000c2565b81146200010d57600080fd5b50565b61205a80620001206000396000f3fe608060405234801561001057600080fd5b506004361061009e5760003560e01c8063a6c807a911610066578063a6c807a91461015b578063b5ab682d1461018d578063b9de3a20146101bd578063d0296612146101c7578063ee4ae2c9146101f75761009e565b8063074858b3146100a357806364554aa5146100c15780636b966151146100df5780637686b5231461010f5780637b1d09671461013f575b600080fd5b6100ab610227565b6040516100b89190611a91565b60405180910390f35b6100c96105fd565b6040516100d69190611ace565b60405180910390f35b6100f960048036038101906100f491906114c8565b610623565b6040516101069190611ab3565b60405180910390f35b6101296004803603810190610124919061152d565b6106f8565b6040516101369190611ab3565b60405180910390f35b6101596004803603810190610154919061156e565b6107fd565b005b610175600480360381019061017091906114c8565b610996565b60405161018493929190611ae9565b60405180910390f35b6101a760048036038101906101a29190611617565b610a68565b6040516101b49190611a76565b60405180910390f35b6101c5610aa7565b005b6101e160048036038101906101dc919061152d565b610aa9565b6040516101ee9190611b67565b60405180910390f35b610211600480360381019061020c91906114f1565b610ec7565b60405161021e9190611ab3565b60405180910390f35b6060600060018054905067ffffffffffffffff811115610270577f4e487b7100000000000000000000000000000000000000000000000000000000600052604160045260246000fd5b6040519080825280602002602001820160405280156102a957816020015b6102966110a3565b81526020019060019003908161028e5790505b50905060005b6001805490508110156105f557600080600183815481106102f9577f4e487b7100000000000000000000000000000000000000000000000000000000600052603260045260246000fd5b9060005260206000200160009054906101000a900473ffffffffffffffffffffffffffffffffffffffff1673ffffffffffffffffffffffffffffffffffffffff1673ffffffffffffffffffffffffffffffffffffffff1681526020019081526020016000206040518060a001604052908160008201805461037990611e43565b80601f01602080910402602001604051908101604052809291908181526020018280546103a590611e43565b80156103f25780601f106103c7576101008083540402835291602001916103f2565b820191906000526020600020905b8154815290600101906020018083116103d557829003601f168201915b505050505081526020016001820154815260200160028201805480602002602001604051908101604052809291908181526020016000905b828210156104d657838290600052602060002001805461044990611e43565b80601f016020809104026020016040519081016040528092919081815260200182805461047590611e43565b80156104c25780601f10610497576101008083540402835291602001916104c2565b820191906000526020600020905b8154815290600101906020018083116104a557829003601f168201915b50505050508152602001906001019061042a565b5050505081526020016003820160078060200260405190810160405280929190826007801561053f576020028201916000905b82829054906101000a900460ff161515815260200190600101906020826000010492830192600103820291508084116105095790505b505050505081526020016004820160009054906101000a900473ffffffffffffffffffffffffffffffffffffffff1673ffffffffffffffffffffffffffffffffffffffff1673ffffffffffffffffffffffffffffffffffffffff16815250508282815181106105d7577f4e487b7100000000000000000000000000000000000000000000000000000000600052603260045260246000fd5b602002602001018190525080806105ed90611ea6565b9150506102af565b508091505090565b600260009054906101000a900473ffffffffffffffffffffffffffffffffffffffff1681565b600080600090505b6001805490508110156106ed578273ffffffffffffffffffffffffffffffffffffffff1660018281548110610689577f4e487b7100000000000000000000000000000000000000000000000000000000600052603260045260246000fd5b9060005260206000200160009054906101000a900473ffffffffffffffffffffffffffffffffffffffff1673ffffffffffffffffffffffffffffffffffffffff1614156106da5760019150506106f3565b80806106e590611ea6565b91505061062b565b50600090505b919050565b600080600090505b6001805490508110156107f257828051906020012060008060018481548110610752577f4e487b7100000000000000000000000000000000000000000000000000000000600052603260045260246000fd5b9060005260206000200160009054906101000a900473ffffffffffffffffffffffffffffffffffffffff1673ffffffffffffffffffffffffffffffffffffffff1673ffffffffffffffffffffffffffffffffffffffff1681526020019081526020016000206000016040516107c79190611a5f565b604051809103902014156107df5760019150506107f8565b80806107ea90611ea6565b915050610700565b50600090505b919050565b61080681610623565b61086e576001819080600181540180825580915050600190039060005260206000200160009091909190916101000a81548173ffffffffffffffffffffffffffffffffffffffff021916908373ffffffffffffffffffffffffffffffffffffffff1602179055505b6040518060a001604052808681526020018581526020018481526020018381526020018273ffffffffffffffffffffffffffffffffffffffff168152506000808373ffffffffffffffffffffffffffffffffffffffff1673ffffffffffffffffffffffffffffffffffffffff16815260200190815260200160002060008201518160000190805190602001906109059291906110ee565b5060208201518160010155604082015181600201908051906020019061092c929190611174565b506060820151816003019060076109449291906111d4565b5060808201518160040160006101000a81548173ffffffffffffffffffffffffffffffffffffffff021916908373ffffffffffffffffffffffffffffffffffffffff1602179055509050505050505050565b60006020528060005260406000206000915090508060000180546109b990611e43565b80601f01602080910402602001604051908101604052809291908181526020018280546109e590611e43565b8015610a325780601f10610a0757610100808354040283529160200191610a32565b820191906000526020600020905b815481529060010190602001808311610a1557829003601f168201915b5050505050908060010154908060040160009054906101000a900473ffffffffffffffffffffffffffffffffffffffff16905083565b60018181548110610a7857600080fd5b906000526020600020016000915054906101000a900473ffffffffffffffffffffffffffffffffffffffff1681565b565b610ab16110a3565b60005b600180549050811015610e8657828051906020012060008060018481548110610b06577f4e487b7100000000000000000000000000000000000000000000000000000000600052603260045260246000fd5b9060005260206000200160009054906101000a900473ffffffffffffffffffffffffffffffffffffffff1673ffffffffffffffffffffffffffffffffffffffff1673ffffffffffffffffffffffffffffffffffffffff168152602001908152602001600020600001604051610b7b9190611a5f565b60405180910390201415610e735760008060018381548110610bc6577f4e487b7100000000000000000000000000000000000000000000000000000000600052603260045260246000fd5b9060005260206000200160009054906101000a900473ffffffffffffffffffffffffffffffffffffffff1673ffffffffffffffffffffffffffffffffffffffff1673ffffffffffffffffffffffffffffffffffffffff1681526020019081526020016000206040518060a0016040529081600082018054610c4690611e43565b80601f0160208091040260200160405190810160405280929190818152602001828054610c7290611e43565b8015610cbf5780601f10610c9457610100808354040283529160200191610cbf565b820191906000526020600020905b815481529060010190602001808311610ca257829003601f168201915b505050505081526020016001820154815260200160028201805480602002602001604051908101604052809291908181526020016000905b82821015610da3578382906000526020600020018054610d1690611e43565b80601f0160208091040260200160405190810160405280929190818152602001828054610d4290611e43565b8015610d8f5780601f10610d6457610100808354040283529160200191610d8f565b820191906000526020600020905b815481529060010190602001808311610d7257829003601f168201915b505050505081526020019060010190610cf7565b50505050815260200160038201600780602002604051908101604052809291908260078015610e0c576020028201916000905b82829054906101000a900460ff16151581526020019060010190602082600001049283019260010382029150808411610dd65790505b505050505081526020016004820160009054906101000a900473ffffffffffffffffffffffffffffffffffffffff1673ffffffffffffffffffffffffffffffffffffffff1673ffffffffffffffffffffffffffffffffffffffff1681525050915050610ec2565b8080610e7e90611ea6565b915050610ab4565b506040517f08c379a0000000000000000000000000000000000000000000000000000000008152600401610eb990611b47565b60405180910390fd5b919050565b6000816000803373ffffffffffffffffffffffffffffffffffffffff1673ffffffffffffffffffffffffffffffffffffffff168152602001908152602001600020600101541015610f4d576040517f08c379a0000000000000000000000000000000000000000000000000000000008152600401610f4490611b27565b60405180910390fd5b816000803373ffffffffffffffffffffffffffffffffffffffff1673ffffffffffffffffffffffffffffffffffffffff1681526020019081526020016000206001016000828254610f9e9190611d61565b92505081905550600260009054906101000a900473ffffffffffffffffffffffffffffffffffffffff1673ffffffffffffffffffffffffffffffffffffffff166381917c7583856040518363ffffffff1660e01b8152600401611002929190611ba4565b600060405180830381600087803b15801561101c57600080fd5b505af1158015611030573d6000803e3d6000fd5b505050508273ffffffffffffffffffffffffffffffffffffffff163373ffffffffffffffffffffffffffffffffffffffff167fddf252ad1be2c89b69c2b068fc378daa952ba7f163c4a11628f55a4df523b3ef846040516110919190611b89565b60405180910390a36001905092915050565b6040518060a001604052806060815260200160008152602001606081526020016110cb61126d565b8152602001600073ffffffffffffffffffffffffffffffffffffffff1681525090565b8280546110fa90611e43565b90600052602060002090601f01602090048101928261111c5760008555611163565b82601f1061113557805160ff1916838001178555611163565b82800160010185558215611163579182015b82811115611162578251825591602001919060010190611147565b5b509050611170919061128f565b5090565b8280548282559060005260206000209081019282156111c3579160200282015b828111156111c25782518290805190602001906111b29291906110ee565b5091602001919060010190611194565b5b5090506111d091906112ac565b5090565b826007601f0160209004810192821561125c5791602002820160005b8382111561122d57835183826101000a81548160ff02191690831515021790555092602001926001016020816000010492830192600103026111f0565b801561125a5782816101000a81549060ff021916905560010160208160000104928301926001030261122d565b505b509050611269919061128f565b5090565b6040518060e00160405280600790602082028036833780820191505090505090565b5b808211156112a8576000816000905550600101611290565b5090565b5b808211156112cc57600081816112c391906112d0565b506001016112ad565b5090565b5080546112dc90611e43565b6000825580601f106112ee575061130d565b601f01602090049060005260206000209081019061130c919061128f565b5b50565b600061132361131e84611bf2565b611bcd565b9050808285602086028201111561133957600080fd5b60005b85811015611369578161134f8882611474565b84526020840193506020830192505060018101905061133c565b5050509392505050565b600061138661138184611c18565b611bcd565b9050808382526020820190508260005b858110156113c657813585016113ac8882611489565b845260208401935060208301925050600181019050611396565b5050509392505050565b60006113e36113de84611c44565b611bcd565b9050828152602081018484840111156113fb57600080fd5b611406848285611e01565b509392505050565b60008135905061141d81611fdf565b92915050565b600082601f83011261143457600080fd5b6007611441848285611310565b91505092915050565b600082601f83011261145b57600080fd5b813561146b848260208601611373565b91505092915050565b60008135905061148381611ff6565b92915050565b600082601f83011261149a57600080fd5b81356114aa8482602086016113d0565b91505092915050565b6000813590506114c28161200d565b92915050565b6000602082840312156114da57600080fd5b60006114e88482850161140e565b91505092915050565b6000806040838503121561150457600080fd5b60006115128582860161140e565b9250506020611523858286016114b3565b9150509250929050565b60006020828403121561153f57600080fd5b600082013567ffffffffffffffff81111561155957600080fd5b61156584828501611489565b91505092915050565b6000806000806000610160868803121561158757600080fd5b600086013567ffffffffffffffff8111156115a157600080fd5b6115ad88828901611489565b95505060206115be888289016114b3565b945050604086013567ffffffffffffffff8111156115db57600080fd5b6115e78882890161144a565b93505060606115f888828901611423565b92505061014061160a8882890161140e565b9150509295509295909350565b60006020828403121561162957600080fd5b6000611637848285016114b3565b91505092915050565b600061164c83836117df565b60208301905092915050565b6000611664838361188b565b905092915050565b60006116788383611943565b905092915050565b61168981611d95565b82525050565b61169881611d95565b82525050565b6116a781611cb4565b6116b18184611d07565b92506116bc82611c75565b8060005b838110156116ed5781516116d48782611640565b96506116df83611ce0565b9250506001810190506116c0565b505050505050565b600061170082611cbf565b61170a8185611d12565b93508360208202850161171c85611c7f565b8060005b8581101561175857848403895281516117398582611658565b945061174483611ced565b925060208a01995050600181019050611720565b50829750879550505050505092915050565b600061177582611cca565b61177f8185611d23565b93508360208202850161179185611c8f565b8060005b858110156117cd57848403895281516117ae858261166c565b94506117b983611cfa565b925060208a01995050600181019050611795565b50829750879550505050505092915050565b6117e881611da7565b82525050565b6117f781611da7565b82525050565b6000815461180a81611e43565b6118148186611d34565b9450600182166000811461182f576001811461184057611873565b60ff19831686528186019350611873565b61184985611c9f565b60005b8381101561186b5781548189015260018201915060208101905061184c565b838801955050505b50505092915050565b61188581611ddd565b82525050565b600061189682611cd5565b6118a08185611d3f565b93506118b0818560208601611e10565b6118b981611f7c565b840191505092915050565b60006118cf82611cd5565b6118d98185611d50565b93506118e9818560208601611e10565b6118f281611f7c565b840191505092915050565b600061190a601483611d50565b915061191582611f8d565b602082019050919050565b600061192d601183611d50565b915061193882611fb6565b602082019050919050565b6000610160830160008301518482036000860152611961828261188b565b91505060208301516119766020860182611a41565b506040830151848203604086015261198e82826116f5565b91505060608301516119a3606086018261169e565b5060808301516119b7610140860182611680565b508091505092915050565b60006101608301600083015184820360008601526119e0828261188b565b91505060208301516119f56020860182611a41565b5060408301518482036040860152611a0d82826116f5565b9150506060830151611a22606086018261169e565b506080830151611a36610140860182611680565b508091505092915050565b611a4a81611dd3565b82525050565b611a5981611dd3565b82525050565b6000611a6b82846117fd565b915081905092915050565b6000602082019050611a8b600083018461168f565b92915050565b60006020820190508181036000830152611aab818461176a565b905092915050565b6000602082019050611ac860008301846117ee565b92915050565b6000602082019050611ae3600083018461187c565b92915050565b60006060820190508181036000830152611b0381866118c4565b9050611b126020830185611a50565b611b1f604083018461168f565b949350505050565b60006020820190508181036000830152611b40816118fd565b9050919050565b60006020820190508181036000830152611b6081611920565b9050919050565b60006020820190508181036000830152611b8181846119c2565b905092915050565b6000602082019050611b9e6000830184611a50565b92915050565b6000604082019050611bb96000830185611a50565b611bc6602083018461168f565b9392505050565b6000611bd7611be8565b9050611be38282611e75565b919050565b6000604051905090565b600067ffffffffffffffff821115611c0d57611c0c611f4d565b5b602082029050919050565b600067ffffffffffffffff821115611c3357611c32611f4d565b5b602082029050602081019050919050565b600067ffffffffffffffff821115611c5f57611c5e611f4d565b5b611c6882611f7c565b9050602081019050919050565b6000819050919050565b6000819050602082019050919050565b6000819050602082019050919050565b60008190508160005260206000209050919050565b600060079050919050565b600081519050919050565b600081519050919050565b600081519050919050565b6000602082019050919050565b6000602082019050919050565b6000602082019050919050565b600081905092915050565b600082825260208201905092915050565b600082825260208201905092915050565b600081905092915050565b600082825260208201905092915050565b600082825260208201905092915050565b6000611d6c82611dd3565b9150611d7783611dd3565b925082821015611d8a57611d89611eef565b5b828203905092915050565b6000611da082611db3565b9050919050565b60008115159050919050565b600073ffffffffffffffffffffffffffffffffffffffff82169050919050565b6000819050919050565b6000611de882611def565b9050919050565b6000611dfa82611db3565b9050919050565b82818337600083830152505050565b60005b83811015611e2e578082015181840152602081019050611e13565b83811115611e3d576000848401525b50505050565b60006002820490506001821680611e5b57607f821691505b60208210811415611e6f57611e6e611f1e565b5b50919050565b611e7e82611f7c565b810181811067ffffffffffffffff82111715611e9d57611e9c611f4d565b5b80604052505050565b6000611eb182611dd3565b91507fffffffffffffffffffffffffffffffffffffffffffffffffffffffffffffffff821415611ee457611ee3611eef565b5b600182019050919050565b7f4e487b7100000000000000000000000000000000000000000000000000000000600052601160045260246000fd5b7f4e487b7100000000000000000000000000000000000000000000000000000000600052602260045260246000fd5b7f4e487b7100000000000000000000000000000000000000000000000000000000600052604160045260246000fd5b6000601f19601f8301169050919050565b7f496e73756666696369656e742062616c616e6365000000000000000000000000600082015250565b7f53747564656e74206e6f7420666f756e64000000000000000000000000000000600082015250565b611fe881611d95565b8114611ff357600080fd5b50565b611fff81611da7565b811461200a57600080fd5b50565b61201681611dd3565b811461202157600080fd5b5056fea264697066735822122005e43a11727f3a9c6103eae6541fbcc206e64a92753c2b79d20beff7f086d24964736f6c63430008020033",
  "immutableReferences": {},
  "source": "// SPDX-License-Identifier: MIT\r\n\r\npragma solidity ^0.8.2;\r\n\r\n\r\nimport './Tutor.sol';\r\n\r\n\r\n/**\r\n * @title Student\r\n * @dev Stores the Students and handles certain interactions between students and tutors\r\n */\r\ncontract Student {\r\n\r\n    struct StudentPerson {\r\n        string name;\r\n        uint256 balance;\r\n        string[] classesRequested;\r\n        bool[7] daysAvailable;\r\n        address wallet;\r\n    }\r\n\r\n    mapping(address => StudentPerson) public students;\r\n    address[] public studentAddresses;\r\n\r\n    event Transfer(address indexed from, address indexed to, uint256 value);\r\n\r\n    Tutor public tutorContract;\r\n\r\n    constructor(address _tutorContract) {\r\n        tutorContract = Tutor(_tutorContract);\r\n    }\r\n\r\n    function addOrUpdateStudent(string memory _name, uint256 _balance, string[] memory _classesTaught, bool[7] memory _daysAvailable, address _adr) public {\r\n        if (!isStudentAddress(_adr)) {\r\n            studentAddresses.push(_adr);\r\n        }\r\n        students[_adr] = StudentPerson(_name, _balance, _classesTaught, _daysAvailable, _adr);\r\n    }\r\n\r\n    function sendMoney(address _receiver, uint256 _amount) public returns (bool) {\r\n        require(students[msg.sender].balance >= _amount, \"Insufficient balance\");\r\n\r\n        students[msg.sender].balance -= _amount;\r\n        tutorContract.receiveMoney(_amount, _receiver);\r\n\r\n        emit Transfer(msg.sender, _receiver, _amount);\r\n        return true;\r\n    }\r\n\r\n\r\n    function isStudentName(string memory _name) public view returns (bool) {\r\n        for (uint i = 0; i < studentAddresses.length; i++) {\r\n            if (keccak256(bytes(students[studentAddresses[i]].name)) == keccak256(bytes(_name))) {\r\n                return true;\r\n            }\r\n        }\r\n        return false;\r\n    }\r\n\r\n    function getStudent(string memory _name) public view returns (StudentPerson memory) {\r\n        for (uint i = 0; i < studentAddresses.length; i++) {\r\n             if (keccak256(bytes(students[studentAddresses[i]].name)) == keccak256(bytes(_name))) {\r\n                return students[studentAddresses[i]];\r\n            }\r\n        }\r\n\r\n        revert(\"Student not found\");\r\n    }\r\n\r\n    function returnAllStudents() public view returns (StudentPerson[] memory) {\r\n        \r\n        \r\n        StudentPerson[] memory studentsList = new StudentPerson[](studentAddresses.length);\r\n        for (uint i = 0; i < studentAddresses.length; i++) {\r\n            studentsList[i] = students[studentAddresses[i]];\r\n        }\r\n        return studentsList;\r\n    }\r\n\r\n\r\n    // Function to check if an address is in the tutorAddresses array\r\n    function isStudentAddress(address _address) public view returns (bool) {\r\n        for (uint i = 0; i < studentAddresses.length; i++) {\r\n            if (studentAddresses[i] == _address) {\r\n                return true;\r\n            }\r\n        }\r\n        return false;\r\n    }\r\n\r\n\r\n    function matchWithTutor() public{}\r\n\r\n}",
  "sourcePath": "C:\\Users\\berta\\Desktop\\Decentralized-Tutor\\contracts\\Student.sol",
  "compiler": {
    "name": "solc",
    "version": "0.8.2+commit.661d1103.Emscripten.clang"
  },
  "schemaVersion": "3.4.16",
  "updatedAt": "2024-06-17T16:35:19.229Z",
  "devdoc": {
    "details": "Stores the Students and handles certain interactions between students and tutors",
    "kind": "dev",
    "methods": {},
    "title": "Student",
    "version": 1
  },
  "userdoc": {
    "kind": "user",
    "methods": {},
    "version": 1
  }
}