{
  "contractName": "Student",
  "abi": [
    {
      "inputs": [
        {
          "internalType": "address",
          "name": "_tutorContract",
          "type": "address"
        }
      ],
      "stateMutability": "nonpayable",
      "type": "constructor"
    },
    {
      "anonymous": false,
      "inputs": [
        {
          "indexed": true,
          "internalType": "address",
          "name": "from",
          "type": "address"
        },
        {
          "indexed": true,
          "internalType": "address",
          "name": "to",
          "type": "address"
        },
        {
          "indexed": false,
          "internalType": "uint256",
          "name": "value",
          "type": "uint256"
        }
      ],
      "name": "Transfer",
      "type": "event"
    },
    {
      "inputs": [
        {
          "internalType": "uint256",
          "name": "",
          "type": "uint256"
        }
      ],
      "name": "studentAddresses",
      "outputs": [
        {
          "internalType": "address",
          "name": "",
          "type": "address"
        }
      ],
      "stateMutability": "view",
      "type": "function"
    },
    {
      "inputs": [
        {
          "internalType": "address",
          "name": "",
          "type": "address"
        }
      ],
      "name": "students",
      "outputs": [
        {
          "internalType": "string",
          "name": "name",
          "type": "string"
        },
        {
          "internalType": "uint256",
          "name": "balance",
          "type": "uint256"
        },
        {
          "internalType": "address",
          "name": "wallet",
          "type": "address"
        }
      ],
      "stateMutability": "view",
      "type": "function"
    },
    {
      "inputs": [],
      "name": "tutorContract",
      "outputs": [
        {
          "internalType": "contract Tutor",
          "name": "",
          "type": "address"
        }
      ],
      "stateMutability": "view",
      "type": "function"
    },
    {
      "inputs": [
        {
          "internalType": "string",
          "name": "_name",
          "type": "string"
        },
        {
          "internalType": "uint256",
          "name": "_balance",
          "type": "uint256"
        },
        {
          "internalType": "string[]",
          "name": "_classesTaught",
          "type": "string[]"
        },
        {
          "internalType": "bool[7]",
          "name": "_daysAvailable",
          "type": "bool[7]"
        },
        {
          "internalType": "string[]",
          "name": "_currentTutors",
          "type": "string[]"
        },
        {
          "internalType": "address",
          "name": "_adr",
          "type": "address"
        }
      ],
      "name": "addOrUpdateStudent",
      "outputs": [],
      "stateMutability": "nonpayable",
      "type": "function"
    },
    {
      "inputs": [
        {
          "internalType": "address",
          "name": "_receiver",
          "type": "address"
        },
        {
          "internalType": "uint256",
          "name": "_amount",
          "type": "uint256"
        }
      ],
      "name": "sendMoney",
      "outputs": [
        {
          "internalType": "bool",
          "name": "",
          "type": "bool"
        }
      ],
      "stateMutability": "nonpayable",
      "type": "function"
    },
    {
      "inputs": [
        {
          "internalType": "string",
          "name": "_name",
          "type": "string"
        }
      ],
      "name": "isStudentName",
      "outputs": [
        {
          "internalType": "bool",
          "name": "",
          "type": "bool"
        }
      ],
      "stateMutability": "view",
      "type": "function"
    },
    {
      "inputs": [
        {
          "internalType": "string",
          "name": "_name",
          "type": "string"
        }
      ],
      "name": "getStudent",
      "outputs": [
        {
          "components": [
            {
              "internalType": "string",
              "name": "name",
              "type": "string"
            },
            {
              "internalType": "uint256",
              "name": "balance",
              "type": "uint256"
            },
            {
              "internalType": "string[]",
              "name": "classesRequested",
              "type": "string[]"
            },
            {
              "internalType": "bool[7]",
              "name": "daysAvailable",
              "type": "bool[7]"
            },
            {
              "internalType": "string[]",
              "name": "currentTutors",
              "type": "string[]"
            },
            {
              "internalType": "address",
              "name": "wallet",
              "type": "address"
            }
          ],
          "internalType": "struct Student.StudentPerson",
          "name": "",
          "type": "tuple"
        }
      ],
      "stateMutability": "view",
      "type": "function"
    },
    {
      "inputs": [],
      "name": "returnAllStudents",
      "outputs": [
        {
          "components": [
            {
              "internalType": "string",
              "name": "name",
              "type": "string"
            },
            {
              "internalType": "uint256",
              "name": "balance",
              "type": "uint256"
            },
            {
              "internalType": "string[]",
              "name": "classesRequested",
              "type": "string[]"
            },
            {
              "internalType": "bool[7]",
              "name": "daysAvailable",
              "type": "bool[7]"
            },
            {
              "internalType": "string[]",
              "name": "currentTutors",
              "type": "string[]"
            },
            {
              "internalType": "address",
              "name": "wallet",
              "type": "address"
            }
          ],
          "internalType": "struct Student.StudentPerson[]",
          "name": "",
          "type": "tuple[]"
        }
      ],
      "stateMutability": "view",
      "type": "function"
    },
    {
      "inputs": [
        {
          "internalType": "address",
          "name": "_address",
          "type": "address"
        }
      ],
      "name": "isStudentAddress",
      "outputs": [
        {
          "internalType": "bool",
          "name": "",
          "type": "bool"
        }
      ],
      "stateMutability": "view",
      "type": "function"
    },
    {
      "inputs": [
        {
          "internalType": "string",
          "name": "_studentName",
          "type": "string"
        }
      ],
      "name": "matchWithTutor",
      "outputs": [
        {
          "internalType": "bool",
          "name": "",
          "type": "bool"
        }
      ],
      "stateMutability": "nonpayable",
      "type": "function"
    }
  ],
  "bytecode": "0x60806040523480156200001157600080fd5b5060405162002fbd38038062002fbd833981810160405281019062000037919062000096565b80600260006101000a81548173ffffffffffffffffffffffffffffffffffffffff021916908373ffffffffffffffffffffffffffffffffffffffff1602179055505062000110565b6000815190506200009081620000f6565b92915050565b600060208284031215620000a957600080fd5b6000620000b9848285016200007f565b91505092915050565b6000620000cf82620000d6565b9050919050565b600073ffffffffffffffffffffffffffffffffffffffff82169050919050565b6200010181620000c2565b81146200010d57600080fd5b50565b612e9d80620001206000396000f3fe608060405234801561001057600080fd5b506004361061009e5760003560e01c80639e291093116100665780639e2910931461015b578063a6c807a91461018b578063b5ab682d146101bd578063d0296612146101ed578063ee4ae2c91461021d5761009e565b8063074858b3146100a357806364554aa5146100c15780636b966151146100df5780637686b5231461010f578063912da5e31461013f575b600080fd5b6100ab61024d565b6040516100b89190612824565b60405180910390f35b6100c96106fc565b6040516100d69190612861565b60405180910390f35b6100f960048036038101906100f49190612026565b610722565b6040516101069190612846565b60405180910390f35b610129600480360381019061012491906120cc565b6107f7565b6040516101369190612846565b60405180910390f35b6101596004803603810190610154919061210d565b6108fc565b005b610175600480360381019061017091906120cc565b610ab9565b6040516101829190612846565b60405180910390f35b6101a560048036038101906101a09190612026565b610f52565b6040516101b49392919061287c565b60405180910390f35b6101d760048036038101906101d291906121e1565b611024565b6040516101e491906127b0565b60405180910390f35b610207600480360381019061020291906120cc565b611063565b60405161021491906128fa565b60405180910390f35b6102376004803603810190610232919061204f565b61155a565b6040516102449190612846565b60405180910390f35b6060600060018054905067ffffffffffffffff811115610296577f4e487b7100000000000000000000000000000000000000000000000000000000600052604160045260246000fd5b6040519080825280602002602001820160405280156102cf57816020015b6102bc6118d4565b8152602001906001900390816102b45790505b50905060005b6001805490508110156106f4576000806001838154811061031f577f4e487b7100000000000000000000000000000000000000000000000000000000600052603260045260246000fd5b9060005260206000200160009054906101000a900473ffffffffffffffffffffffffffffffffffffffff1673ffffffffffffffffffffffffffffffffffffffff1673ffffffffffffffffffffffffffffffffffffffff1681526020019081526020016000206040518060c001604052908160008201805461039f90612c55565b80601f01602080910402602001604051908101604052809291908181526020018280546103cb90612c55565b80156104185780601f106103ed57610100808354040283529160200191610418565b820191906000526020600020905b8154815290600101906020018083116103fb57829003601f168201915b505050505081526020016001820154815260200160028201805480602002602001604051908101604052809291908181526020016000905b828210156104fc57838290600052602060002001805461046f90612c55565b80601f016020809104026020016040519081016040528092919081815260200182805461049b90612c55565b80156104e85780601f106104bd576101008083540402835291602001916104e8565b820191906000526020600020905b8154815290600101906020018083116104cb57829003601f168201915b505050505081526020019060010190610450565b50505050815260200160038201600780602002604051908101604052809291908260078015610565576020028201916000905b82829054906101000a900460ff1615158152602001906001019060208260000104928301926001038202915080841161052f5790505b5050505050815260200160048201805480602002602001604051908101604052809291908181526020016000905b8282101561063f5783829060005260206000200180546105b290612c55565b80601f01602080910402602001604051908101604052809291908181526020018280546105de90612c55565b801561062b5780601f106106005761010080835404028352916020019161062b565b820191906000526020600020905b81548152906001019060200180831161060e57829003601f168201915b505050505081526020019060010190610593565b5050505081526020016005820160009054906101000a900473ffffffffffffffffffffffffffffffffffffffff1673ffffffffffffffffffffffffffffffffffffffff1673ffffffffffffffffffffffffffffffffffffffff16815250508282815181106106d6577f4e487b7100000000000000000000000000000000000000000000000000000000600052603260045260246000fd5b602002602001018190525080806106ec90612cb8565b9150506102d5565b508091505090565b600260009054906101000a900473ffffffffffffffffffffffffffffffffffffffff1681565b600080600090505b6001805490508110156107ec578273ffffffffffffffffffffffffffffffffffffffff1660018281548110610788577f4e487b7100000000000000000000000000000000000000000000000000000000600052603260045260246000fd5b9060005260206000200160009054906101000a900473ffffffffffffffffffffffffffffffffffffffff1673ffffffffffffffffffffffffffffffffffffffff1614156107d95760019150506107f2565b80806107e490612cb8565b91505061072a565b50600090505b919050565b600080600090505b6001805490508110156108f157828051906020012060008060018481548110610851577f4e487b7100000000000000000000000000000000000000000000000000000000600052603260045260246000fd5b9060005260206000200160009054906101000a900473ffffffffffffffffffffffffffffffffffffffff1673ffffffffffffffffffffffffffffffffffffffff1673ffffffffffffffffffffffffffffffffffffffff1681526020019081526020016000206000016040516108c69190612799565b604051809103902014156108de5760019150506108f7565b80806108e990612cb8565b9150506107ff565b50600090505b919050565b61090581610722565b61096d576001819080600181540180825580915050600190039060005260206000200160009091909190916101000a81548173ffffffffffffffffffffffffffffffffffffffff021916908373ffffffffffffffffffffffffffffffffffffffff1602179055505b6040518060c001604052808781526020018681526020018581526020018481526020018381526020018273ffffffffffffffffffffffffffffffffffffffff168152506000808373ffffffffffffffffffffffffffffffffffffffff1673ffffffffffffffffffffffffffffffffffffffff1681526020019081526020016000206000820151816000019080519060200190610a0a929190611926565b50602082015181600101556040820151816002019080519060200190610a319291906119ac565b50606082015181600301906007610a49929190611a0c565b506080820151816004019080519060200190610a669291906119ac565b5060a08201518160050160006101000a81548173ffffffffffffffffffffffffffffffffffffffff021916908373ffffffffffffffffffffffffffffffffffffffff160217905550905050505050505050565b600080600080610ac885611736565b73ffffffffffffffffffffffffffffffffffffffff1673ffffffffffffffffffffffffffffffffffffffff16815260200190815260200160002090506000600260009054906101000a900473ffffffffffffffffffffffffffffffffffffffff1673ffffffffffffffffffffffffffffffffffffffff1663d7069bf4836002016040518263ffffffff1660e01b8152600401610b649190612802565b60006040518083038186803b158015610b7c57600080fd5b505afa158015610b90573d6000803e3d6000fd5b505050506040513d6000823e3d601f19601f82011682018060405250810190610bb9919061208b565b905060005b6007811015610f4557826003018160078110610c03577f4e487b7100000000000000000000000000000000000000000000000000000000600052603260045260246000fd5b602091828204019190069054906101000a900460ff1615610f32576000600260009054906101000a900473ffffffffffffffffffffffffffffffffffffffff1673ffffffffffffffffffffffffffffffffffffffff16638e6c3a7f836040518263ffffffff1660e01b8152600401610c7b919061291c565b60006040518083038186803b158015610c9357600080fd5b505afa158015610ca7573d6000803e3d6000fd5b505050506040513d6000823e3d601f19601f82011682018060405250810190610cd0919061208b565b905060005b8151811015610f2f5760005b8451811015610f1b57848181518110610d23577f4e487b7100000000000000000000000000000000000000000000000000000000600052603260045260246000fd5b602002602001015160a00151604051602001610d3f919061277e565b60405160208183030381529060405280519060200120838381518110610d8e577f4e487b7100000000000000000000000000000000000000000000000000000000600052603260045260246000fd5b602002602001015160a00151604051602001610daa919061277e565b604051602081830303815290604052805190602001201415610f0857600260009054906101000a900473ffffffffffffffffffffffffffffffffffffffff1673ffffffffffffffffffffffffffffffffffffffff16637a982154848481518110610e3d577f4e487b7100000000000000000000000000000000000000000000000000000000600052603260045260246000fd5b602002602001015160a001518660006040518463ffffffff1660e01b8152600401610e6a939291906127cb565b600060405180830381600087803b158015610e8457600080fd5b505af1158015610e98573d6000803e3d6000fd5b505050506000866003018560078110610eda577f4e487b7100000000000000000000000000000000000000000000000000000000600052603260045260246000fd5b602091828204019190066101000a81548160ff02191690831515021790555060019650505050505050610f4d565b8080610f1390612cb8565b915050610ce1565b508080610f2790612cb8565b915050610cd5565b50505b8080610f3d90612cb8565b915050610bbe565b506000925050505b919050565b6000602052806000526040600020600091509050806000018054610f7590612c55565b80601f0160208091040260200160405190810160405280929190818152602001828054610fa190612c55565b8015610fee5780601f10610fc357610100808354040283529160200191610fee565b820191906000526020600020905b815481529060010190602001808311610fd157829003601f168201915b5050505050908060010154908060050160009054906101000a900473ffffffffffffffffffffffffffffffffffffffff16905083565b6001818154811061103457600080fd5b906000526020600020016000915054906101000a900473ffffffffffffffffffffffffffffffffffffffff1681565b61106b6118d4565b60005b600180549050811015611519578280519060200120600080600184815481106110c0577f4e487b7100000000000000000000000000000000000000000000000000000000600052603260045260246000fd5b9060005260206000200160009054906101000a900473ffffffffffffffffffffffffffffffffffffffff1673ffffffffffffffffffffffffffffffffffffffff1673ffffffffffffffffffffffffffffffffffffffff1681526020019081526020016000206000016040516111359190612799565b604051809103902014156115065760008060018381548110611180577f4e487b7100000000000000000000000000000000000000000000000000000000600052603260045260246000fd5b9060005260206000200160009054906101000a900473ffffffffffffffffffffffffffffffffffffffff1673ffffffffffffffffffffffffffffffffffffffff1673ffffffffffffffffffffffffffffffffffffffff1681526020019081526020016000206040518060c001604052908160008201805461120090612c55565b80601f016020809104026020016040519081016040528092919081815260200182805461122c90612c55565b80156112795780601f1061124e57610100808354040283529160200191611279565b820191906000526020600020905b81548152906001019060200180831161125c57829003601f168201915b505050505081526020016001820154815260200160028201805480602002602001604051908101604052809291908181526020016000905b8282101561135d5783829060005260206000200180546112d090612c55565b80601f01602080910402602001604051908101604052809291908181526020018280546112fc90612c55565b80156113495780601f1061131e57610100808354040283529160200191611349565b820191906000526020600020905b81548152906001019060200180831161132c57829003601f168201915b5050505050815260200190600101906112b1565b505050508152602001600382016007806020026040519081016040528092919082600780156113c6576020028201916000905b82829054906101000a900460ff161515815260200190600101906020826000010492830192600103820291508084116113905790505b5050505050815260200160048201805480602002602001604051908101604052809291908181526020016000905b828210156114a057838290600052602060002001805461141390612c55565b80601f016020809104026020016040519081016040528092919081815260200182805461143f90612c55565b801561148c5780601f106114615761010080835404028352916020019161148c565b820191906000526020600020905b81548152906001019060200180831161146f57829003601f168201915b5050505050815260200190600101906113f4565b5050505081526020016005820160009054906101000a900473ffffffffffffffffffffffffffffffffffffffff1673ffffffffffffffffffffffffffffffffffffffff1673ffffffffffffffffffffffffffffffffffffffff1681525050915050611555565b808061151190612cb8565b91505061106e565b506040517f08c379a000000000000000000000000000000000000000000000000000000000815260040161154c906128da565b60405180910390fd5b919050565b6000816000803373ffffffffffffffffffffffffffffffffffffffff1673ffffffffffffffffffffffffffffffffffffffff1681526020019081526020016000206001015410156115e0576040517f08c379a00000000000000000000000000000000000000000000000000000000081526004016115d7906128ba565b60405180910390fd5b816000803373ffffffffffffffffffffffffffffffffffffffff1673ffffffffffffffffffffffffffffffffffffffff16815260200190815260200160002060010160008282546116319190612b73565b92505081905550600260009054906101000a900473ffffffffffffffffffffffffffffffffffffffff1673ffffffffffffffffffffffffffffffffffffffff166381917c7583856040518363ffffffff1660e01b8152600401611695929190612937565b600060405180830381600087803b1580156116af57600080fd5b505af11580156116c3573d6000803e3d6000fd5b505050508273ffffffffffffffffffffffffffffffffffffffff163373ffffffffffffffffffffffffffffffffffffffff167fddf252ad1be2c89b69c2b068fc378daa952ba7f163c4a11628f55a4df523b3ef84604051611724919061291c565b60405180910390a36001905092915050565b600080600090505b60018054905081101561189357828051906020012060008060018481548110611790577f4e487b7100000000000000000000000000000000000000000000000000000000600052603260045260246000fd5b9060005260206000200160009054906101000a900473ffffffffffffffffffffffffffffffffffffffff1673ffffffffffffffffffffffffffffffffffffffff1673ffffffffffffffffffffffffffffffffffffffff1681526020019081526020016000206000016040516118059190612799565b60405180910390201415611880576001818154811061184d577f4e487b7100000000000000000000000000000000000000000000000000000000600052603260045260246000fd5b9060005260206000200160009054906101000a900473ffffffffffffffffffffffffffffffffffffffff169150506118cf565b808061188b90612cb8565b91505061173e565b506040517f08c379a00000000000000000000000000000000000000000000000000000000081526004016118c6906128da565b60405180910390fd5b919050565b6040518060c001604052806060815260200160008152602001606081526020016118fc611aa5565b815260200160608152602001600073ffffffffffffffffffffffffffffffffffffffff1681525090565b82805461193290612c55565b90600052602060002090601f016020900481019282611954576000855561199b565b82601f1061196d57805160ff191683800117855561199b565b8280016001018555821561199b579182015b8281111561199a57825182559160200191906001019061197f565b5b5090506119a89190611ac7565b5090565b8280548282559060005260206000209081019282156119fb579160200282015b828111156119fa5782518290805190602001906119ea929190611926565b50916020019190600101906119cc565b5b509050611a089190611ae4565b5090565b826007601f01602090048101928215611a945791602002820160005b83821115611a6557835183826101000a81548160ff0219169083151502179055509260200192600101602081600001049283019260010302611a28565b8015611a925782816101000a81549060ff0219169055600101602081600001049283019260010302611a65565b505b509050611aa19190611ac7565b5090565b6040518060e00160405280600790602082028036833780820191505090505090565b5b80821115611ae0576000816000905550600101611ac8565b5090565b5b80821115611b045760008181611afb9190611b08565b50600101611ae5565b5090565b508054611b1490612c55565b6000825580601f10611b265750611b45565b601f016020900490600052602060002090810190611b449190611ac7565b5b50565b6000611b5b611b5684612985565b612960565b90508082856020860282011115611b7157600080fd5b60005b85811015611ba15781611b878882611e97565b845260208401935060208301925050600181019050611b74565b5050509392505050565b6000611bbe611bb984612985565b612960565b90508082856020860282011115611bd457600080fd5b60005b85811015611c045781611bea8882611eac565b845260208401935060208301925050600181019050611bd7565b5050509392505050565b6000611c21611c1c846129ab565b612960565b9050808382526020820190508260005b85811015611c615781358501611c478882611ec1565b845260208401935060208301925050600181019050611c31565b5050509392505050565b6000611c7e611c79846129ab565b612960565b9050808382526020820190508260005b85811015611cbe5781518501611ca48882611eeb565b845260208401935060208301925050600181019050611c8e565b5050509392505050565b6000611cdb611cd6846129d7565b612960565b9050808382526020820190508260005b85811015611d1b5781518501611d018882611f15565b845260208401935060208301925050600181019050611ceb565b5050509392505050565b6000611d38611d3384612a03565b612960565b905082815260208101848484011115611d5057600080fd5b611d5b848285612c13565b509392505050565b6000611d76611d7184612a03565b612960565b905082815260208101848484011115611d8e57600080fd5b611d99848285612c22565b509392505050565b600081359050611db081612e22565b92915050565b600081519050611dc581612e22565b92915050565b600082601f830112611ddc57600080fd5b6007611de9848285611b48565b91505092915050565b600082601f830112611e0357600080fd5b6007611e10848285611bab565b91505092915050565b600082601f830112611e2a57600080fd5b8135611e3a848260208601611c0e565b91505092915050565b600082601f830112611e5457600080fd5b8151611e64848260208601611c6b565b91505092915050565b600082601f830112611e7e57600080fd5b8151611e8e848260208601611cc8565b91505092915050565b600081359050611ea681612e39565b92915050565b600081519050611ebb81612e39565b92915050565b600082601f830112611ed257600080fd5b8135611ee2848260208601611d25565b91505092915050565b600082601f830112611efc57600080fd5b8151611f0c848260208601611d63565b91505092915050565b60006101808284031215611f2857600080fd5b611f3260c0612960565b9050600082015167ffffffffffffffff811115611f4e57600080fd5b611f5a84828501611eeb565b6000830152506020611f6e84828501612011565b602083015250604082015167ffffffffffffffff811115611f8e57600080fd5b611f9a84828501611e43565b6040830152506060611fae84828501611df2565b60608301525061014082015167ffffffffffffffff811115611fcf57600080fd5b611fdb84828501611e43565b608083015250610160611ff084828501611db6565b60a08301525092915050565b60008135905061200b81612e50565b92915050565b60008151905061202081612e50565b92915050565b60006020828403121561203857600080fd5b600061204684828501611da1565b91505092915050565b6000806040838503121561206257600080fd5b600061207085828601611da1565b925050602061208185828601611ffc565b9150509250929050565b60006020828403121561209d57600080fd5b600082015167ffffffffffffffff8111156120b757600080fd5b6120c384828501611e6d565b91505092915050565b6000602082840312156120de57600080fd5b600082013567ffffffffffffffff8111156120f857600080fd5b61210484828501611ec1565b91505092915050565b600080600080600080610180878903121561212757600080fd5b600087013567ffffffffffffffff81111561214157600080fd5b61214d89828a01611ec1565b965050602061215e89828a01611ffc565b955050604087013567ffffffffffffffff81111561217b57600080fd5b61218789828a01611e19565b945050606061219889828a01611dcb565b93505061014087013567ffffffffffffffff8111156121b657600080fd5b6121c289828a01611e19565b9250506101606121d489828a01611da1565b9150509295509295509295565b6000602082840312156121f357600080fd5b600061220184828501611ffc565b91505092915050565b60006122168383612448565b60208301905092915050565b600061222e83836124f4565b905092915050565b60006122428383612566565b905092915050565b6000612256838361262c565b905092915050565b61226781612ba7565b82525050565b61227681612ba7565b82525050565b61228d61228882612ba7565b612d01565b82525050565b61229c81612a9d565b6122a68184612b08565b92506122b182612a34565b8060005b838110156122e25781516122c9878261220a565b96506122d483612ad4565b9250506001810190506122b5565b505050505050565b60006122f582612aa8565b6122ff8185612b13565b93508360208202850161231185612a3e565b8060005b8581101561234d578484038952815161232e8582612222565b945061233983612ae1565b925060208a01995050600181019050612315565b50829750879550505050505092915050565b600061236a82612ab3565b6123748185612b24565b93508360208202850161238685612a4e565b8060005b858110156123c1578484038952816123a28582612236565b94506123ad83612aee565b925060208a0199505060018101905061238a565b50829750879550505050505092915050565b60006123de82612abe565b6123e88185612b35565b9350836020820285016123fa85612a63565b8060005b858110156124365784840389528151612417858261224a565b945061242283612afb565b925060208a019950506001810190506123fe565b50829750879550505050505092915050565b61245181612bb9565b82525050565b61246081612bb9565b82525050565b6000815461247381612c55565b61247d8186612b46565b9450600182166000811461249857600181146124a9576124dc565b60ff198316865281860193506124dc565b6124b285612a73565b60005b838110156124d4578154818901526001820191506020810190506124b5565b838801955050505b50505092915050565b6124ee81612bef565b82525050565b60006124ff82612ac9565b6125098185612b51565b9350612519818560208601612c22565b61252281612db2565b840191505092915050565b600061253882612ac9565b6125428185612b62565b9350612552818560208601612c22565b61255b81612db2565b840191505092915050565b6000815461257381612c55565b61257d8186612b51565b9450600182166000811461259857600181146125aa576125dd565b60ff19831686526020860193506125dd565b6125b385612a88565b60005b838110156125d5578154818901526001820191506020810190506125b6565b808801955050505b50505092915050565b60006125f3601483612b62565b91506125fe82612dd0565b602082019050919050565b6000612616601183612b62565b915061262182612df9565b602082019050919050565b600061018083016000830151848203600086015261264a82826124f4565b915050602083015161265f6020860182612760565b506040830151848203604086015261267782826122ea565b915050606083015161268c6060860182612293565b5060808301518482036101408601526126a582826122ea565b91505060a08301516126bb61016086018261225e565b508091505092915050565b60006101808301600083015184820360008601526126e482826124f4565b91505060208301516126f96020860182612760565b506040830151848203604086015261271182826122ea565b91505060608301516127266060860182612293565b50608083015184820361014086015261273f82826122ea565b91505060a083015161275561016086018261225e565b508091505092915050565b61276981612be5565b82525050565b61277881612be5565b82525050565b600061278a828461227c565b60148201915081905092915050565b60006127a58284612466565b915081905092915050565b60006020820190506127c5600083018461226d565b92915050565b60006060820190506127e0600083018661226d565b6127ed602083018561276f565b6127fa6040830184612457565b949350505050565b6000602082019050818103600083015261281c818461235f565b905092915050565b6000602082019050818103600083015261283e81846123d3565b905092915050565b600060208201905061285b6000830184612457565b92915050565b600060208201905061287660008301846124e5565b92915050565b60006060820190508181036000830152612896818661252d565b90506128a5602083018561276f565b6128b2604083018461226d565b949350505050565b600060208201905081810360008301526128d3816125e6565b9050919050565b600060208201905081810360008301526128f381612609565b9050919050565b6000602082019050818103600083015261291481846126c6565b905092915050565b6000602082019050612931600083018461276f565b92915050565b600060408201905061294c600083018561276f565b612959602083018461226d565b9392505050565b600061296a61297b565b90506129768282612c87565b919050565b6000604051905090565b600067ffffffffffffffff8211156129a05761299f612d83565b5b602082029050919050565b600067ffffffffffffffff8211156129c6576129c5612d83565b5b602082029050602081019050919050565b600067ffffffffffffffff8211156129f2576129f1612d83565b5b602082029050602081019050919050565b600067ffffffffffffffff821115612a1e57612a1d612d83565b5b612a2782612db2565b9050602081019050919050565b6000819050919050565b6000819050602082019050919050565b60008190508160005260206000209050919050565b6000819050602082019050919050565b60008190508160005260206000209050919050565b60008190508160005260206000209050919050565b600060079050919050565b600081519050919050565b600081549050919050565b600081519050919050565b600081519050919050565b6000602082019050919050565b6000602082019050919050565b6000600182019050919050565b6000602082019050919050565b600081905092915050565b600082825260208201905092915050565b600082825260208201905092915050565b600082825260208201905092915050565b600081905092915050565b600082825260208201905092915050565b600082825260208201905092915050565b6000612b7e82612be5565b9150612b8983612be5565b925082821015612b9c57612b9b612d25565b5b828203905092915050565b6000612bb282612bc5565b9050919050565b60008115159050919050565b600073ffffffffffffffffffffffffffffffffffffffff82169050919050565b6000819050919050565b6000612bfa82612c01565b9050919050565b6000612c0c82612bc5565b9050919050565b82818337600083830152505050565b60005b83811015612c40578082015181840152602081019050612c25565b83811115612c4f576000848401525b50505050565b60006002820490506001821680612c6d57607f821691505b60208210811415612c8157612c80612d54565b5b50919050565b612c9082612db2565b810181811067ffffffffffffffff82111715612caf57612cae612d83565b5b80604052505050565b6000612cc382612be5565b91507fffffffffffffffffffffffffffffffffffffffffffffffffffffffffffffffff821415612cf657612cf5612d25565b5b600182019050919050565b6000612d0c82612d13565b9050919050565b6000612d1e82612dc3565b9050919050565b7f4e487b7100000000000000000000000000000000000000000000000000000000600052601160045260246000fd5b7f4e487b7100000000000000000000000000000000000000000000000000000000600052602260045260246000fd5b7f4e487b7100000000000000000000000000000000000000000000000000000000600052604160045260246000fd5b6000601f19601f8301169050919050565b60008160601b9050919050565b7f496e73756666696369656e742062616c616e6365000000000000000000000000600082015250565b7f53747564656e74206e6f7420666f756e64000000000000000000000000000000600082015250565b612e2b81612ba7565b8114612e3657600080fd5b50565b612e4281612bb9565b8114612e4d57600080fd5b50565b612e5981612be5565b8114612e6457600080fd5b5056fea2646970667358221220c8cd37b97ef24e8483b7dca1a1170b59399b00bd7ddfac93ee21c479ea22723c64736f6c63430008020033",
  "immutableReferences": {},
  "source": "// SPDX-License-Identifier: MIT\r\n\r\npragma solidity ^0.8.2;\r\n\r\n\r\nimport './Tutor.sol';\r\n\r\n\r\n/**\r\n * @title Student\r\n * @dev Stores the Students and handles certain interactions between students and tutors\r\n */\r\ncontract Student {\r\n\r\n    struct StudentPerson {\r\n        string name;\r\n        uint256 balance;\r\n        string[] classesRequested;\r\n        bool[7] daysAvailable;\r\n        string[] currentTutors;\r\n        address wallet;\r\n    }\r\n\r\n    mapping(address => StudentPerson) public students;\r\n    address[] public studentAddresses;\r\n\r\n    event Transfer(address indexed from, address indexed to, uint256 value);\r\n\r\n    Tutor public tutorContract;\r\n\r\n    constructor(address _tutorContract) {\r\n        tutorContract = Tutor(_tutorContract);\r\n    }\r\n\r\n    function addOrUpdateStudent(string memory _name, uint256 _balance, string[] memory _classesTaught, bool[7] memory _daysAvailable, string[] memory _currentTutors, address _adr) public {\r\n        if (!isStudentAddress(_adr)) {\r\n            studentAddresses.push(_adr);\r\n        }\r\n        students[_adr] = StudentPerson(_name, _balance, _classesTaught, _daysAvailable, _currentTutors, _adr);\r\n    }\r\n\r\n    function sendMoney(address _receiver, uint256 _amount) public returns (bool) {\r\n        require(students[msg.sender].balance >= _amount, \"Insufficient balance\");\r\n\r\n        students[msg.sender].balance -= _amount;\r\n        tutorContract.receiveMoney(_amount, _receiver);\r\n\r\n        emit Transfer(msg.sender, _receiver, _amount);\r\n        return true;\r\n    }\r\n\r\n\r\n    function isStudentName(string memory _name) public view returns (bool) {\r\n        for (uint i = 0; i < studentAddresses.length; i++) {\r\n            if (keccak256(bytes(students[studentAddresses[i]].name)) == keccak256(bytes(_name))) {\r\n                return true;\r\n            }\r\n        }\r\n        return false;\r\n    }\r\n\r\n    function getStudent(string memory _name) public view returns (StudentPerson memory) {\r\n        for (uint i = 0; i < studentAddresses.length; i++) {\r\n             if (keccak256(bytes(students[studentAddresses[i]].name)) == keccak256(bytes(_name))) {\r\n                return students[studentAddresses[i]];\r\n            }\r\n        }\r\n\r\n        revert(\"Student not found\");\r\n    }\r\n\r\n    function returnAllStudents() public view returns (StudentPerson[] memory) {\r\n        \r\n        \r\n        StudentPerson[] memory studentsList = new StudentPerson[](studentAddresses.length);\r\n        for (uint i = 0; i < studentAddresses.length; i++) {\r\n            studentsList[i] = students[studentAddresses[i]];\r\n        }\r\n        return studentsList;\r\n    }\r\n\r\n\r\n    // Function to check if an address is in the tutorAddresses array\r\n    function isStudentAddress(address _address) public view returns (bool) {\r\n        for (uint i = 0; i < studentAddresses.length; i++) {\r\n            if (studentAddresses[i] == _address) {\r\n                return true;\r\n            }\r\n        }\r\n        return false;\r\n    }\r\n\r\n\r\n    function matchWithTutor(string memory _studentName) public returns (bool) {\r\n        StudentPerson storage std = students[getStudentAddressByName(_studentName)];\r\n        Tutor.TutorPerson[] memory possibleTutorsClass = tutorContract.getAvailableTutorsClass(std.classesRequested);\r\n\r\n        for (uint i = 0; i < std.daysAvailable.length; i++) {\r\n            if (std.daysAvailable[i]) {\r\n                Tutor.TutorPerson[] memory possibleTutorsDay = tutorContract.getAvailableTutors(i);\r\n                for (uint j = 0; j < possibleTutorsDay.length; j++) {\r\n                    for (uint k = 0; k < possibleTutorsClass.length; k++) {\r\n                        if (keccak256(abi.encodePacked(possibleTutorsDay[j].wallet)) == keccak256(abi.encodePacked(possibleTutorsClass[k].wallet))) {\r\n                            // There is a match!\r\n                            tutorContract.updateTutorAvailability(possibleTutorsDay[j].wallet, i, false);\r\n                            std.daysAvailable[i] = false;\r\n                            return true;\r\n                        }\r\n                    }\r\n                }\r\n            }\r\n        }\r\n\r\n        return false;\r\n    }\r\n\r\n     function getStudentAddressByName(string memory _name) internal view returns (address) {\r\n        for (uint i = 0; i < studentAddresses.length; i++) {\r\n            if (keccak256(bytes(students[studentAddresses[i]].name)) == keccak256(bytes(_name))) {\r\n                return studentAddresses[i];\r\n            }\r\n        }\r\n        revert(\"Student not found\");\r\n    }\r\n\r\n}\r\n\r\n",
  "sourcePath": "C:\\Users\\berta\\Desktop\\Decentralized-Tutor\\contracts\\Student.sol",
  "compiler": {
    "name": "solc",
    "version": "0.8.2+commit.661d1103.Emscripten.clang"
  },
  "schemaVersion": "3.4.16",
  "updatedAt": "2024-06-18T12:54:10.333Z",
  "devdoc": {
    "details": "Stores the Students and handles certain interactions between students and tutors",
    "kind": "dev",
    "methods": {},
    "title": "Student",
    "version": 1
  },
  "userdoc": {
    "kind": "user",
    "methods": {},
    "version": 1
  }
}