{
  "contractName": "TutorSystem",
  "abi": [
    {
      "inputs": [
        {
          "internalType": "uint256",
          "name": "",
          "type": "uint256"
        }
      ],
      "name": "studentNames",
      "outputs": [
        {
          "internalType": "string",
          "name": "",
          "type": "string"
        }
      ],
      "stateMutability": "view",
      "type": "function"
    },
    {
      "inputs": [
        {
          "internalType": "string",
          "name": "",
          "type": "string"
        }
      ],
      "name": "students",
      "outputs": [
        {
          "internalType": "string",
          "name": "name",
          "type": "string"
        },
        {
          "internalType": "uint256",
          "name": "balance",
          "type": "uint256"
        },
        {
          "internalType": "address",
          "name": "wallet",
          "type": "address"
        }
      ],
      "stateMutability": "view",
      "type": "function"
    },
    {
      "inputs": [
        {
          "internalType": "uint256",
          "name": "",
          "type": "uint256"
        }
      ],
      "name": "tutorNames",
      "outputs": [
        {
          "internalType": "string",
          "name": "",
          "type": "string"
        }
      ],
      "stateMutability": "view",
      "type": "function"
    },
    {
      "inputs": [
        {
          "internalType": "string",
          "name": "",
          "type": "string"
        }
      ],
      "name": "tutors",
      "outputs": [
        {
          "internalType": "string",
          "name": "name",
          "type": "string"
        },
        {
          "internalType": "uint256",
          "name": "balance",
          "type": "uint256"
        },
        {
          "internalType": "uint256",
          "name": "priceForClass",
          "type": "uint256"
        },
        {
          "internalType": "address",
          "name": "wallet",
          "type": "address"
        }
      ],
      "stateMutability": "view",
      "type": "function"
    },
    {
      "inputs": [
        {
          "internalType": "string",
          "name": "_name",
          "type": "string"
        },
        {
          "internalType": "uint256",
          "name": "_balance",
          "type": "uint256"
        },
        {
          "internalType": "string[]",
          "name": "_classesTaught",
          "type": "string[]"
        },
        {
          "internalType": "bool[7]",
          "name": "_daysAvailable",
          "type": "bool[7]"
        },
        {
          "internalType": "string[]",
          "name": "_currentStudents",
          "type": "string[]"
        },
        {
          "internalType": "uint256",
          "name": "_price",
          "type": "uint256"
        },
        {
          "internalType": "address",
          "name": "_adr",
          "type": "address"
        }
      ],
      "name": "createTutor",
      "outputs": [],
      "stateMutability": "nonpayable",
      "type": "function"
    },
    {
      "inputs": [
        {
          "internalType": "string",
          "name": "_name",
          "type": "string"
        },
        {
          "internalType": "uint256",
          "name": "_balance",
          "type": "uint256"
        },
        {
          "internalType": "string[]",
          "name": "_classesTaught",
          "type": "string[]"
        },
        {
          "internalType": "bool[7]",
          "name": "_daysAvailable",
          "type": "bool[7]"
        },
        {
          "internalType": "string[]",
          "name": "_currentTutors",
          "type": "string[]"
        },
        {
          "internalType": "address",
          "name": "_adr",
          "type": "address"
        }
      ],
      "name": "createStudent",
      "outputs": [],
      "stateMutability": "nonpayable",
      "type": "function"
    },
    {
      "inputs": [
        {
          "internalType": "string",
          "name": "_name",
          "type": "string"
        },
        {
          "internalType": "uint256",
          "name": "_balance",
          "type": "uint256"
        }
      ],
      "name": "setTutorBalance",
      "outputs": [],
      "stateMutability": "nonpayable",
      "type": "function"
    },
    {
      "inputs": [
        {
          "internalType": "string",
          "name": "_name",
          "type": "string"
        },
        {
          "internalType": "string[]",
          "name": "_classesTaught",
          "type": "string[]"
        }
      ],
      "name": "setTutorClassesTaught",
      "outputs": [],
      "stateMutability": "nonpayable",
      "type": "function"
    },
    {
      "inputs": [
        {
          "internalType": "string",
          "name": "_name",
          "type": "string"
        },
        {
          "internalType": "bool[7]",
          "name": "_daysAvailable",
          "type": "bool[7]"
        }
      ],
      "name": "setTutorDaysAvailable",
      "outputs": [],
      "stateMutability": "nonpayable",
      "type": "function"
    },
    {
      "inputs": [
        {
          "internalType": "string",
          "name": "_name",
          "type": "string"
        },
        {
          "internalType": "uint256",
          "name": "_price",
          "type": "uint256"
        }
      ],
      "name": "setTutorPrice",
      "outputs": [],
      "stateMutability": "nonpayable",
      "type": "function"
    },
    {
      "inputs": [
        {
          "internalType": "string",
          "name": "_name",
          "type": "string"
        },
        {
          "internalType": "string[]",
          "name": "_currentStudents",
          "type": "string[]"
        }
      ],
      "name": "setTutorCurrentStudents",
      "outputs": [],
      "stateMutability": "nonpayable",
      "type": "function"
    },
    {
      "inputs": [
        {
          "internalType": "string",
          "name": "_name",
          "type": "string"
        },
        {
          "internalType": "uint256",
          "name": "_balance",
          "type": "uint256"
        }
      ],
      "name": "setStudentBalance",
      "outputs": [],
      "stateMutability": "nonpayable",
      "type": "function"
    },
    {
      "inputs": [
        {
          "internalType": "string",
          "name": "_name",
          "type": "string"
        },
        {
          "internalType": "string[]",
          "name": "_classesRequested",
          "type": "string[]"
        }
      ],
      "name": "setStudentClassesRequested",
      "outputs": [],
      "stateMutability": "nonpayable",
      "type": "function"
    },
    {
      "inputs": [
        {
          "internalType": "string",
          "name": "_name",
          "type": "string"
        },
        {
          "internalType": "bool[7]",
          "name": "_daysAvailable",
          "type": "bool[7]"
        }
      ],
      "name": "setStudentDaysAvailable",
      "outputs": [],
      "stateMutability": "nonpayable",
      "type": "function"
    },
    {
      "inputs": [
        {
          "internalType": "string",
          "name": "_name",
          "type": "string"
        },
        {
          "internalType": "string[]",
          "name": "_currentTutors",
          "type": "string[]"
        }
      ],
      "name": "setStudentCurrentTutors",
      "outputs": [],
      "stateMutability": "nonpayable",
      "type": "function"
    },
    {
      "inputs": [
        {
          "internalType": "string",
          "name": "_name",
          "type": "string"
        }
      ],
      "name": "getTutor",
      "outputs": [
        {
          "components": [
            {
              "internalType": "string",
              "name": "name",
              "type": "string"
            },
            {
              "internalType": "uint256",
              "name": "balance",
              "type": "uint256"
            },
            {
              "internalType": "string[]",
              "name": "classesTaught",
              "type": "string[]"
            },
            {
              "internalType": "bool[7]",
              "name": "daysAvailable",
              "type": "bool[7]"
            },
            {
              "internalType": "string[]",
              "name": "currentStudents",
              "type": "string[]"
            },
            {
              "internalType": "uint256",
              "name": "priceForClass",
              "type": "uint256"
            },
            {
              "internalType": "address",
              "name": "wallet",
              "type": "address"
            }
          ],
          "internalType": "struct TutorSystem.Tutor",
          "name": "",
          "type": "tuple"
        }
      ],
      "stateMutability": "view",
      "type": "function"
    },
    {
      "inputs": [
        {
          "internalType": "string",
          "name": "_name",
          "type": "string"
        }
      ],
      "name": "getStudent",
      "outputs": [
        {
          "components": [
            {
              "internalType": "string",
              "name": "name",
              "type": "string"
            },
            {
              "internalType": "uint256",
              "name": "balance",
              "type": "uint256"
            },
            {
              "internalType": "string[]",
              "name": "classesRequested",
              "type": "string[]"
            },
            {
              "internalType": "bool[7]",
              "name": "daysAvailable",
              "type": "bool[7]"
            },
            {
              "internalType": "string[]",
              "name": "currentTutors",
              "type": "string[]"
            },
            {
              "internalType": "address",
              "name": "wallet",
              "type": "address"
            }
          ],
          "internalType": "struct TutorSystem.Student",
          "name": "",
          "type": "tuple"
        }
      ],
      "stateMutability": "view",
      "type": "function"
    },
    {
      "inputs": [
        {
          "internalType": "string",
          "name": "_name",
          "type": "string"
        }
      ],
      "name": "getTutorBalance",
      "outputs": [
        {
          "internalType": "uint256",
          "name": "",
          "type": "uint256"
        }
      ],
      "stateMutability": "view",
      "type": "function"
    },
    {
      "inputs": [
        {
          "internalType": "string",
          "name": "_name",
          "type": "string"
        }
      ],
      "name": "getTutorPrice",
      "outputs": [
        {
          "internalType": "uint256",
          "name": "",
          "type": "uint256"
        }
      ],
      "stateMutability": "view",
      "type": "function"
    },
    {
      "inputs": [
        {
          "internalType": "string",
          "name": "_name",
          "type": "string"
        }
      ],
      "name": "getTutorClassesTaught",
      "outputs": [
        {
          "internalType": "string[]",
          "name": "",
          "type": "string[]"
        }
      ],
      "stateMutability": "view",
      "type": "function"
    },
    {
      "inputs": [
        {
          "internalType": "string",
          "name": "_name",
          "type": "string"
        }
      ],
      "name": "getTutorDaysAvailable",
      "outputs": [
        {
          "internalType": "bool[7]",
          "name": "",
          "type": "bool[7]"
        }
      ],
      "stateMutability": "view",
      "type": "function"
    },
    {
      "inputs": [
        {
          "internalType": "string",
          "name": "_name",
          "type": "string"
        }
      ],
      "name": "getTutorCurrentStudents",
      "outputs": [
        {
          "internalType": "string[]",
          "name": "",
          "type": "string[]"
        }
      ],
      "stateMutability": "view",
      "type": "function"
    },
    {
      "inputs": [
        {
          "internalType": "string",
          "name": "_name",
          "type": "string"
        }
      ],
      "name": "getStudentBalance",
      "outputs": [
        {
          "internalType": "uint256",
          "name": "",
          "type": "uint256"
        }
      ],
      "stateMutability": "view",
      "type": "function"
    },
    {
      "inputs": [
        {
          "internalType": "string",
          "name": "_name",
          "type": "string"
        }
      ],
      "name": "getStudentClassesRequested",
      "outputs": [
        {
          "internalType": "string[]",
          "name": "",
          "type": "string[]"
        }
      ],
      "stateMutability": "view",
      "type": "function"
    },
    {
      "inputs": [
        {
          "internalType": "string",
          "name": "_name",
          "type": "string"
        }
      ],
      "name": "getStudentDaysAvailable",
      "outputs": [
        {
          "internalType": "bool[7]",
          "name": "",
          "type": "bool[7]"
        }
      ],
      "stateMutability": "view",
      "type": "function"
    },
    {
      "inputs": [
        {
          "internalType": "string",
          "name": "_name",
          "type": "string"
        }
      ],
      "name": "getStudentCurrentTutors",
      "outputs": [
        {
          "internalType": "string[]",
          "name": "",
          "type": "string[]"
        }
      ],
      "stateMutability": "view",
      "type": "function"
    },
    {
      "inputs": [],
      "name": "showAllStudents",
      "outputs": [
        {
          "components": [
            {
              "internalType": "string",
              "name": "name",
              "type": "string"
            },
            {
              "internalType": "uint256",
              "name": "balance",
              "type": "uint256"
            },
            {
              "internalType": "string[]",
              "name": "classesRequested",
              "type": "string[]"
            },
            {
              "internalType": "bool[7]",
              "name": "daysAvailable",
              "type": "bool[7]"
            },
            {
              "internalType": "string[]",
              "name": "currentTutors",
              "type": "string[]"
            },
            {
              "internalType": "address",
              "name": "wallet",
              "type": "address"
            }
          ],
          "internalType": "struct TutorSystem.Student[]",
          "name": "",
          "type": "tuple[]"
        }
      ],
      "stateMutability": "view",
      "type": "function"
    },
    {
      "inputs": [
        {
          "internalType": "string",
          "name": "_name",
          "type": "string"
        }
      ],
      "name": "deleteStudent",
      "outputs": [],
      "stateMutability": "nonpayable",
      "type": "function"
    },
    {
      "inputs": [
        {
          "internalType": "string",
          "name": "_name",
          "type": "string"
        }
      ],
      "name": "deleteTutor",
      "outputs": [],
      "stateMutability": "nonpayable",
      "type": "function"
    },
    {
      "inputs": [
        {
          "internalType": "uint256",
          "name": "_dayIndex",
          "type": "uint256"
        }
      ],
      "name": "showTutorsOnDay",
      "outputs": [
        {
          "components": [
            {
              "internalType": "string",
              "name": "name",
              "type": "string"
            },
            {
              "internalType": "uint256",
              "name": "balance",
              "type": "uint256"
            },
            {
              "internalType": "string[]",
              "name": "classesTaught",
              "type": "string[]"
            },
            {
              "internalType": "bool[7]",
              "name": "daysAvailable",
              "type": "bool[7]"
            },
            {
              "internalType": "string[]",
              "name": "currentStudents",
              "type": "string[]"
            },
            {
              "internalType": "uint256",
              "name": "priceForClass",
              "type": "uint256"
            },
            {
              "internalType": "address",
              "name": "wallet",
              "type": "address"
            }
          ],
          "internalType": "struct TutorSystem.Tutor[]",
          "name": "",
          "type": "tuple[]"
        }
      ],
      "stateMutability": "view",
      "type": "function"
    },
    {
      "inputs": [
        {
          "internalType": "string",
          "name": "_class",
          "type": "string"
        }
      ],
      "name": "showTutorsOnClass",
      "outputs": [
        {
          "components": [
            {
              "internalType": "string",
              "name": "name",
              "type": "string"
            },
            {
              "internalType": "uint256",
              "name": "balance",
              "type": "uint256"
            },
            {
              "internalType": "string[]",
              "name": "classesTaught",
              "type": "string[]"
            },
            {
              "internalType": "bool[7]",
              "name": "daysAvailable",
              "type": "bool[7]"
            },
            {
              "internalType": "string[]",
              "name": "currentStudents",
              "type": "string[]"
            },
            {
              "internalType": "uint256",
              "name": "priceForClass",
              "type": "uint256"
            },
            {
              "internalType": "address",
              "name": "wallet",
              "type": "address"
            }
          ],
          "internalType": "struct TutorSystem.Tutor[]",
          "name": "",
          "type": "tuple[]"
        }
      ],
      "stateMutability": "view",
      "type": "function"
    },
    {
      "inputs": [
        {
          "internalType": "string",
          "name": "_studentName",
          "type": "string"
        },
        {
          "internalType": "string",
          "name": "_class",
          "type": "string"
        },
        {
          "internalType": "uint256",
          "name": "_dayIndex",
          "type": "uint256"
        },
        {
          "internalType": "string",
          "name": "_tutorName",
          "type": "string"
        }
      ],
      "name": "matchStudentTutor",
      "outputs": [
        {
          "internalType": "bool",
          "name": "",
          "type": "bool"
        }
      ],
      "stateMutability": "nonpayable",
      "type": "function"
    },
    {
      "inputs": [
        {
          "internalType": "string",
          "name": "_studentName",
          "type": "string"
        },
        {
          "internalType": "uint256",
          "name": "_dayIndex",
          "type": "uint256"
        },
        {
          "internalType": "string",
          "name": "_tutorName",
          "type": "string"
        }
      ],
      "name": "updateMatch",
      "outputs": [],
      "stateMutability": "nonpayable",
      "type": "function"
    },
    {
      "inputs": [
        {
          "internalType": "string",
          "name": "_studentName",
          "type": "string"
        },
        {
          "internalType": "string",
          "name": "_tutorName",
          "type": "string"
        }
      ],
      "name": "studentPayTutor",
      "outputs": [],
      "stateMutability": "nonpayable",
      "type": "function"
    }
  ],
  "bytecode": "0x608060405234801561001057600080fd5b50614932806100206000396000f3fe608060405234801561001057600080fd5b50600436106102065760003560e01c806385ff8df11161011a578063b3eb7fa5116100ad578063d8b82d161161007c578063d8b82d161461067e578063e0614f351461069a578063e3035372146106b6578063ee43f9f0146106e6578063f29c17081461071657610206565b8063b3eb7fa5146105bc578063bdd38669146105ec578063c7ef6bfb1461061c578063d02966121461064e57610206565b806398603521116100e957806398603521146105105780639ac5cd0414610540578063a94b8a9a1461055c578063b153ceb41461058c57610206565b806385ff8df11461048c5780638732db87146104a85780638955895f146104d85780638fe42140146104f457610206565b806339a2bae51161019d5780635ad14a4e1161016c5780635ad14a4e146103ad57806368addd36146103dd5780637e5c51251461041057806381a487e5146104405780638349b96e1461047057610206565b806339a2bae5146103155780633cf0ec4f146103315780634067289d146103615780634e3846221461039157610206565b806321a3b201116101d957806321a3b2011461028f57806328cbded8146102bf57806331592759146102db5780633630a455146102f757610206565b80630589c9561461020b5780630b89370c1461022757806318d820b5146102435780631dffa5d01461025f575b600080fd5b610225600480360381019061022091906136bb565b610732565b005b610241600480360381019061023c9190613aa5565b610767565b005b61025d600480360381019061025891906138e7565b610869565b005b6102796004803603810190610274919061367a565b6109d1565b6040516102869190614280565b60405180910390f35b6102a960048036038101906102a491906137e8565b610a62565b6040516102b69190614301565b60405180910390f35b6102d960048036038101906102d49190613710565b610b9b565b005b6102f560048036038101906102f09190613893565b610bd5565b005b6102ff610bff565b60405161030c91906142bd565b60405180910390f35b61032f600480360381019061032a9190613710565b61106d565b005b61034b6004803603810190610346919061367a565b6110a7565b604051610358919061429b565b60405180910390f35b61037b6004803603810190610376919061367a565b6111a1565b604051610388919061440a565b60405180910390f35b6103ab60048036038101906103a6919061377c565b6114f1565b005b6103c760048036038101906103c2919061367a565b61162b565b6040516103d4919061429b565b60405180910390f35b6103f760048036038101906103f2919061367a565b611725565b604051610407949392919061437c565b60405180910390f35b61042a6004803603810190610425919061367a565b611813565b604051610437919061442c565b60405180910390f35b61045a6004803603810190610455919061367a565b61183e565b604051610467919061442c565b60405180910390f35b61048a60048036038101906104859190613893565b611869565b005b6104a660048036038101906104a191906139bb565b611893565b005b6104c260048036038101906104bd919061367a565b611a0c565b6040516104cf9190614280565b60405180910390f35b6104f260048036038101906104ed919061367a565b611a9d565b005b61050e600480360381019061050991906136bb565b611cf5565b005b61052a6004803603810190610525919061367a565b611d2a565b604051610537919061442c565b60405180910390f35b61055a60048036038101906105559190613710565b611d54565b005b61057660048036038101906105719190613b24565b611d8e565b60405161058391906142df565b60405180910390f35b6105a660048036038101906105a1919061367a565b6121d6565b6040516105b3919061429b565b60405180910390f35b6105d660048036038101906105d19190613b24565b6122d0565b6040516105e3919061431c565b60405180910390f35b61060660048036038101906106019190613b24565b61237c565b604051610613919061431c565b60405180910390f35b6106366004803603810190610631919061367a565b612428565b6040516106459392919061433e565b60405180910390f35b6106686004803603810190610663919061367a565b612510565b60405161067591906143e8565b60405180910390f35b61069860048036038101906106939190613893565b612856565b005b6106b460048036038101906106af9190613710565b612880565b005b6106d060048036038101906106cb919061367a565b6128ba565b6040516106dd919061429b565b60405180910390f35b61070060048036038101906106fb919061367a565b6129b4565b60405161070d91906142df565b60405180910390f35b610730600480360381019061072b919061367a565b612ede565b005b806002836040516107439190614252565b9081526020016040518091039020600301906007610762929190613140565b505050565b600080846040516107789190614252565b908152602001604051809103902060030183600781106107c1577f4e487b7100000000000000000000000000000000000000000000000000000000600052603260045260246000fd5b602091828204019190066101000a81548160ff02191690831515021790555060006002826040516107f29190614252565b9081526020016040518091039020600301836007811061083b577f4e487b7100000000000000000000000000000000000000000000000000000000600052603260045260246000fd5b602091828204019190066101000a81548160ff02191690831515021790555061086483826114f1565b505050565b6040518060c001604052808781526020018681526020018581526020018481526020018381526020018273ffffffffffffffffffffffffffffffffffffffff168152506000876040516108bc9190614252565b908152602001604051809103902060008201518160000190805190602001906108e69291906131d9565b5060208201518160010155604082015181600201908051906020019061090d92919061325f565b50606082015181600301906007610925929190613140565b50608082015181600401908051906020019061094292919061325f565b5060a08201518160050160006101000a81548173ffffffffffffffffffffffffffffffffffffffff021916908373ffffffffffffffffffffffffffffffffffffffff1602179055509050506001869080600181540180825580915050600190039060005260206000200160009091909190915090805190602001906109c89291906131d9565b50505050505050565b6109d96132bf565b6002826040516109e99190614252565b9081526020016040518091039020600301600780602002604051908101604052809291908260078015610a56576020028201916000905b82829054906101000a900460ff16151581526020019060010190602082600001049283019260010382029150808411610a205790505b50505050509050919050565b600080610a6e8361162b565b90506000610a7b846109d1565b9050808560078110610ab6577f4e487b7100000000000000000000000000000000000000000000000000000000600052603260045260246000fd5b602002015115610b8c5760005b8251811015610b8a5786604051602001610add9190614252565b60405160208183030381529060405280519060200120838281518110610b2c577f4e487b7100000000000000000000000000000000000000000000000000000000600052603260045260246000fd5b6020026020010151604051602001610b449190614252565b604051602081830303815290604052805190602001201415610b7757610b6b888787610767565b60019350505050610b93565b8080610b82906147a7565b915050610ac3565b505b6000925050505b949350505050565b80600083604051610bac9190614252565b90815260200160405180910390206002019080519060200190610bd092919061325f565b505050565b80600283604051610be69190614252565b9081526020016040518091039020600501819055505050565b6060600060018054905067ffffffffffffffff811115610c48577f4e487b7100000000000000000000000000000000000000000000000000000000600052604160045260246000fd5b604051908082528060200260200182016040528015610c8157816020015b610c6e6132e1565b815260200190600190039081610c665790505b50905060005b60018054905081101561106557600060018281548110610cd0577f4e487b7100000000000000000000000000000000000000000000000000000000600052603260045260246000fd5b90600052602060002001604051610ce79190614269565b90815260200160405180910390206040518060c0016040529081600082018054610d1090614744565b80601f0160208091040260200160405190810160405280929190818152602001828054610d3c90614744565b8015610d895780601f10610d5e57610100808354040283529160200191610d89565b820191906000526020600020905b815481529060010190602001808311610d6c57829003601f168201915b505050505081526020016001820154815260200160028201805480602002602001604051908101604052809291908181526020016000905b82821015610e6d578382906000526020600020018054610de090614744565b80601f0160208091040260200160405190810160405280929190818152602001828054610e0c90614744565b8015610e595780601f10610e2e57610100808354040283529160200191610e59565b820191906000526020600020905b815481529060010190602001808311610e3c57829003601f168201915b505050505081526020019060010190610dc1565b50505050815260200160038201600780602002604051908101604052809291908260078015610ed6576020028201916000905b82829054906101000a900460ff16151581526020019060010190602082600001049283019260010382029150808411610ea05790505b5050505050815260200160048201805480602002602001604051908101604052809291908181526020016000905b82821015610fb0578382906000526020600020018054610f2390614744565b80601f0160208091040260200160405190810160405280929190818152602001828054610f4f90614744565b8015610f9c5780601f10610f7157610100808354040283529160200191610f9c565b820191906000526020600020905b815481529060010190602001808311610f7f57829003601f168201915b505050505081526020019060010190610f04565b5050505081526020016005820160009054906101000a900473ffffffffffffffffffffffffffffffffffffffff1673ffffffffffffffffffffffffffffffffffffffff1673ffffffffffffffffffffffffffffffffffffffff1681525050828281518110611047577f4e487b7100000000000000000000000000000000000000000000000000000000600052603260045260246000fd5b6020026020010181905250808061105d906147a7565b915050610c87565b508091505090565b8060008360405161107e9190614252565b908152602001604051809103902060040190805190602001906110a292919061325f565b505050565b60606000826040516110b99190614252565b9081526020016040518091039020600201805480602002602001604051908101604052809291908181526020016000905b8282101561119657838290600052602060002001805461110990614744565b80601f016020809104026020016040519081016040528092919081815260200182805461113590614744565b80156111825780601f1061115757610100808354040283529160200191611182565b820191906000526020600020905b81548152906001019060200180831161116557829003601f168201915b5050505050815260200190600101906110ea565b505050509050919050565b6111a9613333565b6002826040516111b99190614252565b90815260200160405180910390206040518060e00160405290816000820180546111e290614744565b80601f016020809104026020016040519081016040528092919081815260200182805461120e90614744565b801561125b5780601f106112305761010080835404028352916020019161125b565b820191906000526020600020905b81548152906001019060200180831161123e57829003601f168201915b505050505081526020016001820154815260200160028201805480602002602001604051908101604052809291908181526020016000905b8282101561133f5783829060005260206000200180546112b290614744565b80601f01602080910402602001604051908101604052809291908181526020018280546112de90614744565b801561132b5780601f106113005761010080835404028352916020019161132b565b820191906000526020600020905b81548152906001019060200180831161130e57829003601f168201915b505050505081526020019060010190611293565b505050508152602001600382016007806020026040519081016040528092919082600780156113a8576020028201916000905b82829054906101000a900460ff161515815260200190600101906020826000010492830192600103820291508084116113725790505b5050505050815260200160048201805480602002602001604051908101604052809291908181526020016000905b828210156114825783829060005260206000200180546113f590614744565b80601f016020809104026020016040519081016040528092919081815260200182805461142190614744565b801561146e5780601f106114435761010080835404028352916020019161146e565b820191906000526020600020905b81548152906001019060200180831161145157829003601f168201915b5050505050815260200190600101906113d6565b505050508152602001600582015481526020016006820160009054906101000a900473ffffffffffffffffffffffffffffffffffffffff1673ffffffffffffffffffffffffffffffffffffffff1673ffffffffffffffffffffffffffffffffffffffff16815250509050919050565b6000826040516115019190614252565b9081526020016040518091039020600101546002826040516115239190614252565b90815260200160405180910390206005015410611575576040517f08c379a000000000000000000000000000000000000000000000000000000000815260040161156c906143c8565b60405180910390fd5b6002816040516115859190614252565b9081526020016040518091039020600501546000836040516115a79190614252565b908152602001604051809103902060010160008282546115c79190614686565b925050819055506002816040516115de9190614252565b9081526020016040518091039020600501546002826040516116009190614252565b908152602001604051809103902060010160008282546116209190614630565b925050819055505050565b606060028260405161163d9190614252565b9081526020016040518091039020600201805480602002602001604051908101604052809291908181526020016000905b8282101561171a57838290600052602060002001805461168d90614744565b80601f01602080910402602001604051908101604052809291908181526020018280546116b990614744565b80156117065780601f106116db57610100808354040283529160200191611706565b820191906000526020600020905b8154815290600101906020018083116116e957829003601f168201915b50505050508152602001906001019061166e565b505050509050919050565b60028180516020810182018051848252602083016020850120818352809550505050505060009150905080600001805461175e90614744565b80601f016020809104026020016040519081016040528092919081815260200182805461178a90614744565b80156117d75780601f106117ac576101008083540402835291602001916117d7565b820191906000526020600020905b8154815290600101906020018083116117ba57829003601f168201915b5050505050908060010154908060050154908060060160009054906101000a900473ffffffffffffffffffffffffffffffffffffffff16905084565b60006002826040516118259190614252565b9081526020016040518091039020600101549050919050565b60006002826040516118509190614252565b9081526020016040518091039020600501549050919050565b8060028360405161187a9190614252565b9081526020016040518091039020600101819055505050565b6040518060e001604052808881526020018781526020018681526020018581526020018481526020018381526020018273ffffffffffffffffffffffffffffffffffffffff168152506002886040516118ec9190614252565b908152602001604051809103902060008201518160000190805190602001906119169291906131d9565b5060208201518160010155604082015181600201908051906020019061193d92919061325f565b50606082015181600301906007611955929190613140565b50608082015181600401908051906020019061197292919061325f565b5060a0820151816005015560c08201518160060160006101000a81548173ffffffffffffffffffffffffffffffffffffffff021916908373ffffffffffffffffffffffffffffffffffffffff160217905550905050600387908060018154018082558091505060019003906000526020600020016000909190919091509080519060200190611a029291906131d9565b5050505050505050565b611a146132bf565b600082604051611a249190614252565b9081526020016040518091039020600301600780602002604051908101604052809291908260078015611a91576020028201916000905b82829054906101000a900460ff16151581526020019060010190602082600001049283019260010382029150808411611a5b5790505b50505050509050919050565b600081604051611aad9190614252565b908152602001604051809103902060008082016000611acc919061338c565b6001820160009055600282016000611ae491906133cc565b600382016000611af491906133ed565b600482016000611b0491906133cc565b6005820160006101000a81549073ffffffffffffffffffffffffffffffffffffffff0219169055505060005b600180549050811015611cf15781604051602001611b4e9190614252565b6040516020818303038152906040528051906020012060018281548110611b9e577f4e487b7100000000000000000000000000000000000000000000000000000000600052603260045260246000fd5b90600052602060002001604051602001611bb89190614269565b604051602081830303815290604052805190602001201415611cde576001808080549050611be69190614686565b81548110611c1d577f4e487b7100000000000000000000000000000000000000000000000000000000600052603260045260246000fd5b9060005260206000200160018281548110611c61577f4e487b7100000000000000000000000000000000000000000000000000000000600052603260045260246000fd5b90600052602060002001908054611c7790614744565b611c829291906133f4565b506001805480611cbb577f4e487b7100000000000000000000000000000000000000000000000000000000600052603160045260246000fd5b600190038181906000526020600020016000611cd7919061338c565b9055611cf1565b8080611ce9906147a7565b915050611b30565b5050565b80600083604051611d069190614252565b9081526020016040518091039020600301906007611d25929190613140565b505050565b60008082604051611d3b9190614252565b9081526020016040518091039020600101549050919050565b80600283604051611d659190614252565b90815260200160405180910390206004019080519060200190611d8992919061325f565b505050565b60606000805b600380549050811015611ee1576000611e7860038381548110611de0577f4e487b7100000000000000000000000000000000000000000000000000000000600052603260045260246000fd5b906000526020600020018054611df590614744565b80601f0160208091040260200160405190810160405280929190818152602001828054611e2190614744565b8015611e6e5780601f10611e4357610100808354040283529160200191611e6e565b820191906000526020600020905b815481529060010190602001808311611e5157829003601f168201915b50505050506109d1565b9050808560078110611eb3577f4e487b7100000000000000000000000000000000000000000000000000000000600052603260045260246000fd5b602002015115611ecd57600183611eca9190614630565b92505b508080611ed9906147a7565b915050611d94565b5060008167ffffffffffffffff811115611f24577f4e487b7100000000000000000000000000000000000000000000000000000000600052604160045260246000fd5b604051908082528060200260200182016040528015611f5d57816020015b611f4a613333565b815260200190600190039081611f425790505b5090506000805b6003805490508110156121ca57600061204860038381548110611fb0577f4e487b7100000000000000000000000000000000000000000000000000000000600052603260045260246000fd5b906000526020600020018054611fc590614744565b80601f0160208091040260200160405190810160405280929190818152602001828054611ff190614744565b801561203e5780601f106120135761010080835404028352916020019161203e565b820191906000526020600020905b81548152906001019060200180831161202157829003601f168201915b50505050506109d1565b9050808760078110612083577f4e487b7100000000000000000000000000000000000000000000000000000000600052603260045260246000fd5b6020020151156121b657612162600383815481106120ca577f4e487b7100000000000000000000000000000000000000000000000000000000600052603260045260246000fd5b9060005260206000200180546120df90614744565b80601f016020809104026020016040519081016040528092919081815260200182805461210b90614744565b80156121585780601f1061212d57610100808354040283529160200191612158565b820191906000526020600020905b81548152906001019060200180831161213b57829003601f168201915b50505050506111a1565b84848151811061219b577f4e487b7100000000000000000000000000000000000000000000000000000000600052603260045260246000fd5b60200260200101819052506001836121b39190614630565b92505b5080806121c2906147a7565b915050611f64565b50819350505050919050565b60606002826040516121e89190614252565b9081526020016040518091039020600401805480602002602001604051908101604052809291908181526020016000905b828210156122c557838290600052602060002001805461223890614744565b80601f016020809104026020016040519081016040528092919081815260200182805461226490614744565b80156122b15780601f10612286576101008083540402835291602001916122b1565b820191906000526020600020905b81548152906001019060200180831161229457829003601f168201915b505050505081526020019060010190612219565b505050509050919050565b600181815481106122e057600080fd5b9060005260206000200160009150905080546122fb90614744565b80601f016020809104026020016040519081016040528092919081815260200182805461232790614744565b80156123745780601f1061234957610100808354040283529160200191612374565b820191906000526020600020905b81548152906001019060200180831161235757829003601f168201915b505050505081565b6003818154811061238c57600080fd5b9060005260206000200160009150905080546123a790614744565b80601f01602080910402602001604051908101604052809291908181526020018280546123d390614744565b80156124205780601f106123f557610100808354040283529160200191612420565b820191906000526020600020905b81548152906001019060200180831161240357829003601f168201915b505050505081565b60008180516020810182018051848252602083016020850120818352809550505050505060009150905080600001805461246190614744565b80601f016020809104026020016040519081016040528092919081815260200182805461248d90614744565b80156124da5780601f106124af576101008083540402835291602001916124da565b820191906000526020600020905b8154815290600101906020018083116124bd57829003601f168201915b5050505050908060010154908060050160009054906101000a900473ffffffffffffffffffffffffffffffffffffffff16905083565b6125186132e1565b6000826040516125289190614252565b90815260200160405180910390206040518060c001604052908160008201805461255190614744565b80601f016020809104026020016040519081016040528092919081815260200182805461257d90614744565b80156125ca5780601f1061259f576101008083540402835291602001916125ca565b820191906000526020600020905b8154815290600101906020018083116125ad57829003601f168201915b505050505081526020016001820154815260200160028201805480602002602001604051908101604052809291908181526020016000905b828210156126ae57838290600052602060002001805461262190614744565b80601f016020809104026020016040519081016040528092919081815260200182805461264d90614744565b801561269a5780601f1061266f5761010080835404028352916020019161269a565b820191906000526020600020905b81548152906001019060200180831161267d57829003601f168201915b505050505081526020019060010190612602565b50505050815260200160038201600780602002604051908101604052809291908260078015612717576020028201916000905b82829054906101000a900460ff161515815260200190600101906020826000010492830192600103820291508084116126e15790505b5050505050815260200160048201805480602002602001604051908101604052809291908181526020016000905b828210156127f157838290600052602060002001805461276490614744565b80601f016020809104026020016040519081016040528092919081815260200182805461279090614744565b80156127dd5780601f106127b2576101008083540402835291602001916127dd565b820191906000526020600020905b8154815290600101906020018083116127c057829003601f168201915b505050505081526020019060010190612745565b5050505081526020016005820160009054906101000a900473ffffffffffffffffffffffffffffffffffffffff1673ffffffffffffffffffffffffffffffffffffffff1673ffffffffffffffffffffffffffffffffffffffff16815250509050919050565b806000836040516128679190614252565b9081526020016040518091039020600101819055505050565b806002836040516128919190614252565b908152602001604051809103902060020190805190602001906128b592919061325f565b505050565b60606000826040516128cc9190614252565b9081526020016040518091039020600401805480602002602001604051908101604052809291908181526020016000905b828210156129a957838290600052602060002001805461291c90614744565b80601f016020809104026020016040519081016040528092919081815260200182805461294890614744565b80156129955780601f1061296a57610100808354040283529160200191612995565b820191906000526020600020905b81548152906001019060200180831161297857829003601f168201915b5050505050815260200190600101906128fd565b505050509050919050565b60606000805b600380549050811015612b78576000612a9e60038381548110612a06577f4e487b7100000000000000000000000000000000000000000000000000000000600052603260045260246000fd5b906000526020600020018054612a1b90614744565b80601f0160208091040260200160405190810160405280929190818152602001828054612a4790614744565b8015612a945780601f10612a6957610100808354040283529160200191612a94565b820191906000526020600020905b815481529060010190602001808311612a7757829003601f168201915b505050505061162b565b905060005b8151811015612b635785604051602001612abd9190614252565b60405160208183030381529060405280519060200120828281518110612b0c577f4e487b7100000000000000000000000000000000000000000000000000000000600052603260045260246000fd5b6020026020010151604051602001612b249190614252565b604051602081830303815290604052805190602001201415612b5057600184612b4d9190614630565b93505b8080612b5b906147a7565b915050612aa3565b50508080612b70906147a7565b9150506129ba565b5060008167ffffffffffffffff811115612bbb577f4e487b7100000000000000000000000000000000000000000000000000000000600052604160045260246000fd5b604051908082528060200260200182016040528015612bf457816020015b612be1613333565b815260200190600190039081612bd95790505b5090506000805b600380549050811015612ed2576000612cdf60038381548110612c47577f4e487b7100000000000000000000000000000000000000000000000000000000600052603260045260246000fd5b906000526020600020018054612c5c90614744565b80601f0160208091040260200160405190810160405280929190818152602001828054612c8890614744565b8015612cd55780601f10612caa57610100808354040283529160200191612cd5565b820191906000526020600020905b815481529060010190602001808311612cb857829003601f168201915b505050505061162b565b905060005b8151811015612ebd5787604051602001612cfe9190614252565b60405160208183030381529060405280519060200120828281518110612d4d577f4e487b7100000000000000000000000000000000000000000000000000000000600052603260045260246000fd5b6020026020010151604051602001612d659190614252565b604051602081830303815290604052805190602001201415612eaa57612e5660038481548110612dbe577f4e487b7100000000000000000000000000000000000000000000000000000000600052603260045260246000fd5b906000526020600020018054612dd390614744565b80601f0160208091040260200160405190810160405280929190818152602001828054612dff90614744565b8015612e4c5780601f10612e2157610100808354040283529160200191612e4c565b820191906000526020600020905b815481529060010190602001808311612e2f57829003601f168201915b50505050506111a1565b858581518110612e8f577f4e487b7100000000000000000000000000000000000000000000000000000000600052603260045260246000fd5b6020026020010181905250600184612ea79190614630565b93505b8080612eb5906147a7565b915050612ce4565b50508080612eca906147a7565b915050612bfb565b50819350505050919050565b600281604051612eee9190614252565b908152602001604051809103902060008082016000612f0d919061338c565b6001820160009055600282016000612f2591906133cc565b600382016000612f3591906133ed565b600482016000612f4591906133cc565b60058201600090556006820160006101000a81549073ffffffffffffffffffffffffffffffffffffffff0219169055505060005b60038054905081101561313c5781604051602001612f979190614252565b6040516020818303038152906040528051906020012060038281548110612fe7577f4e487b7100000000000000000000000000000000000000000000000000000000600052603260045260246000fd5b906000526020600020016040516020016130019190614269565b60405160208183030381529060405280519060200120141561312957600360016003805490506130319190614686565b81548110613068577f4e487b7100000000000000000000000000000000000000000000000000000000600052603260045260246000fd5b90600052602060002001600382815481106130ac577f4e487b7100000000000000000000000000000000000000000000000000000000600052603260045260246000fd5b906000526020600020019080546130c290614744565b6130cd9291906133f4565b506003805480613106577f4e487b7100000000000000000000000000000000000000000000000000000000600052603160045260246000fd5b600190038181906000526020600020016000613122919061338c565b905561313c565b8080613134906147a7565b915050612f79565b5050565b826007601f016020900481019282156131c85791602002820160005b8382111561319957835183826101000a81548160ff021916908315150217905550926020019260010160208160000104928301926001030261315c565b80156131c65782816101000a81549060ff0219169055600101602081600001049283019260010302613199565b505b5090506131d59190613481565b5090565b8280546131e590614744565b90600052602060002090601f016020900481019282613207576000855561324e565b82601f1061322057805160ff191683800117855561324e565b8280016001018555821561324e579182015b8281111561324d578251825591602001919060010190613232565b5b50905061325b9190613481565b5090565b8280548282559060005260206000209081019282156132ae579160200282015b828111156132ad57825182908051906020019061329d9291906131d9565b509160200191906001019061327f565b5b5090506132bb919061349e565b5090565b6040518060e00160405280600790602082028036833780820191505090505090565b6040518060c001604052806060815260200160008152602001606081526020016133096132bf565b815260200160608152602001600073ffffffffffffffffffffffffffffffffffffffff1681525090565b6040518060e0016040528060608152602001600081526020016060815260200161335b6132bf565b81526020016060815260200160008152602001600073ffffffffffffffffffffffffffffffffffffffff1681525090565b50805461339890614744565b6000825580601f106133aa57506133c9565b601f0160209004906000526020600020908101906133c89190613481565b5b50565b50805460008255906000526020600020908101906133ea919061349e565b50565b5060009055565b82805461340090614744565b90600052602060002090601f0160209004810192826134225760008555613470565b82601f106134335780548555613470565b8280016001018555821561347057600052602060002091601f016020900482015b8281111561346f578254825591600101919060010190613454565b5b50905061347d9190613481565b5090565b5b8082111561349a576000816000905550600101613482565b5090565b5b808211156134be57600081816134b5919061338c565b5060010161349f565b5090565b60006134d56134d08461446c565b614447565b905080828560208602820111156134eb57600080fd5b60005b8581101561351b57816135018882613626565b8452602084019350602083019250506001810190506134ee565b5050509392505050565b600061353861353384614492565b614447565b9050808382526020820190508260005b85811015613578578135850161355e888261363b565b845260208401935060208301925050600181019050613548565b5050509392505050565b6000613595613590846144be565b614447565b9050828152602081018484840111156135ad57600080fd5b6135b8848285614702565b509392505050565b6000813590506135cf816148b7565b92915050565b600082601f8301126135e657600080fd5b60076135f38482856134c2565b91505092915050565b600082601f83011261360d57600080fd5b813561361d848260208601613525565b91505092915050565b600081359050613635816148ce565b92915050565b600082601f83011261364c57600080fd5b813561365c848260208601613582565b91505092915050565b600081359050613674816148e5565b92915050565b60006020828403121561368c57600080fd5b600082013567ffffffffffffffff8111156136a657600080fd5b6136b28482850161363b565b91505092915050565b60008061010083850312156136cf57600080fd5b600083013567ffffffffffffffff8111156136e957600080fd5b6136f58582860161363b565b9250506020613706858286016135d5565b9150509250929050565b6000806040838503121561372357600080fd5b600083013567ffffffffffffffff81111561373d57600080fd5b6137498582860161363b565b925050602083013567ffffffffffffffff81111561376657600080fd5b613772858286016135fc565b9150509250929050565b6000806040838503121561378f57600080fd5b600083013567ffffffffffffffff8111156137a957600080fd5b6137b58582860161363b565b925050602083013567ffffffffffffffff8111156137d257600080fd5b6137de8582860161363b565b9150509250929050565b600080600080608085870312156137fe57600080fd5b600085013567ffffffffffffffff81111561381857600080fd5b6138248782880161363b565b945050602085013567ffffffffffffffff81111561384157600080fd5b61384d8782880161363b565b935050604061385e87828801613665565b925050606085013567ffffffffffffffff81111561387b57600080fd5b6138878782880161363b565b91505092959194509250565b600080604083850312156138a657600080fd5b600083013567ffffffffffffffff8111156138c057600080fd5b6138cc8582860161363b565b92505060206138dd85828601613665565b9150509250929050565b600080600080600080610180878903121561390157600080fd5b600087013567ffffffffffffffff81111561391b57600080fd5b61392789828a0161363b565b965050602061393889828a01613665565b955050604087013567ffffffffffffffff81111561395557600080fd5b61396189828a016135fc565b945050606061397289828a016135d5565b93505061014087013567ffffffffffffffff81111561399057600080fd5b61399c89828a016135fc565b9250506101606139ae89828a016135c0565b9150509295509295509295565b60008060008060008060006101a0888a0312156139d757600080fd5b600088013567ffffffffffffffff8111156139f157600080fd5b6139fd8a828b0161363b565b9750506020613a0e8a828b01613665565b965050604088013567ffffffffffffffff811115613a2b57600080fd5b613a378a828b016135fc565b9550506060613a488a828b016135d5565b94505061014088013567ffffffffffffffff811115613a6657600080fd5b613a728a828b016135fc565b935050610160613a848a828b01613665565b925050610180613a968a828b016135c0565b91505092959891949750929550565b600080600060608486031215613aba57600080fd5b600084013567ffffffffffffffff811115613ad457600080fd5b613ae08682870161363b565b9350506020613af186828701613665565b925050604084013567ffffffffffffffff811115613b0e57600080fd5b613b1a8682870161363b565b9150509250925092565b600060208284031215613b3657600080fd5b6000613b4484828501613665565b91505092915050565b6000613b598383613e41565b60208301905092915050565b6000613b718383613e5f565b905092915050565b6000613b858383613fa4565b905092915050565b6000613b9983836140d8565b905092915050565b613baa816146ba565b82525050565b613bb9816146ba565b82525050565b613bc88161453e565b613bd281846145a9565b9250613bdd826144ef565b8060005b83811015613c0e578151613bf58782613b4d565b9650613c0083614575565b925050600181019050613be1565b505050505050565b613c1f8161453e565b613c2981846145b4565b9250613c34826144ef565b8060005b83811015613c65578151613c4c8782613b4d565b9650613c5783614575565b925050600181019050613c38565b505050505050565b6000613c7882614549565b613c8281856145bf565b935083602082028501613c94856144f9565b8060005b85811015613cd05784840389528151613cb18582613b65565b9450613cbc83614582565b925060208a01995050600181019050613c98565b50829750879550505050505092915050565b6000613ced82614549565b613cf781856145d0565b935083602082028501613d09856144f9565b8060005b85811015613d455784840389528151613d268582613b65565b9450613d3183614582565b925060208a01995050600181019050613d0d565b50829750879550505050505092915050565b6000613d6282614554565b613d6c81856145e1565b935083602082028501613d7e85614509565b8060005b85811015613dba5784840389528151613d9b8582613b79565b9450613da68361458f565b925060208a01995050600181019050613d82565b50829750879550505050505092915050565b6000613dd78261455f565b613de181856145f2565b935083602082028501613df385614519565b8060005b85811015613e2f5784840389528151613e108582613b8d565b9450613e1b8361459c565b925060208a01995050600181019050613df7565b50829750879550505050505092915050565b613e4a816146cc565b82525050565b613e59816146cc565b82525050565b6000613e6a8261456a565b613e748185614603565b9350613e84818560208601614711565b613e8d8161487d565b840191505092915050565b6000613ea38261456a565b613ead8185614614565b9350613ebd818560208601614711565b613ec68161487d565b840191505092915050565b6000613edc8261456a565b613ee68185614625565b9350613ef6818560208601614711565b80840191505092915050565b60008154613f0f81614744565b613f198186614625565b94506001821660008114613f345760018114613f4557613f78565b60ff19831686528186019350613f78565b613f4e85614529565b60005b83811015613f7057815481890152600182019150602081019050613f51565b838801955050505b50505092915050565b6000613f8e602083614614565b9150613f998261488e565b602082019050919050565b6000610180830160008301518482036000860152613fc28282613e5f565b9150506020830151613fd76020860182614234565b5060408301518482036040860152613fef8282613c6d565b91505060608301516140046060860182613bbf565b50608083015184820361014086015261401d8282613c6d565b91505060a0830151614033610160860182613ba1565b508091505092915050565b600061018083016000830151848203600086015261405c8282613e5f565b91505060208301516140716020860182614234565b50604083015184820360408601526140898282613c6d565b915050606083015161409e6060860182613bbf565b5060808301518482036101408601526140b78282613c6d565b91505060a08301516140cd610160860182613ba1565b508091505092915050565b60006101a08301600083015184820360008601526140f68282613e5f565b915050602083015161410b6020860182614234565b50604083015184820360408601526141238282613c6d565b91505060608301516141386060860182613bbf565b5060808301518482036101408601526141518282613c6d565b91505060a0830151614167610160860182614234565b5060c083015161417b610180860182613ba1565b508091505092915050565b60006101a08301600083015184820360008601526141a48282613e5f565b91505060208301516141b96020860182614234565b50604083015184820360408601526141d18282613c6d565b91505060608301516141e66060860182613bbf565b5060808301518482036101408601526141ff8282613c6d565b91505060a0830151614215610160860182614234565b5060c0830151614229610180860182613ba1565b508091505092915050565b61423d816146f8565b82525050565b61424c816146f8565b82525050565b600061425e8284613ed1565b915081905092915050565b60006142758284613f02565b915081905092915050565b600060e0820190506142956000830184613c16565b92915050565b600060208201905081810360008301526142b58184613ce2565b905092915050565b600060208201905081810360008301526142d78184613d57565b905092915050565b600060208201905081810360008301526142f98184613dcc565b905092915050565b60006020820190506143166000830184613e50565b92915050565b600060208201905081810360008301526143368184613e98565b905092915050565b600060608201905081810360008301526143588186613e98565b90506143676020830185614243565b6143746040830184613bb0565b949350505050565b600060808201905081810360008301526143968187613e98565b90506143a56020830186614243565b6143b26040830185614243565b6143bf6060830184613bb0565b95945050505050565b600060208201905081810360008301526143e181613f81565b9050919050565b60006020820190508181036000830152614402818461403e565b905092915050565b600060208201905081810360008301526144248184614186565b905092915050565b60006020820190506144416000830184614243565b92915050565b6000614451614462565b905061445d8282614776565b919050565b6000604051905090565b600067ffffffffffffffff8211156144875761448661484e565b5b602082029050919050565b600067ffffffffffffffff8211156144ad576144ac61484e565b5b602082029050602081019050919050565b600067ffffffffffffffff8211156144d9576144d861484e565b5b6144e28261487d565b9050602081019050919050565b6000819050919050565b6000819050602082019050919050565b6000819050602082019050919050565b6000819050602082019050919050565b60008190508160005260206000209050919050565b600060079050919050565b600081519050919050565b600081519050919050565b600081519050919050565b600081519050919050565b6000602082019050919050565b6000602082019050919050565b6000602082019050919050565b6000602082019050919050565b600081905092915050565b600081905092915050565b600082825260208201905092915050565b600082825260208201905092915050565b600082825260208201905092915050565b600082825260208201905092915050565b600082825260208201905092915050565b600082825260208201905092915050565b600081905092915050565b600061463b826146f8565b9150614646836146f8565b9250827fffffffffffffffffffffffffffffffffffffffffffffffffffffffffffffffff0382111561467b5761467a6147f0565b5b828201905092915050565b6000614691826146f8565b915061469c836146f8565b9250828210156146af576146ae6147f0565b5b828203905092915050565b60006146c5826146d8565b9050919050565b60008115159050919050565b600073ffffffffffffffffffffffffffffffffffffffff82169050919050565b6000819050919050565b82818337600083830152505050565b60005b8381101561472f578082015181840152602081019050614714565b8381111561473e576000848401525b50505050565b6000600282049050600182168061475c57607f821691505b602082108114156147705761476f61481f565b5b50919050565b61477f8261487d565b810181811067ffffffffffffffff8211171561479e5761479d61484e565b5b80604052505050565b60006147b2826146f8565b91507fffffffffffffffffffffffffffffffffffffffffffffffffffffffffffffffff8214156147e5576147e46147f0565b5b600182019050919050565b7f4e487b7100000000000000000000000000000000000000000000000000000000600052601160045260246000fd5b7f4e487b7100000000000000000000000000000000000000000000000000000000600052602260045260246000fd5b7f4e487b7100000000000000000000000000000000000000000000000000000000600052604160045260246000fd5b6000601f19601f8301169050919050565b7f496e73756666696369656e742062616c616e636520666f722073747564656e74600082015250565b6148c0816146ba565b81146148cb57600080fd5b50565b6148d7816146cc565b81146148e257600080fd5b50565b6148ee816146f8565b81146148f957600080fd5b5056fea2646970667358221220533b17c7409e3fb973454003fa3285065dadca4bc4ad1bcf11ba715b802ef13b64736f6c63430008020033",
  "immutableReferences": {},
  "source": "// SPDX-License-Identifier: MIT\r\n\r\npragma solidity ^0.8.2;\r\n\r\n\r\n/**\r\n * @title TutorSystem\r\n * @dev This smart contract stores student and tutors and has functionality for the Student-Tutor System\r\n */\r\ncontract TutorSystem {\r\n  \r\n    struct Tutor {\r\n        string name;\r\n        uint256 balance;\r\n        string[] classesTaught;\r\n        bool[7] daysAvailable; // True if available that day False if not\r\n        string[] currentStudents;\r\n        uint256 priceForClass;\r\n        address wallet;\r\n    }\r\n\r\n    struct Student {\r\n        string name;\r\n        uint256 balance;\r\n        string[] classesRequested;\r\n        bool[7] daysAvailable;\r\n        string[] currentTutors;\r\n        address wallet;\r\n    }\r\n\r\n    // Map name to students\r\n    mapping(string => Student) public students;\r\n    string[] public studentNames;\r\n    \r\n    mapping(string => Tutor) public tutors;\r\n    string[] public tutorNames;\r\n\r\n    // Constructors for Tutor and Student\r\n    function createTutor(string memory _name, uint256 _balance, string[] memory _classesTaught, bool[7] memory _daysAvailable, string[] memory _currentStudents, uint256 _price, address _adr) public {\r\n        tutors[_name] = Tutor(_name, _balance, _classesTaught, _daysAvailable, _currentStudents, _price, _adr);\r\n        tutorNames.push(_name);\r\n    }\r\n\r\n    function createStudent(string memory _name, uint256 _balance, string[] memory _classesTaught, bool[7] memory _daysAvailable, string[] memory _currentTutors, address _adr) public {\r\n        students[_name] = Student(_name, _balance, _classesTaught, _daysAvailable, _currentTutors, _adr);\r\n        studentNames.push(_name);\r\n    }\r\n\r\n\r\n    // Setters (The search is always going to be initiated with address)\r\n    function setTutorBalance(string memory _name, uint256 _balance) public {\r\n        tutors[_name].balance = _balance;\r\n    }\r\n\r\n    function setTutorClassesTaught(string memory _name, string[] memory _classesTaught) public {\r\n        tutors[_name].classesTaught = _classesTaught;\r\n    }\r\n\r\n    function setTutorDaysAvailable(string memory _name, bool[7] memory _daysAvailable) public {\r\n        tutors[_name].daysAvailable = _daysAvailable;\r\n    }\r\n\r\n    function setTutorPrice(string memory _name, uint256 _price) public {\r\n        tutors[_name].priceForClass = _price;\r\n    }\r\n\r\n    function setTutorCurrentStudents(string memory _name, string[] memory _currentStudents) public {\r\n        tutors[_name].currentStudents = _currentStudents;\r\n    }\r\n\r\n    function setStudentBalance(string memory _name, uint256 _balance) public {\r\n        students[_name].balance = _balance;\r\n    }\r\n\r\n    function setStudentClassesRequested(string memory _name, string[] memory _classesRequested) public {\r\n        students[_name].classesRequested = _classesRequested;\r\n    }\r\n\r\n    function setStudentDaysAvailable(string memory _name, bool[7] memory _daysAvailable) public {\r\n        students[_name].daysAvailable = _daysAvailable;\r\n    }\r\n\r\n    function setStudentCurrentTutors(string memory _name, string[] memory _currentTutors) public {\r\n        students[_name].currentTutors = _currentTutors;\r\n    }\r\n\r\n\r\n    // Getters\r\n    function getTutor(string memory _name) public view returns(Tutor memory) {\r\n        return tutors[_name];\r\n    }\r\n\r\n    function getStudent(string memory _name) public view returns(Student memory) {\r\n        return students[_name];\r\n    }\r\n\r\n    function getTutorBalance(string memory _name) public view returns (uint256) {\r\n        return tutors[_name].balance;\r\n    }\r\n\r\n    function getTutorPrice(string memory _name) public view returns (uint256) {\r\n        return tutors[_name].priceForClass;\r\n    }\r\n\r\n    function getTutorClassesTaught(string memory _name) public view returns (string[] memory) {\r\n        return tutors[_name].classesTaught;\r\n    }\r\n\r\n    function getTutorDaysAvailable(string memory _name) public view returns (bool[7] memory) {\r\n        return tutors[_name].daysAvailable;\r\n    }\r\n\r\n    function getTutorCurrentStudents(string memory _name) public view returns (string[] memory) {\r\n        return tutors[_name].currentStudents;\r\n    }\r\n\r\n    function getStudentBalance(string memory _name) public view returns (uint256) {\r\n        return students[_name].balance;\r\n    }\r\n\r\n    function getStudentClassesRequested(string memory _name) public view returns (string[] memory) {\r\n        return students[_name].classesRequested;\r\n    }\r\n\r\n    function getStudentDaysAvailable(string memory _name) public view returns (bool[7] memory) {\r\n        return students[_name].daysAvailable;\r\n    }\r\n\r\n    function getStudentCurrentTutors(string memory _name) public view returns (string[] memory) {\r\n        return students[_name].currentTutors;\r\n    }\r\n\r\n    // Addtional System Functions\r\n    \r\n    // Return all Student names and their addresses\r\n    function showAllStudents() public view returns (Student[] memory) {\r\n        Student[] memory AllStudents = new Student[](studentNames.length);\r\n        for (uint i = 0; i < studentNames.length; i++) {\r\n            AllStudents[i] = students[studentNames[i]];\r\n        }\r\n        return AllStudents;\r\n    }  \r\n\r\n    function deleteStudent(string memory _name) public {\r\n        delete students[_name];\r\n        for (uint i = 0; i < studentNames.length; i++) {\r\n            if (keccak256(abi.encodePacked(studentNames[i])) == keccak256(abi.encodePacked(_name))) {\r\n                studentNames[i] = studentNames[studentNames.length - 1];\r\n                studentNames.pop();\r\n                break;\r\n            }\r\n        }\r\n    }\r\n\r\n    function deleteTutor(string memory _name) public {\r\n        delete tutors[_name];\r\n        for (uint i = 0; i < tutorNames.length; i++) {\r\n            if (keccak256(abi.encodePacked(tutorNames[i])) == keccak256(abi.encodePacked(_name))) {\r\n                tutorNames[i] = tutorNames[tutorNames.length - 1];\r\n                tutorNames.pop();\r\n                break;\r\n            }\r\n        }\r\n\r\n    }\r\n\r\n    function showTutorsOnDay(uint256 _dayIndex) public view returns (Tutor[] memory) {\r\n        \r\n        uint256 tutorNum = 0;\r\n\r\n        for (uint i = 0; i < tutorNames.length; i++) {\r\n            bool[7] memory theDays = getTutorDaysAvailable(tutorNames[i]);\r\n            if (theDays[_dayIndex]) {\r\n                tutorNum += 1;\r\n            }\r\n        }\r\n\r\n        Tutor[] memory availableTutors = new Tutor[](tutorNum);\r\n        uint256 count = 0;\r\n\r\n        for (uint i = 0; i < tutorNames.length; i++) {\r\n            bool[7] memory theDays = getTutorDaysAvailable(tutorNames[i]);\r\n            if (theDays[_dayIndex]) {\r\n                availableTutors[count] = getTutor(tutorNames[i]); \r\n                count += 1;\r\n            }\r\n        }\r\n\r\n        return availableTutors;\r\n    }\r\n\r\n\r\n    function showTutorsOnClass(string memory _class) public view returns (Tutor[] memory) {\r\n        \r\n        uint256 tutorNum = 0;\r\n\r\n         for (uint i = 0; i < tutorNames.length; i++) {\r\n            string[] memory classes = getTutorClassesTaught(tutorNames[i]);\r\n            for (uint j = 0; j < classes.length; j++) {\r\n                if (keccak256(abi.encodePacked(classes[j])) == keccak256(abi.encodePacked(_class))) {\r\n                    tutorNum += 1;\r\n                }\r\n            }   \r\n        }\r\n\r\n        Tutor[] memory availableTutors = new Tutor[](tutorNum);\r\n        uint256 count = 0;\r\n\r\n        for (uint i = 0; i < tutorNames.length; i++) {\r\n            string[] memory classes = getTutorClassesTaught(tutorNames[i]);\r\n            for (uint j = 0; j < classes.length; j++) {\r\n                if (keccak256(abi.encodePacked(classes[j])) == keccak256(abi.encodePacked(_class))) {\r\n                    availableTutors[count] = getTutor(tutorNames[i]); \r\n                    count += 1;\r\n                }\r\n            }   \r\n        }\r\n\r\n        return availableTutors;\r\n    }\r\n\r\n    function matchStudentTutor(string memory _studentName, string memory _class, uint256 _dayIndex, string memory _tutorName) public returns (bool) {\r\n\r\n        string[] memory classes = getTutorClassesTaught(_tutorName);\r\n        bool[7] memory theDays = getTutorDaysAvailable(_tutorName);\r\n\r\n        if (theDays[_dayIndex]) {\r\n            for (uint i = 0; i < classes.length; i++) {\r\n                 if (keccak256(abi.encodePacked(classes[i])) == keccak256(abi.encodePacked(_class))) {\r\n                    updateMatch(_studentName, _dayIndex, _tutorName);\r\n                    return true;\r\n                 }\r\n            }\r\n        }\r\n\r\n        return false;\r\n    }\r\n\r\n\r\n    function updateMatch(string memory _studentName, uint256 _dayIndex, string memory _tutorName) public {\r\n        // No longer available in those days\r\n        students[_studentName].daysAvailable[_dayIndex] = false;\r\n        tutors[_tutorName].daysAvailable[_dayIndex] = false;\r\n        studentPayTutor(_studentName, _tutorName);\r\n    }\r\n\r\n\r\n    function studentPayTutor(string memory _studentName, string memory _tutorName) public {\r\n        require(tutors[_tutorName].priceForClass < students[_studentName].balance, \"Insufficient balance for student\");\r\n        students[_studentName].balance -= tutors[_tutorName].priceForClass;\r\n        tutors[_tutorName].balance += tutors[_tutorName].priceForClass;\r\n    }    \r\n\r\n}",
  "sourcePath": "C:\\Users\\berta\\Desktop\\Decentralized-Tutor\\contracts\\TutorSystem.sol",
  "compiler": {
    "name": "solc",
    "version": "0.8.2+commit.661d1103.Emscripten.clang"
  },
  "schemaVersion": "3.4.16",
  "updatedAt": "2024-06-21T07:08:46.844Z",
  "devdoc": {
    "details": "This smart contract stores student and tutors and has functionality for the Student-Tutor System",
    "kind": "dev",
    "methods": {},
    "title": "TutorSystem",
    "version": 1
  },
  "userdoc": {
    "kind": "user",
    "methods": {},
    "version": 1
  }
}