{
  "contractName": "Tutor",
  "abi": [
    {
      "anonymous": false,
      "inputs": [
        {
          "indexed": false,
          "internalType": "address",
          "name": "from",
          "type": "address"
        },
        {
          "indexed": false,
          "internalType": "uint256",
          "name": "amount",
          "type": "uint256"
        }
      ],
      "name": "Received",
      "type": "event"
    },
    {
      "inputs": [
        {
          "internalType": "uint256",
          "name": "",
          "type": "uint256"
        }
      ],
      "name": "tutorAddresses",
      "outputs": [
        {
          "internalType": "address",
          "name": "",
          "type": "address"
        }
      ],
      "stateMutability": "view",
      "type": "function"
    },
    {
      "inputs": [
        {
          "internalType": "address",
          "name": "",
          "type": "address"
        }
      ],
      "name": "tutors",
      "outputs": [
        {
          "internalType": "string",
          "name": "name",
          "type": "string"
        },
        {
          "internalType": "uint256",
          "name": "balance",
          "type": "uint256"
        },
        {
          "internalType": "address",
          "name": "wallet",
          "type": "address"
        }
      ],
      "stateMutability": "view",
      "type": "function"
    },
    {
      "inputs": [
        {
          "internalType": "uint256",
          "name": "_amount",
          "type": "uint256"
        },
        {
          "internalType": "address",
          "name": "_adr",
          "type": "address"
        }
      ],
      "name": "receiveMoney",
      "outputs": [],
      "stateMutability": "nonpayable",
      "type": "function"
    },
    {
      "inputs": [
        {
          "internalType": "address",
          "name": "_address",
          "type": "address"
        }
      ],
      "name": "isTutorAddress",
      "outputs": [
        {
          "internalType": "bool",
          "name": "",
          "type": "bool"
        }
      ],
      "stateMutability": "view",
      "type": "function"
    },
    {
      "inputs": [
        {
          "internalType": "string",
          "name": "_name",
          "type": "string"
        }
      ],
      "name": "isTutorName",
      "outputs": [
        {
          "internalType": "bool",
          "name": "",
          "type": "bool"
        }
      ],
      "stateMutability": "view",
      "type": "function"
    },
    {
      "inputs": [
        {
          "internalType": "string",
          "name": "_name",
          "type": "string"
        }
      ],
      "name": "getTutor",
      "outputs": [
        {
          "components": [
            {
              "internalType": "string",
              "name": "name",
              "type": "string"
            },
            {
              "internalType": "uint256",
              "name": "balance",
              "type": "uint256"
            },
            {
              "internalType": "string[]",
              "name": "classesTaught",
              "type": "string[]"
            },
            {
              "internalType": "bool[7]",
              "name": "daysAvailable",
              "type": "bool[7]"
            },
            {
              "internalType": "address",
              "name": "wallet",
              "type": "address"
            }
          ],
          "internalType": "struct Tutor.TutorPerson",
          "name": "",
          "type": "tuple"
        }
      ],
      "stateMutability": "view",
      "type": "function"
    },
    {
      "inputs": [
        {
          "internalType": "string",
          "name": "_name",
          "type": "string"
        },
        {
          "internalType": "uint256",
          "name": "_balance",
          "type": "uint256"
        },
        {
          "internalType": "string[]",
          "name": "_classesTaught",
          "type": "string[]"
        },
        {
          "internalType": "bool[7]",
          "name": "_daysAvailable",
          "type": "bool[7]"
        },
        {
          "internalType": "address",
          "name": "_adr",
          "type": "address"
        }
      ],
      "name": "addOrUpdateTutor",
      "outputs": [],
      "stateMutability": "nonpayable",
      "type": "function"
    },
    {
      "inputs": [
        {
          "internalType": "address",
          "name": "_adr",
          "type": "address"
        }
      ],
      "name": "getBalance",
      "outputs": [
        {
          "internalType": "uint256",
          "name": "",
          "type": "uint256"
        }
      ],
      "stateMutability": "view",
      "type": "function"
    },
    {
      "inputs": [
        {
          "internalType": "uint256",
          "name": "_day",
          "type": "uint256"
        }
      ],
      "name": "getAvailableTutors",
      "outputs": [
        {
          "components": [
            {
              "internalType": "string",
              "name": "name",
              "type": "string"
            },
            {
              "internalType": "uint256",
              "name": "balance",
              "type": "uint256"
            },
            {
              "internalType": "string[]",
              "name": "classesTaught",
              "type": "string[]"
            },
            {
              "internalType": "bool[7]",
              "name": "daysAvailable",
              "type": "bool[7]"
            },
            {
              "internalType": "address",
              "name": "wallet",
              "type": "address"
            }
          ],
          "internalType": "struct Tutor.TutorPerson[]",
          "name": "",
          "type": "tuple[]"
        }
      ],
      "stateMutability": "view",
      "type": "function"
    }
  ],
  "bytecode": "0x608060405234801561001057600080fd5b506120bd806100206000396000f3fe608060405234801561001057600080fd5b50600436106100935760003560e01c80638224a341116100665780638224a341146101445780638e6c3a7f14610176578063b474dbb0146101a6578063bab8daa6146101d6578063f8b2cb4f146101f257610093565b80630565979a146100985780633407128d146100c85780634067289d146100f857806381917c7514610128575b600080fd5b6100b260048036038101906100ad91906115ec565b610222565b6040516100bf9190611ba5565b60405180910390f35b6100e260048036038101906100dd91906115c3565b610327565b6040516100ef9190611ba5565b60405180910390f35b610112600480360381019061010d91906115ec565b6103fc565b60405161011f9190611c1e565b60405180910390f35b610142600480360381019061013d91906116ff565b61081a565b005b61015e600480360381019061015991906115c3565b6108af565b60405161016d93929190611bc0565b60405180910390f35b610190600480360381019061018b91906116d6565b610981565b60405161019d9190611b83565b60405180910390f35b6101c060048036038101906101bb91906116d6565b610f7b565b6040516101cd9190611b3f565b60405180910390f35b6101f060048036038101906101eb919061162d565b610fba565b005b61020c600480360381019061020791906115c3565b611153565b6040516102199190611c40565b60405180910390f35b600080600090505b60018054905081101561031c5782805190602001206000806001848154811061027c577f4e487b7100000000000000000000000000000000000000000000000000000000600052603260045260246000fd5b9060005260206000200160009054906101000a900473ffffffffffffffffffffffffffffffffffffffff1673ffffffffffffffffffffffffffffffffffffffff1673ffffffffffffffffffffffffffffffffffffffff1681526020019081526020016000206000016040516102f19190611b28565b60405180910390201415610309576001915050610322565b808061031490611f32565b91505061022a565b50600090505b919050565b600080600090505b6001805490508110156103f1578273ffffffffffffffffffffffffffffffffffffffff166001828154811061038d577f4e487b7100000000000000000000000000000000000000000000000000000000600052603260045260246000fd5b9060005260206000200160009054906101000a900473ffffffffffffffffffffffffffffffffffffffff1673ffffffffffffffffffffffffffffffffffffffff1614156103de5760019150506103f7565b80806103e990611f32565b91505061032f565b50600090505b919050565b61040461119e565b60005b6001805490508110156107d957828051906020012060008060018481548110610459577f4e487b7100000000000000000000000000000000000000000000000000000000600052603260045260246000fd5b9060005260206000200160009054906101000a900473ffffffffffffffffffffffffffffffffffffffff1673ffffffffffffffffffffffffffffffffffffffff1673ffffffffffffffffffffffffffffffffffffffff1681526020019081526020016000206000016040516104ce9190611b28565b604051809103902014156107c65760008060018381548110610519577f4e487b7100000000000000000000000000000000000000000000000000000000600052603260045260246000fd5b9060005260206000200160009054906101000a900473ffffffffffffffffffffffffffffffffffffffff1673ffffffffffffffffffffffffffffffffffffffff1673ffffffffffffffffffffffffffffffffffffffff1681526020019081526020016000206040518060a001604052908160008201805461059990611ecf565b80601f01602080910402602001604051908101604052809291908181526020018280546105c590611ecf565b80156106125780601f106105e757610100808354040283529160200191610612565b820191906000526020600020905b8154815290600101906020018083116105f557829003601f168201915b505050505081526020016001820154815260200160028201805480602002602001604051908101604052809291908181526020016000905b828210156106f657838290600052602060002001805461066990611ecf565b80601f016020809104026020016040519081016040528092919081815260200182805461069590611ecf565b80156106e25780601f106106b7576101008083540402835291602001916106e2565b820191906000526020600020905b8154815290600101906020018083116106c557829003601f168201915b50505050508152602001906001019061064a565b5050505081526020016003820160078060200260405190810160405280929190826007801561075f576020028201916000905b82829054906101000a900460ff161515815260200190600101906020826000010492830192600103820291508084116107295790505b505050505081526020016004820160009054906101000a900473ffffffffffffffffffffffffffffffffffffffff1673ffffffffffffffffffffffffffffffffffffffff1673ffffffffffffffffffffffffffffffffffffffff1681525050915050610815565b80806107d190611f32565b915050610407565b506040517f08c379a000000000000000000000000000000000000000000000000000000000815260040161080c90611bfe565b60405180910390fd5b919050565b816000808373ffffffffffffffffffffffffffffffffffffffff1673ffffffffffffffffffffffffffffffffffffffff168152602001908152602001600020600101600082825461086b9190611def565b925050819055507f88a5966d370b9919b20f3e2c13ff65706f196a4e32cc2c12bf57088f8852587433836040516108a3929190611b5a565b60405180910390a15050565b60006020528060005260406000206000915090508060000180546108d290611ecf565b80601f01602080910402602001604051908101604052809291908181526020018280546108fe90611ecf565b801561094b5780601f106109205761010080835404028352916020019161094b565b820191906000526020600020905b81548152906001019060200180831161092e57829003601f168201915b5050505050908060010154908060040160009054906101000a900473ffffffffffffffffffffffffffffffffffffffff16905083565b60606000805b600180549050811015610aaf57600080600183815481106109d1577f4e487b7100000000000000000000000000000000000000000000000000000000600052603260045260246000fd5b9060005260206000200160009054906101000a900473ffffffffffffffffffffffffffffffffffffffff1673ffffffffffffffffffffffffffffffffffffffff1673ffffffffffffffffffffffffffffffffffffffff1681526020019081526020016000206003018460078110610a71577f4e487b7100000000000000000000000000000000000000000000000000000000600052603260045260246000fd5b602091828204019190069054906101000a900460ff1615610a9c57600182610a999190611def565b91505b8080610aa790611f32565b915050610987565b5060008167ffffffffffffffff811115610af2577f4e487b7100000000000000000000000000000000000000000000000000000000600052604160045260246000fd5b604051908082528060200260200182016040528015610b2b57816020015b610b1861119e565b815260200190600190039081610b105790505b50905060005b600180549050811015610f705760008060018381548110610b7b577f4e487b7100000000000000000000000000000000000000000000000000000000600052603260045260246000fd5b9060005260206000200160009054906101000a900473ffffffffffffffffffffffffffffffffffffffff1673ffffffffffffffffffffffffffffffffffffffff1673ffffffffffffffffffffffffffffffffffffffff1681526020019081526020016000206003018560078110610c1b577f4e487b7100000000000000000000000000000000000000000000000000000000600052603260045260246000fd5b602091828204019190069054906101000a900460ff1615610f5d5760008060018381548110610c73577f4e487b7100000000000000000000000000000000000000000000000000000000600052603260045260246000fd5b9060005260206000200160009054906101000a900473ffffffffffffffffffffffffffffffffffffffff1673ffffffffffffffffffffffffffffffffffffffff1673ffffffffffffffffffffffffffffffffffffffff1681526020019081526020016000206040518060a0016040529081600082018054610cf390611ecf565b80601f0160208091040260200160405190810160405280929190818152602001828054610d1f90611ecf565b8015610d6c5780601f10610d4157610100808354040283529160200191610d6c565b820191906000526020600020905b815481529060010190602001808311610d4f57829003601f168201915b505050505081526020016001820154815260200160028201805480602002602001604051908101604052809291908181526020016000905b82821015610e50578382906000526020600020018054610dc390611ecf565b80601f0160208091040260200160405190810160405280929190818152602001828054610def90611ecf565b8015610e3c5780601f10610e1157610100808354040283529160200191610e3c565b820191906000526020600020905b815481529060010190602001808311610e1f57829003601f168201915b505050505081526020019060010190610da4565b50505050815260200160038201600780602002604051908101604052809291908260078015610eb9576020028201916000905b82829054906101000a900460ff16151581526020019060010190602082600001049283019260010382029150808411610e835790505b505050505081526020016004820160009054906101000a900473ffffffffffffffffffffffffffffffffffffffff1673ffffffffffffffffffffffffffffffffffffffff1673ffffffffffffffffffffffffffffffffffffffff1681525050828281518110610f51577f4e487b7100000000000000000000000000000000000000000000000000000000600052603260045260246000fd5b60200260200101819052505b8080610f6890611f32565b915050610b31565b508092505050919050565b60018181548110610f8b57600080fd5b906000526020600020016000915054906101000a900473ffffffffffffffffffffffffffffffffffffffff1681565b610fc381610327565b61102b576001819080600181540180825580915050600190039060005260206000200160009091909190916101000a81548173ffffffffffffffffffffffffffffffffffffffff021916908373ffffffffffffffffffffffffffffffffffffffff1602179055505b6040518060a001604052808681526020018581526020018481526020018381526020018273ffffffffffffffffffffffffffffffffffffffff168152506000808373ffffffffffffffffffffffffffffffffffffffff1673ffffffffffffffffffffffffffffffffffffffff16815260200190815260200160002060008201518160000190805190602001906110c29291906111e9565b506020820151816001015560408201518160020190805190602001906110e992919061126f565b506060820151816003019060076111019291906112cf565b5060808201518160040160006101000a81548173ffffffffffffffffffffffffffffffffffffffff021916908373ffffffffffffffffffffffffffffffffffffffff1602179055509050505050505050565b60008060008373ffffffffffffffffffffffffffffffffffffffff1673ffffffffffffffffffffffffffffffffffffffff168152602001908152602001600020600101549050919050565b6040518060a001604052806060815260200160008152602001606081526020016111c6611368565b8152602001600073ffffffffffffffffffffffffffffffffffffffff1681525090565b8280546111f590611ecf565b90600052602060002090601f016020900481019282611217576000855561125e565b82601f1061123057805160ff191683800117855561125e565b8280016001018555821561125e579182015b8281111561125d578251825591602001919060010190611242565b5b50905061126b919061138a565b5090565b8280548282559060005260206000209081019282156112be579160200282015b828111156112bd5782518290805190602001906112ad9291906111e9565b509160200191906001019061128f565b5b5090506112cb91906113a7565b5090565b826007601f016020900481019282156113575791602002820160005b8382111561132857835183826101000a81548160ff02191690831515021790555092602001926001016020816000010492830192600103026112eb565b80156113555782816101000a81549060ff0219169055600101602081600001049283019260010302611328565b505b509050611364919061138a565b5090565b6040518060e00160405280600790602082028036833780820191505090505090565b5b808211156113a357600081600090555060010161138b565b5090565b5b808211156113c757600081816113be91906113cb565b506001016113a8565b5090565b5080546113d790611ecf565b6000825580601f106113e95750611408565b601f016020900490600052602060002090810190611407919061138a565b5b50565b600061141e61141984611c80565b611c5b565b9050808285602086028201111561143457600080fd5b60005b85811015611464578161144a888261156f565b845260208401935060208301925050600181019050611437565b5050509392505050565b600061148161147c84611ca6565b611c5b565b9050808382526020820190508260005b858110156114c157813585016114a78882611584565b845260208401935060208301925050600181019050611491565b5050509392505050565b60006114de6114d984611cd2565b611c5b565b9050828152602081018484840111156114f657600080fd5b611501848285611e8d565b509392505050565b60008135905061151881612042565b92915050565b600082601f83011261152f57600080fd5b600761153c84828561140b565b91505092915050565b600082601f83011261155657600080fd5b813561156684826020860161146e565b91505092915050565b60008135905061157e81612059565b92915050565b600082601f83011261159557600080fd5b81356115a58482602086016114cb565b91505092915050565b6000813590506115bd81612070565b92915050565b6000602082840312156115d557600080fd5b60006115e384828501611509565b91505092915050565b6000602082840312156115fe57600080fd5b600082013567ffffffffffffffff81111561161857600080fd5b61162484828501611584565b91505092915050565b6000806000806000610160868803121561164657600080fd5b600086013567ffffffffffffffff81111561166057600080fd5b61166c88828901611584565b955050602061167d888289016115ae565b945050604086013567ffffffffffffffff81111561169a57600080fd5b6116a688828901611545565b93505060606116b78882890161151e565b9250506101406116c988828901611509565b9150509295509295909350565b6000602082840312156116e857600080fd5b60006116f6848285016115ae565b91505092915050565b6000806040838503121561171257600080fd5b6000611720858286016115ae565b925050602061173185828601611509565b9150509250929050565b600061174783836118da565b60208301905092915050565b600061175f8383611977565b905092915050565b60006117738383611a0c565b905092915050565b61178481611e45565b82525050565b61179381611e45565b82525050565b6117a281611d42565b6117ac8184611d95565b92506117b782611d03565b8060005b838110156117e85781516117cf878261173b565b96506117da83611d6e565b9250506001810190506117bb565b505050505050565b60006117fb82611d4d565b6118058185611da0565b93508360208202850161181785611d0d565b8060005b8581101561185357848403895281516118348582611753565b945061183f83611d7b565b925060208a0199505060018101905061181b565b50829750879550505050505092915050565b600061187082611d58565b61187a8185611db1565b93508360208202850161188c85611d1d565b8060005b858110156118c857848403895281516118a98582611767565b94506118b483611d88565b925060208a01995050600181019050611890565b50829750879550505050505092915050565b6118e381611e57565b82525050565b6118f281611e57565b82525050565b6000815461190581611ecf565b61190f8186611dc2565b9450600182166000811461192a576001811461193b5761196e565b60ff1983168652818601935061196e565b61194485611d2d565b60005b8381101561196657815481890152600182019150602081019050611947565b838801955050505b50505092915050565b600061198282611d63565b61198c8185611dcd565b935061199c818560208601611e9c565b6119a581612008565b840191505092915050565b60006119bb82611d63565b6119c58185611dde565b93506119d5818560208601611e9c565b6119de81612008565b840191505092915050565b60006119f6600f83611dde565b9150611a0182612019565b602082019050919050565b6000610160830160008301518482036000860152611a2a8282611977565b9150506020830151611a3f6020860182611b0a565b5060408301518482036040860152611a5782826117f0565b9150506060830151611a6c6060860182611799565b506080830151611a8061014086018261177b565b508091505092915050565b6000610160830160008301518482036000860152611aa98282611977565b9150506020830151611abe6020860182611b0a565b5060408301518482036040860152611ad682826117f0565b9150506060830151611aeb6060860182611799565b506080830151611aff61014086018261177b565b508091505092915050565b611b1381611e83565b82525050565b611b2281611e83565b82525050565b6000611b3482846118f8565b915081905092915050565b6000602082019050611b54600083018461178a565b92915050565b6000604082019050611b6f600083018561178a565b611b7c6020830184611b19565b9392505050565b60006020820190508181036000830152611b9d8184611865565b905092915050565b6000602082019050611bba60008301846118e9565b92915050565b60006060820190508181036000830152611bda81866119b0565b9050611be96020830185611b19565b611bf6604083018461178a565b949350505050565b60006020820190508181036000830152611c17816119e9565b9050919050565b60006020820190508181036000830152611c388184611a8b565b905092915050565b6000602082019050611c556000830184611b19565b92915050565b6000611c65611c76565b9050611c718282611f01565b919050565b6000604051905090565b600067ffffffffffffffff821115611c9b57611c9a611fd9565b5b602082029050919050565b600067ffffffffffffffff821115611cc157611cc0611fd9565b5b602082029050602081019050919050565b600067ffffffffffffffff821115611ced57611cec611fd9565b5b611cf682612008565b9050602081019050919050565b6000819050919050565b6000819050602082019050919050565b6000819050602082019050919050565b60008190508160005260206000209050919050565b600060079050919050565b600081519050919050565b600081519050919050565b600081519050919050565b6000602082019050919050565b6000602082019050919050565b6000602082019050919050565b600081905092915050565b600082825260208201905092915050565b600082825260208201905092915050565b600081905092915050565b600082825260208201905092915050565b600082825260208201905092915050565b6000611dfa82611e83565b9150611e0583611e83565b9250827fffffffffffffffffffffffffffffffffffffffffffffffffffffffffffffffff03821115611e3a57611e39611f7b565b5b828201905092915050565b6000611e5082611e63565b9050919050565b60008115159050919050565b600073ffffffffffffffffffffffffffffffffffffffff82169050919050565b6000819050919050565b82818337600083830152505050565b60005b83811015611eba578082015181840152602081019050611e9f565b83811115611ec9576000848401525b50505050565b60006002820490506001821680611ee757607f821691505b60208210811415611efb57611efa611faa565b5b50919050565b611f0a82612008565b810181811067ffffffffffffffff82111715611f2957611f28611fd9565b5b80604052505050565b6000611f3d82611e83565b91507fffffffffffffffffffffffffffffffffffffffffffffffffffffffffffffffff821415611f7057611f6f611f7b565b5b600182019050919050565b7f4e487b7100000000000000000000000000000000000000000000000000000000600052601160045260246000fd5b7f4e487b7100000000000000000000000000000000000000000000000000000000600052602260045260246000fd5b7f4e487b7100000000000000000000000000000000000000000000000000000000600052604160045260246000fd5b6000601f19601f8301169050919050565b7f5475746f72206e6f7420666f756e640000000000000000000000000000000000600082015250565b61204b81611e45565b811461205657600080fd5b50565b61206281611e57565b811461206d57600080fd5b50565b61207981611e83565b811461208457600080fd5b5056fea26469706673582212200f251b8179a058a9c18bd367a445776564cb18c7c7099284d228418be7ca79f964736f6c63430008020033",
  "immutableReferences": {},
  "source": "// SPDX-License-Identifier: MIT\r\n\r\npragma solidity ^0.8.2;\r\n\r\n/**\r\n * @title Tutor\r\n * @dev Stores the Tutors and handles certain interactions between students and tutors\r\n */\r\ncontract Tutor {\r\n\r\n    struct TutorPerson {\r\n        string name;\r\n        uint256 balance;\r\n        string[] classesTaught;\r\n        bool[7] daysAvailable; // True if available that day False if not\r\n        address wallet;\r\n    }\r\n\r\n    mapping(address => TutorPerson) public tutors;\r\n    address[] public tutorAddresses;\r\n\r\n    event Received(address from, uint256 amount);\r\n\r\n    function receiveMoney(uint256 _amount, address _adr) public {\r\n        tutors[_adr].balance += _amount;\r\n        emit Received(msg.sender, _amount);\r\n    }\r\n\r\n\r\n    // Function to check if an address is in the tutorAddresses array\r\n    function isTutorAddress(address _address) public view returns (bool) {\r\n        for (uint i = 0; i < tutorAddresses.length; i++) {\r\n            if (tutorAddresses[i] == _address) {\r\n                return true;\r\n            }\r\n        }\r\n        return false;\r\n    }    \r\n\r\n    function isTutorName(string memory _name) public view returns (bool) {\r\n    for (uint i = 0; i < tutorAddresses.length; i++) {\r\n        if (keccak256(bytes(tutors[tutorAddresses[i]].name)) == keccak256(bytes(_name))) {\r\n            return true;\r\n        }\r\n    }\r\n    return false;\r\n}\r\n\r\n\r\n    function getTutor(string memory _name) public view returns (TutorPerson memory) {\r\n        for (uint i = 0; i < tutorAddresses.length; i++) {\r\n            if (keccak256(bytes(tutors[tutorAddresses[i]].name)) == keccak256(bytes(_name))) {\r\n                return tutors[tutorAddresses[i]];\r\n            }\r\n        }\r\n        revert(\"Tutor not found\");\r\n    }\r\n\r\n\r\n    function addOrUpdateTutor(string memory _name, uint256 _balance, string[] memory _classesTaught, bool[7] memory _daysAvailable, address _adr ) public {\r\n        if (!isTutorAddress(_adr)) {\r\n            tutorAddresses.push(_adr);\r\n        }\r\n\r\n        tutors[_adr] = TutorPerson(_name, _balance, _classesTaught, _daysAvailable, _adr);\r\n    }\r\n\r\n\r\n    function getBalance(address _adr) public view returns(uint256) {\r\n        return tutors[_adr].balance;\r\n    }    \r\n\r\n    // Day is the index of the day (0-indexed where 0 being monday and 6 being sunday)\r\n    function getAvailableTutors(uint256 _day) public view returns (TutorPerson[] memory) {\r\n        \r\n        uint numTutor = 0;\r\n        \r\n        for (uint i = 0; i < tutorAddresses.length; i++) {\r\n            if (tutors[tutorAddresses[i]].daysAvailable[_day]) {\r\n                numTutor += 1;\r\n            }\r\n        }\r\n\r\n        TutorPerson[] memory tutorList = new TutorPerson[](numTutor);\r\n        \r\n        for (uint i = 0; i < tutorAddresses.length; i++) {\r\n            if (tutors[tutorAddresses[i]].daysAvailable[_day]) {\r\n                tutorList[i] = tutors[tutorAddresses[i]];\r\n            }\r\n        }\r\n        return tutorList;\r\n    }\r\n\r\n\r\n}",
  "sourcePath": "C:\\Users\\berta\\Desktop\\Decentralized-Tutor\\contracts\\Tutor.sol",
  "compiler": {
    "name": "solc",
    "version": "0.8.2+commit.661d1103.Emscripten.clang"
  },
  "schemaVersion": "3.4.16",
  "updatedAt": "2024-06-17T16:35:19.238Z",
  "devdoc": {
    "details": "Stores the Tutors and handles certain interactions between students and tutors",
    "kind": "dev",
    "methods": {},
    "title": "Tutor",
    "version": 1
  },
  "userdoc": {
    "kind": "user",
    "methods": {},
    "version": 1
  }
}