{
  "contractName": "Tutor",
  "abi": [
    {
      "anonymous": false,
      "inputs": [
        {
          "indexed": false,
          "internalType": "address",
          "name": "from",
          "type": "address"
        },
        {
          "indexed": false,
          "internalType": "uint256",
          "name": "amount",
          "type": "uint256"
        }
      ],
      "name": "Received",
      "type": "event"
    },
    {
      "inputs": [
        {
          "internalType": "uint256",
          "name": "",
          "type": "uint256"
        }
      ],
      "name": "tutorAddresses",
      "outputs": [
        {
          "internalType": "address",
          "name": "",
          "type": "address"
        }
      ],
      "stateMutability": "view",
      "type": "function"
    },
    {
      "inputs": [
        {
          "internalType": "address",
          "name": "",
          "type": "address"
        }
      ],
      "name": "tutors",
      "outputs": [
        {
          "internalType": "string",
          "name": "name",
          "type": "string"
        },
        {
          "internalType": "uint256",
          "name": "balance",
          "type": "uint256"
        },
        {
          "internalType": "address",
          "name": "wallet",
          "type": "address"
        }
      ],
      "stateMutability": "view",
      "type": "function"
    },
    {
      "inputs": [
        {
          "internalType": "string",
          "name": "_name",
          "type": "string"
        }
      ],
      "name": "getCurrentStudents",
      "outputs": [
        {
          "internalType": "string[]",
          "name": "",
          "type": "string[]"
        }
      ],
      "stateMutability": "view",
      "type": "function"
    },
    {
      "inputs": [
        {
          "internalType": "uint256",
          "name": "_amount",
          "type": "uint256"
        },
        {
          "internalType": "address",
          "name": "_adr",
          "type": "address"
        }
      ],
      "name": "receiveMoney",
      "outputs": [],
      "stateMutability": "nonpayable",
      "type": "function"
    },
    {
      "inputs": [
        {
          "internalType": "address",
          "name": "_address",
          "type": "address"
        }
      ],
      "name": "isTutorAddress",
      "outputs": [
        {
          "internalType": "bool",
          "name": "",
          "type": "bool"
        }
      ],
      "stateMutability": "view",
      "type": "function"
    },
    {
      "inputs": [
        {
          "internalType": "string",
          "name": "_name",
          "type": "string"
        }
      ],
      "name": "isTutorName",
      "outputs": [
        {
          "internalType": "bool",
          "name": "",
          "type": "bool"
        }
      ],
      "stateMutability": "view",
      "type": "function"
    },
    {
      "inputs": [
        {
          "internalType": "string",
          "name": "_name",
          "type": "string"
        }
      ],
      "name": "getTutor",
      "outputs": [
        {
          "components": [
            {
              "internalType": "string",
              "name": "name",
              "type": "string"
            },
            {
              "internalType": "uint256",
              "name": "balance",
              "type": "uint256"
            },
            {
              "internalType": "string[]",
              "name": "classesTaught",
              "type": "string[]"
            },
            {
              "internalType": "bool[7]",
              "name": "daysAvailable",
              "type": "bool[7]"
            },
            {
              "internalType": "string[]",
              "name": "currentStudents",
              "type": "string[]"
            },
            {
              "internalType": "address",
              "name": "wallet",
              "type": "address"
            }
          ],
          "internalType": "struct Tutor.TutorPerson",
          "name": "",
          "type": "tuple"
        }
      ],
      "stateMutability": "view",
      "type": "function"
    },
    {
      "inputs": [
        {
          "internalType": "string",
          "name": "_name",
          "type": "string"
        },
        {
          "internalType": "uint256",
          "name": "_balance",
          "type": "uint256"
        },
        {
          "internalType": "string[]",
          "name": "_classesTaught",
          "type": "string[]"
        },
        {
          "internalType": "bool[7]",
          "name": "_daysAvailable",
          "type": "bool[7]"
        },
        {
          "internalType": "string[]",
          "name": "_currentStudents",
          "type": "string[]"
        },
        {
          "internalType": "address",
          "name": "_adr",
          "type": "address"
        }
      ],
      "name": "addOrUpdateTutor",
      "outputs": [],
      "stateMutability": "nonpayable",
      "type": "function"
    },
    {
      "inputs": [
        {
          "internalType": "address",
          "name": "_adr",
          "type": "address"
        }
      ],
      "name": "getBalance",
      "outputs": [
        {
          "internalType": "uint256",
          "name": "",
          "type": "uint256"
        }
      ],
      "stateMutability": "view",
      "type": "function"
    },
    {
      "inputs": [
        {
          "internalType": "uint256",
          "name": "_day",
          "type": "uint256"
        }
      ],
      "name": "getAvailableTutors",
      "outputs": [
        {
          "components": [
            {
              "internalType": "string",
              "name": "name",
              "type": "string"
            },
            {
              "internalType": "uint256",
              "name": "balance",
              "type": "uint256"
            },
            {
              "internalType": "string[]",
              "name": "classesTaught",
              "type": "string[]"
            },
            {
              "internalType": "bool[7]",
              "name": "daysAvailable",
              "type": "bool[7]"
            },
            {
              "internalType": "string[]",
              "name": "currentStudents",
              "type": "string[]"
            },
            {
              "internalType": "address",
              "name": "wallet",
              "type": "address"
            }
          ],
          "internalType": "struct Tutor.TutorPerson[]",
          "name": "",
          "type": "tuple[]"
        }
      ],
      "stateMutability": "view",
      "type": "function"
    },
    {
      "inputs": [
        {
          "internalType": "string[]",
          "name": "_classes",
          "type": "string[]"
        }
      ],
      "name": "getAvailableTutorsClass",
      "outputs": [
        {
          "components": [
            {
              "internalType": "string",
              "name": "name",
              "type": "string"
            },
            {
              "internalType": "uint256",
              "name": "balance",
              "type": "uint256"
            },
            {
              "internalType": "string[]",
              "name": "classesTaught",
              "type": "string[]"
            },
            {
              "internalType": "bool[7]",
              "name": "daysAvailable",
              "type": "bool[7]"
            },
            {
              "internalType": "string[]",
              "name": "currentStudents",
              "type": "string[]"
            },
            {
              "internalType": "address",
              "name": "wallet",
              "type": "address"
            }
          ],
          "internalType": "struct Tutor.TutorPerson[]",
          "name": "",
          "type": "tuple[]"
        }
      ],
      "stateMutability": "view",
      "type": "function"
    },
    {
      "inputs": [
        {
          "internalType": "address",
          "name": "tutorAddress",
          "type": "address"
        },
        {
          "internalType": "uint256",
          "name": "day",
          "type": "uint256"
        },
        {
          "internalType": "bool",
          "name": "availability",
          "type": "bool"
        }
      ],
      "name": "updateTutorAvailability",
      "outputs": [],
      "stateMutability": "nonpayable",
      "type": "function"
    }
  ],
  "bytecode": "0x608060405234801561001057600080fd5b5061306b806100206000396000f3fe608060405234801561001057600080fd5b50600436106100b45760003560e01c80638224a341116100715780638224a3411461019d5780638e6c3a7f146101cf578063b474dbb0146101ff578063d7069bf41461022f578063f8b2cb4f1461025f578063f95c4a071461028f576100b4565b80630486fdc6146100b95780630565979a146100d55780633407128d146101055780634067289d146101355780637a9821541461016557806381917c7514610181575b600080fd5b6100d360048036038101906100ce91906123d4565b6102bf565b005b6100ef60048036038101906100ea9190612393565b61047c565b6040516100fc9190612b22565b60405180910390f35b61011f600480360381019061011a91906122da565b610581565b60405161012c9190612b22565b60405180910390f35b61014f600480360381019061014a9190612393565b610656565b60405161015c9190612b9b565b60405180910390f35b61017f600480360381019061017a9190612303565b610b4d565b005b61019b600480360381019061019691906124d1565b610beb565b005b6101b760048036038101906101b291906122da565b610c80565b6040516101c693929190612b3d565b60405180910390f35b6101e960048036038101906101e491906124a8565b610d52565b6040516101f69190612b00565b60405180910390f35b610219600480360381019061021491906124a8565b611425565b6040516102269190612a9a565b60405180910390f35b61024960048036038101906102449190612352565b611464565b6040516102569190612b00565b60405180910390f35b610279600480360381019061027491906122da565b611e4d565b6040516102869190612bbd565b60405180910390f35b6102a960048036038101906102a49190612393565b611e98565b6040516102b69190612ade565b60405180910390f35b6102c881610581565b610330576001819080600181540180825580915050600190039060005260206000200160009091909190916101000a81548173ffffffffffffffffffffffffffffffffffffffff021916908373ffffffffffffffffffffffffffffffffffffffff1602179055505b6040518060c001604052808781526020018681526020018581526020018481526020018381526020018273ffffffffffffffffffffffffffffffffffffffff168152506000808373ffffffffffffffffffffffffffffffffffffffff1673ffffffffffffffffffffffffffffffffffffffff16815260200190815260200160002060008201518160000190805190602001906103cd929190611eae565b506020820151816001015560408201518160020190805190602001906103f4929190611f34565b5060608201518160030190600761040c929190611f94565b506080820151816004019080519060200190610429929190611f34565b5060a08201518160050160006101000a81548173ffffffffffffffffffffffffffffffffffffffff021916908373ffffffffffffffffffffffffffffffffffffffff160217905550905050505050505050565b600080600090505b600180549050811015610576578280519060200120600080600184815481106104d6577f4e487b7100000000000000000000000000000000000000000000000000000000600052603260045260246000fd5b9060005260206000200160009054906101000a900473ffffffffffffffffffffffffffffffffffffffff1673ffffffffffffffffffffffffffffffffffffffff1673ffffffffffffffffffffffffffffffffffffffff16815260200190815260200160002060000160405161054b9190612a55565b6040518091039020141561056357600191505061057c565b808061056e90612ee0565b915050610484565b50600090505b919050565b600080600090505b60018054905081101561064b578273ffffffffffffffffffffffffffffffffffffffff16600182815481106105e7577f4e487b7100000000000000000000000000000000000000000000000000000000600052603260045260246000fd5b9060005260206000200160009054906101000a900473ffffffffffffffffffffffffffffffffffffffff1673ffffffffffffffffffffffffffffffffffffffff161415610638576001915050610651565b808061064390612ee0565b915050610589565b50600090505b919050565b61065e61202d565b60005b600180549050811015610b0c578280519060200120600080600184815481106106b3577f4e487b7100000000000000000000000000000000000000000000000000000000600052603260045260246000fd5b9060005260206000200160009054906101000a900473ffffffffffffffffffffffffffffffffffffffff1673ffffffffffffffffffffffffffffffffffffffff1673ffffffffffffffffffffffffffffffffffffffff1681526020019081526020016000206000016040516107289190612a55565b60405180910390201415610af95760008060018381548110610773577f4e487b7100000000000000000000000000000000000000000000000000000000600052603260045260246000fd5b9060005260206000200160009054906101000a900473ffffffffffffffffffffffffffffffffffffffff1673ffffffffffffffffffffffffffffffffffffffff1673ffffffffffffffffffffffffffffffffffffffff1681526020019081526020016000206040518060c00160405290816000820180546107f390612e7d565b80601f016020809104026020016040519081016040528092919081815260200182805461081f90612e7d565b801561086c5780601f106108415761010080835404028352916020019161086c565b820191906000526020600020905b81548152906001019060200180831161084f57829003601f168201915b505050505081526020016001820154815260200160028201805480602002602001604051908101604052809291908181526020016000905b828210156109505783829060005260206000200180546108c390612e7d565b80601f01602080910402602001604051908101604052809291908181526020018280546108ef90612e7d565b801561093c5780601f106109115761010080835404028352916020019161093c565b820191906000526020600020905b81548152906001019060200180831161091f57829003601f168201915b5050505050815260200190600101906108a4565b505050508152602001600382016007806020026040519081016040528092919082600780156109b9576020028201916000905b82829054906101000a900460ff161515815260200190600101906020826000010492830192600103820291508084116109835790505b5050505050815260200160048201805480602002602001604051908101604052809291908181526020016000905b82821015610a93578382906000526020600020018054610a0690612e7d565b80601f0160208091040260200160405190810160405280929190818152602001828054610a3290612e7d565b8015610a7f5780601f10610a5457610100808354040283529160200191610a7f565b820191906000526020600020905b815481529060010190602001808311610a6257829003601f168201915b5050505050815260200190600101906109e7565b5050505081526020016005820160009054906101000a900473ffffffffffffffffffffffffffffffffffffffff1673ffffffffffffffffffffffffffffffffffffffff1673ffffffffffffffffffffffffffffffffffffffff1681525050915050610b48565b8080610b0490612ee0565b915050610661565b506040517f08c379a0000000000000000000000000000000000000000000000000000000008152600401610b3f90612b7b565b60405180910390fd5b919050565b806000808573ffffffffffffffffffffffffffffffffffffffff1673ffffffffffffffffffffffffffffffffffffffff1681526020019081526020016000206003018360078110610bc7577f4e487b7100000000000000000000000000000000000000000000000000000000600052603260045260246000fd5b602091828204019190066101000a81548160ff021916908315150217905550505050565b816000808373ffffffffffffffffffffffffffffffffffffffff1673ffffffffffffffffffffffffffffffffffffffff1681526020019081526020016000206001016000828254610c3c9190612d9d565b925050819055507f88a5966d370b9919b20f3e2c13ff65706f196a4e32cc2c12bf57088f885258743383604051610c74929190612ab5565b60405180910390a15050565b6000602052806000526040600020600091509050806000018054610ca390612e7d565b80601f0160208091040260200160405190810160405280929190818152602001828054610ccf90612e7d565b8015610d1c5780601f10610cf157610100808354040283529160200191610d1c565b820191906000526020600020905b815481529060010190602001808311610cff57829003601f168201915b5050505050908060010154908060050160009054906101000a900473ffffffffffffffffffffffffffffffffffffffff16905083565b60606000805b600180549050811015610e805760008060018381548110610da2577f4e487b7100000000000000000000000000000000000000000000000000000000600052603260045260246000fd5b9060005260206000200160009054906101000a900473ffffffffffffffffffffffffffffffffffffffff1673ffffffffffffffffffffffffffffffffffffffff1673ffffffffffffffffffffffffffffffffffffffff1681526020019081526020016000206003018460078110610e42577f4e487b7100000000000000000000000000000000000000000000000000000000600052603260045260246000fd5b602091828204019190069054906101000a900460ff1615610e6d57600182610e6a9190612d9d565b91505b8080610e7890612ee0565b915050610d58565b5060008167ffffffffffffffff811115610ec3577f4e487b7100000000000000000000000000000000000000000000000000000000600052604160045260246000fd5b604051908082528060200260200182016040528015610efc57816020015b610ee961202d565b815260200190600190039081610ee15790505b50905060005b60018054905081101561141a5760008060018381548110610f4c577f4e487b7100000000000000000000000000000000000000000000000000000000600052603260045260246000fd5b9060005260206000200160009054906101000a900473ffffffffffffffffffffffffffffffffffffffff1673ffffffffffffffffffffffffffffffffffffffff1673ffffffffffffffffffffffffffffffffffffffff1681526020019081526020016000206003018560078110610fec577f4e487b7100000000000000000000000000000000000000000000000000000000600052603260045260246000fd5b602091828204019190069054906101000a900460ff16156114075760008060018381548110611044577f4e487b7100000000000000000000000000000000000000000000000000000000600052603260045260246000fd5b9060005260206000200160009054906101000a900473ffffffffffffffffffffffffffffffffffffffff1673ffffffffffffffffffffffffffffffffffffffff1673ffffffffffffffffffffffffffffffffffffffff1681526020019081526020016000206040518060c00160405290816000820180546110c490612e7d565b80601f01602080910402602001604051908101604052809291908181526020018280546110f090612e7d565b801561113d5780601f106111125761010080835404028352916020019161113d565b820191906000526020600020905b81548152906001019060200180831161112057829003601f168201915b505050505081526020016001820154815260200160028201805480602002602001604051908101604052809291908181526020016000905b8282101561122157838290600052602060002001805461119490612e7d565b80601f01602080910402602001604051908101604052809291908181526020018280546111c090612e7d565b801561120d5780601f106111e25761010080835404028352916020019161120d565b820191906000526020600020905b8154815290600101906020018083116111f057829003601f168201915b505050505081526020019060010190611175565b5050505081526020016003820160078060200260405190810160405280929190826007801561128a576020028201916000905b82829054906101000a900460ff161515815260200190600101906020826000010492830192600103820291508084116112545790505b5050505050815260200160048201805480602002602001604051908101604052809291908181526020016000905b828210156113645783829060005260206000200180546112d790612e7d565b80601f016020809104026020016040519081016040528092919081815260200182805461130390612e7d565b80156113505780601f1061132557610100808354040283529160200191611350565b820191906000526020600020905b81548152906001019060200180831161133357829003601f168201915b5050505050815260200190600101906112b8565b5050505081526020016005820160009054906101000a900473ffffffffffffffffffffffffffffffffffffffff1673ffffffffffffffffffffffffffffffffffffffff1673ffffffffffffffffffffffffffffffffffffffff16815250508282815181106113fb577f4e487b7100000000000000000000000000000000000000000000000000000000600052603260045260246000fd5b60200260200101819052505b808061141290612ee0565b915050610f02565b508092505050919050565b6001818154811061143557600080fd5b906000526020600020016000915054906101000a900473ffffffffffffffffffffffffffffffffffffffff1681565b6060600060018054905067ffffffffffffffff8111156114ad577f4e487b7100000000000000000000000000000000000000000000000000000000600052604160045260246000fd5b6040519080825280602002602001820160405280156114e657816020015b6114d361202d565b8152602001906001900390816114cb5790505b5090506000805b8451811015611d1f576000858281518110611531577f4e487b7100000000000000000000000000000000000000000000000000000000600052603260045260246000fd5b6020026020010151905060005b600180549050811015611d0a5760008060006001848154811061158a577f4e487b7100000000000000000000000000000000000000000000000000000000600052603260045260246000fd5b9060005260206000200160009054906101000a900473ffffffffffffffffffffffffffffffffffffffff1673ffffffffffffffffffffffffffffffffffffffff1673ffffffffffffffffffffffffffffffffffffffff168152602001908152602001600020600201805480602002602001604051908101604052809291908181526020016000905b828210156116be57838290600052602060002001805461163190612e7d565b80601f016020809104026020016040519081016040528092919081815260200182805461165d90612e7d565b80156116aa5780601f1061167f576101008083540402835291602001916116aa565b820191906000526020600020905b81548152906001019060200180831161168d57829003601f168201915b505050505081526020019060010190611612565b50505050905060005b8151811015611cf557836040516020016116e19190612a6c565b60405160208183030381529060405280519060200120828281518110611730577f4e487b7100000000000000000000000000000000000000000000000000000000600052603260045260246000fd5b60200260200101516040516020016117489190612a6c565b604051602081830303815290604052805190602001201415611ce2576000805b878110156118c857600080600187815481106117ad577f4e487b7100000000000000000000000000000000000000000000000000000000600052603260045260246000fd5b9060005260206000200160009054906101000a900473ffffffffffffffffffffffffffffffffffffffff1673ffffffffffffffffffffffffffffffffffffffff1673ffffffffffffffffffffffffffffffffffffffff1681526020019081526020016000206000016040516020016118259190612a83565b60405160208183030381529060405280519060200120898281518110611874577f4e487b7100000000000000000000000000000000000000000000000000000000600052603260045260246000fd5b6020026020010151600001516040516020016118909190612a6c565b6040516020818303038152906040528051906020012014156118b557600191506118c8565b80806118c090612ee0565b915050611768565b5080611cdc576000806001868154811061190b577f4e487b7100000000000000000000000000000000000000000000000000000000600052603260045260246000fd5b9060005260206000200160009054906101000a900473ffffffffffffffffffffffffffffffffffffffff1673ffffffffffffffffffffffffffffffffffffffff1673ffffffffffffffffffffffffffffffffffffffff1681526020019081526020016000206040518060c001604052908160008201805461198b90612e7d565b80601f01602080910402602001604051908101604052809291908181526020018280546119b790612e7d565b8015611a045780601f106119d957610100808354040283529160200191611a04565b820191906000526020600020905b8154815290600101906020018083116119e757829003601f168201915b505050505081526020016001820154815260200160028201805480602002602001604051908101604052809291908181526020016000905b82821015611ae8578382906000526020600020018054611a5b90612e7d565b80601f0160208091040260200160405190810160405280929190818152602001828054611a8790612e7d565b8015611ad45780601f10611aa957610100808354040283529160200191611ad4565b820191906000526020600020905b815481529060010190602001808311611ab757829003601f168201915b505050505081526020019060010190611a3c565b50505050815260200160038201600780602002604051908101604052809291908260078015611b51576020028201916000905b82829054906101000a900460ff16151581526020019060010190602082600001049283019260010382029150808411611b1b5790505b5050505050815260200160048201805480602002602001604051908101604052809291908181526020016000905b82821015611c2b578382906000526020600020018054611b9e90612e7d565b80601f0160208091040260200160405190810160405280929190818152602001828054611bca90612e7d565b8015611c175780601f10611bec57610100808354040283529160200191611c17565b820191906000526020600020905b815481529060010190602001808311611bfa57829003601f168201915b505050505081526020019060010190611b7f565b5050505081526020016005820160009054906101000a900473ffffffffffffffffffffffffffffffffffffffff1673ffffffffffffffffffffffffffffffffffffffff1673ffffffffffffffffffffffffffffffffffffffff1681525050888881518110611cc2577f4e487b7100000000000000000000000000000000000000000000000000000000600052603260045260246000fd5b60200260200101819052508680611cd890612ee0565b9750505b50611cf5565b8080611ced90612ee0565b9150506116c7565b50508080611d0290612ee0565b91505061153e565b50508080611d1790612ee0565b9150506114ed565b5060008167ffffffffffffffff811115611d62577f4e487b7100000000000000000000000000000000000000000000000000000000600052604160045260246000fd5b604051908082528060200260200182016040528015611d9b57816020015b611d8861202d565b815260200190600190039081611d805790505b50905060005b82811015611e4157838181518110611de2577f4e487b7100000000000000000000000000000000000000000000000000000000600052603260045260246000fd5b6020026020010151828281518110611e23577f4e487b7100000000000000000000000000000000000000000000000000000000600052603260045260246000fd5b60200260200101819052508080611e3990612ee0565b915050611da1565b50809350505050919050565b60008060008373ffffffffffffffffffffffffffffffffffffffff1673ffffffffffffffffffffffffffffffffffffffff168152602001908152602001600020600101549050919050565b6060611ea382610656565b608001519050919050565b828054611eba90612e7d565b90600052602060002090601f016020900481019282611edc5760008555611f23565b82601f10611ef557805160ff1916838001178555611f23565b82800160010185558215611f23579182015b82811115611f22578251825591602001919060010190611f07565b5b509050611f30919061207f565b5090565b828054828255906000526020600020908101928215611f83579160200282015b82811115611f82578251829080519060200190611f72929190611eae565b5091602001919060010190611f54565b5b509050611f90919061209c565b5090565b826007601f0160209004810192821561201c5791602002820160005b83821115611fed57835183826101000a81548160ff0219169083151502179055509260200192600101602081600001049283019260010302611fb0565b801561201a5782816101000a81549060ff0219169055600101602081600001049283019260010302611fed565b505b509050612029919061207f565b5090565b6040518060c001604052806060815260200160008152602001606081526020016120556120c0565b815260200160608152602001600073ffffffffffffffffffffffffffffffffffffffff1681525090565b5b80821115612098576000816000905550600101612080565b5090565b5b808211156120bc57600081816120b391906120e2565b5060010161209d565b5090565b6040518060e00160405280600790602082028036833780820191505090505090565b5080546120ee90612e7d565b6000825580601f10612100575061211f565b601f01602090049060005260206000209081019061211e919061207f565b5b50565b600061213561213084612bfd565b612bd8565b9050808285602086028201111561214b57600080fd5b60005b8581101561217b57816121618882612286565b84526020840193506020830192505060018101905061214e565b5050509392505050565b600061219861219384612c23565b612bd8565b9050808382526020820190508260005b858110156121d857813585016121be888261229b565b8452602084019350602083019250506001810190506121a8565b5050509392505050565b60006121f56121f084612c4f565b612bd8565b90508281526020810184848401111561220d57600080fd5b612218848285612e3b565b509392505050565b60008135905061222f81612ff0565b92915050565b600082601f83011261224657600080fd5b6007612253848285612122565b91505092915050565b600082601f83011261226d57600080fd5b813561227d848260208601612185565b91505092915050565b60008135905061229581613007565b92915050565b600082601f8301126122ac57600080fd5b81356122bc8482602086016121e2565b91505092915050565b6000813590506122d48161301e565b92915050565b6000602082840312156122ec57600080fd5b60006122fa84828501612220565b91505092915050565b60008060006060848603121561231857600080fd5b600061232686828701612220565b9350506020612337868287016122c5565b925050604061234886828701612286565b9150509250925092565b60006020828403121561236457600080fd5b600082013567ffffffffffffffff81111561237e57600080fd5b61238a8482850161225c565b91505092915050565b6000602082840312156123a557600080fd5b600082013567ffffffffffffffff8111156123bf57600080fd5b6123cb8482850161229b565b91505092915050565b60008060008060008061018087890312156123ee57600080fd5b600087013567ffffffffffffffff81111561240857600080fd5b61241489828a0161229b565b965050602061242589828a016122c5565b955050604087013567ffffffffffffffff81111561244257600080fd5b61244e89828a0161225c565b945050606061245f89828a01612235565b93505061014087013567ffffffffffffffff81111561247d57600080fd5b61248989828a0161225c565b92505061016061249b89828a01612220565b9150509295509295509295565b6000602082840312156124ba57600080fd5b60006124c8848285016122c5565b91505092915050565b600080604083850312156124e457600080fd5b60006124f2858286016122c5565b925050602061250385828601612220565b9150509250929050565b60006125198383612721565b60208301905092915050565b600061253183836127be565b905092915050565b60006125458383612903565b905092915050565b61255681612df3565b82525050565b61256581612df3565b82525050565b61257481612cd4565b61257e8184612d27565b925061258982612c80565b8060005b838110156125ba5781516125a1878261250d565b96506125ac83612d00565b92505060018101905061258d565b505050505050565b60006125cd82612cdf565b6125d78185612d32565b9350836020820285016125e985612c8a565b8060005b8581101561262557848403895281516126068582612525565b945061261183612d0d565b925060208a019950506001810190506125ed565b50829750879550505050505092915050565b600061264282612cdf565b61264c8185612d43565b93508360208202850161265e85612c8a565b8060005b8581101561269a578484038952815161267b8582612525565b945061268683612d0d565b925060208a01995050600181019050612662565b50829750879550505050505092915050565b60006126b782612cea565b6126c18185612d54565b9350836020820285016126d385612c9a565b8060005b8581101561270f57848403895281516126f08582612539565b94506126fb83612d1a565b925060208a019950506001810190506126d7565b50829750879550505050505092915050565b61272a81612e05565b82525050565b61273981612e05565b82525050565b6000815461274c81612e7d565b6127568186612d65565b945060018216600081146127715760018114612782576127b5565b60ff198316865281860193506127b5565b61278b85612caa565b60005b838110156127ad5781548189015260018201915060208101905061278e565b838801955050505b50505092915050565b60006127c982612cf5565b6127d38185612d70565b93506127e3818560208601612e4a565b6127ec81612fb6565b840191505092915050565b600061280282612cf5565b61280c8185612d81565b935061281c818560208601612e4a565b61282581612fb6565b840191505092915050565b600061283b82612cf5565b6128458185612d92565b9350612855818560208601612e4a565b80840191505092915050565b6000815461286e81612e7d565b6128788186612d92565b9450600182166000811461289357600181146128a4576128d7565b60ff198316865281860193506128d7565b6128ad85612cbf565b60005b838110156128cf578154818901526001820191506020810190506128b0565b838801955050505b50505092915050565b60006128ed600f83612d81565b91506128f882612fc7565b602082019050919050565b600061018083016000830151848203600086015261292182826127be565b91505060208301516129366020860182612a37565b506040830151848203604086015261294e82826125c2565b9150506060830151612963606086018261256b565b50608083015184820361014086015261297c82826125c2565b91505060a083015161299261016086018261254d565b508091505092915050565b60006101808301600083015184820360008601526129bb82826127be565b91505060208301516129d06020860182612a37565b50604083015184820360408601526129e882826125c2565b91505060608301516129fd606086018261256b565b506080830151848203610140860152612a1682826125c2565b91505060a0830151612a2c61016086018261254d565b508091505092915050565b612a4081612e31565b82525050565b612a4f81612e31565b82525050565b6000612a61828461273f565b915081905092915050565b6000612a788284612830565b915081905092915050565b6000612a8f8284612861565b915081905092915050565b6000602082019050612aaf600083018461255c565b92915050565b6000604082019050612aca600083018561255c565b612ad76020830184612a46565b9392505050565b60006020820190508181036000830152612af88184612637565b905092915050565b60006020820190508181036000830152612b1a81846126ac565b905092915050565b6000602082019050612b376000830184612730565b92915050565b60006060820190508181036000830152612b5781866127f7565b9050612b666020830185612a46565b612b73604083018461255c565b949350505050565b60006020820190508181036000830152612b94816128e0565b9050919050565b60006020820190508181036000830152612bb5818461299d565b905092915050565b6000602082019050612bd26000830184612a46565b92915050565b6000612be2612bf3565b9050612bee8282612eaf565b919050565b6000604051905090565b600067ffffffffffffffff821115612c1857612c17612f87565b5b602082029050919050565b600067ffffffffffffffff821115612c3e57612c3d612f87565b5b602082029050602081019050919050565b600067ffffffffffffffff821115612c6a57612c69612f87565b5b612c7382612fb6565b9050602081019050919050565b6000819050919050565b6000819050602082019050919050565b6000819050602082019050919050565b60008190508160005260206000209050919050565b60008190508160005260206000209050919050565b600060079050919050565b600081519050919050565b600081519050919050565b600081519050919050565b6000602082019050919050565b6000602082019050919050565b6000602082019050919050565b600081905092915050565b600082825260208201905092915050565b600082825260208201905092915050565b600082825260208201905092915050565b600081905092915050565b600082825260208201905092915050565b600082825260208201905092915050565b600081905092915050565b6000612da882612e31565b9150612db383612e31565b9250827fffffffffffffffffffffffffffffffffffffffffffffffffffffffffffffffff03821115612de857612de7612f29565b5b828201905092915050565b6000612dfe82612e11565b9050919050565b60008115159050919050565b600073ffffffffffffffffffffffffffffffffffffffff82169050919050565b6000819050919050565b82818337600083830152505050565b60005b83811015612e68578082015181840152602081019050612e4d565b83811115612e77576000848401525b50505050565b60006002820490506001821680612e9557607f821691505b60208210811415612ea957612ea8612f58565b5b50919050565b612eb882612fb6565b810181811067ffffffffffffffff82111715612ed757612ed6612f87565b5b80604052505050565b6000612eeb82612e31565b91507fffffffffffffffffffffffffffffffffffffffffffffffffffffffffffffffff821415612f1e57612f1d612f29565b5b600182019050919050565b7f4e487b7100000000000000000000000000000000000000000000000000000000600052601160045260246000fd5b7f4e487b7100000000000000000000000000000000000000000000000000000000600052602260045260246000fd5b7f4e487b7100000000000000000000000000000000000000000000000000000000600052604160045260246000fd5b6000601f19601f8301169050919050565b7f5475746f72206e6f7420666f756e640000000000000000000000000000000000600082015250565b612ff981612df3565b811461300457600080fd5b50565b61301081612e05565b811461301b57600080fd5b50565b61302781612e31565b811461303257600080fd5b5056fea26469706673582212200a33141a7805687376c2d614063c9fc61d0a4bd707c79db968053835e2fa836364736f6c63430008020033",
  "immutableReferences": {},
  "source": "// SPDX-License-Identifier: MIT\r\n\r\npragma solidity ^0.8.2;\r\n\r\n/**\r\n * @title Tutor\r\n * @dev Stores the Tutors and handles certain interactions between students and tutors\r\n */\r\ncontract Tutor {\r\n\r\n    struct TutorPerson {\r\n        string name;\r\n        uint256 balance;\r\n        string[] classesTaught;\r\n        bool[7] daysAvailable; // True if available that day False if not\r\n        string[] currentStudents;\r\n        address wallet;\r\n    }\r\n\r\n    mapping(address => TutorPerson) public tutors;\r\n    address[] public tutorAddresses;\r\n\r\n    event Received(address from, uint256 amount);\r\n\r\n\r\n    function getCurrentStudents(string memory _name) public view returns (string[] memory) {\r\n        return getTutor(_name).currentStudents;\r\n    }\r\n\r\n    function receiveMoney(uint256 _amount, address _adr) public {\r\n        tutors[_adr].balance += _amount;\r\n        emit Received(msg.sender, _amount);\r\n    }\r\n\r\n    // Function to check if an address is in the tutorAddresses array\r\n    function isTutorAddress(address _address) public view returns (bool) {\r\n        for (uint i = 0; i < tutorAddresses.length; i++) {\r\n            if (tutorAddresses[i] == _address) {\r\n                return true;\r\n            }\r\n        }\r\n        return false;\r\n    }    \r\n\r\n    function isTutorName(string memory _name) public view returns (bool) {\r\n    for (uint i = 0; i < tutorAddresses.length; i++) {\r\n        if (keccak256(bytes(tutors[tutorAddresses[i]].name)) == keccak256(bytes(_name))) {\r\n            return true;\r\n        }\r\n    }\r\n    return false;\r\n}\r\n\r\n\r\n    function getTutor(string memory _name) public view returns (TutorPerson memory) {\r\n        for (uint i = 0; i < tutorAddresses.length; i++) {\r\n            if (keccak256(bytes(tutors[tutorAddresses[i]].name)) == keccak256(bytes(_name))) {\r\n                return tutors[tutorAddresses[i]];\r\n            }\r\n        }\r\n        revert(\"Tutor not found\");\r\n    }\r\n\r\n\r\n    function addOrUpdateTutor(string memory _name, uint256 _balance, string[] memory _classesTaught, bool[7] memory _daysAvailable, string[] memory _currentStudents, address _adr) public {\r\n        if (!isTutorAddress(_adr)) {\r\n            tutorAddresses.push(_adr);\r\n        }\r\n\r\n        tutors[_adr] = TutorPerson(_name, _balance, _classesTaught, _daysAvailable, _currentStudents, _adr);\r\n    }\r\n\r\n\r\n    function getBalance(address _adr) public view returns(uint256) {\r\n        return tutors[_adr].balance;\r\n    }    \r\n\r\n    // Day is the index of the day (0-indexed where 0 being monday and 6 being sunday)\r\n    function getAvailableTutors(uint256 _day) public view returns (TutorPerson[] memory) {\r\n        \r\n        uint numTutor = 0;\r\n        \r\n        for (uint i = 0; i < tutorAddresses.length; i++) {\r\n            if (tutors[tutorAddresses[i]].daysAvailable[_day]) {\r\n                numTutor += 1;\r\n            }\r\n        }\r\n\r\n        TutorPerson[] memory tutorList = new TutorPerson[](numTutor);\r\n        \r\n        for (uint i = 0; i < tutorAddresses.length; i++) {\r\n            if (tutors[tutorAddresses[i]].daysAvailable[_day]) {\r\n                tutorList[i] = tutors[tutorAddresses[i]];\r\n            }\r\n        }\r\n        return tutorList;\r\n    }\r\n\r\n\r\n\r\n      function getAvailableTutorsClass(string[] memory _classes) public view returns (TutorPerson[] memory) {\r\n        TutorPerson[] memory tempTutorList = new TutorPerson[](tutorAddresses.length);\r\n        uint count = 0;\r\n\r\n        for (uint i = 0; i < _classes.length; i++) {\r\n            string memory class = _classes[i];\r\n            for (uint j = 0; j < tutorAddresses.length; j++) {\r\n                string[] memory classes_taught = tutors[tutorAddresses[j]].classesTaught;\r\n                for (uint k = 0; k < classes_taught.length; k++) {\r\n                    if (keccak256(abi.encodePacked(classes_taught[k])) == keccak256(abi.encodePacked(class))) {\r\n                        // Add tutor to the temp array if not already added\r\n                        bool alreadyAdded = false;\r\n                        for (uint m = 0; m < count; m++) {\r\n                            if (keccak256(abi.encodePacked(tempTutorList[m].name)) == keccak256(abi.encodePacked(tutors[tutorAddresses[j]].name))) {\r\n                                alreadyAdded = true;\r\n                                break;\r\n                            }\r\n                        }\r\n                        if (!alreadyAdded) {\r\n                            tempTutorList[count] = tutors[tutorAddresses[j]];\r\n                            count++;\r\n                        }\r\n                        break;\r\n                    }\r\n                }\r\n            }\r\n        }\r\n\r\n        TutorPerson[] memory tutorList = new TutorPerson[](count);\r\n        for (uint i = 0; i < count; i++) {\r\n            tutorList[i] = tempTutorList[i];\r\n        }\r\n\r\n        return tutorList;\r\n    }\r\n\r\n     function updateTutorAvailability(address tutorAddress, uint day, bool availability) public {\r\n        tutors[tutorAddress].daysAvailable[day] = availability;\r\n    }\r\n\r\n\r\n}",
  "sourcePath": "C:\\Users\\berta\\Desktop\\Decentralized-Tutor\\contracts\\Tutor.sol",
  "compiler": {
    "name": "solc",
    "version": "0.8.2+commit.661d1103.Emscripten.clang"
  },
  "schemaVersion": "3.4.16",
  "updatedAt": "2024-06-18T12:54:10.344Z",
  "devdoc": {
    "details": "Stores the Tutors and handles certain interactions between students and tutors",
    "kind": "dev",
    "methods": {},
    "title": "Tutor",
    "version": 1
  },
  "userdoc": {
    "kind": "user",
    "methods": {},
    "version": 1
  }
}