{
  "contractName": "TutorSystem",
  "abi": [
    {
      "anonymous": false,
      "inputs": [
        {
          "indexed": false,
          "internalType": "bool",
          "name": "matchResult",
          "type": "bool"
        }
      ],
      "name": "Matched",
      "type": "event"
    },
    {
      "inputs": [
        {
          "internalType": "uint256",
          "name": "",
          "type": "uint256"
        }
      ],
      "name": "studentNames",
      "outputs": [
        {
          "internalType": "string",
          "name": "",
          "type": "string"
        }
      ],
      "stateMutability": "view",
      "type": "function",
      "constant": true
    },
    {
      "inputs": [
        {
          "internalType": "string",
          "name": "",
          "type": "string"
        }
      ],
      "name": "students",
      "outputs": [
        {
          "internalType": "string",
          "name": "name",
          "type": "string"
        },
        {
          "internalType": "uint256",
          "name": "balance",
          "type": "uint256"
        },
        {
          "internalType": "address",
          "name": "wallet",
          "type": "address"
        }
      ],
      "stateMutability": "view",
      "type": "function",
      "constant": true
    },
    {
      "inputs": [
        {
          "internalType": "uint256",
          "name": "",
          "type": "uint256"
        }
      ],
      "name": "tutorNames",
      "outputs": [
        {
          "internalType": "string",
          "name": "",
          "type": "string"
        }
      ],
      "stateMutability": "view",
      "type": "function",
      "constant": true
    },
    {
      "inputs": [
        {
          "internalType": "string",
          "name": "",
          "type": "string"
        }
      ],
      "name": "tutors",
      "outputs": [
        {
          "internalType": "string",
          "name": "name",
          "type": "string"
        },
        {
          "internalType": "uint256",
          "name": "balance",
          "type": "uint256"
        },
        {
          "internalType": "uint256",
          "name": "priceForClass",
          "type": "uint256"
        },
        {
          "internalType": "address",
          "name": "wallet",
          "type": "address"
        }
      ],
      "stateMutability": "view",
      "type": "function",
      "constant": true
    },
    {
      "inputs": [
        {
          "internalType": "string",
          "name": "_name",
          "type": "string"
        },
        {
          "internalType": "uint256",
          "name": "_balance",
          "type": "uint256"
        },
        {
          "internalType": "string[]",
          "name": "_classesTaught",
          "type": "string[]"
        },
        {
          "internalType": "bool[7]",
          "name": "_daysAvailable",
          "type": "bool[7]"
        },
        {
          "internalType": "string[]",
          "name": "_currentStudents",
          "type": "string[]"
        },
        {
          "internalType": "uint256",
          "name": "_price",
          "type": "uint256"
        },
        {
          "internalType": "address",
          "name": "_adr",
          "type": "address"
        }
      ],
      "name": "createTutor",
      "outputs": [],
      "stateMutability": "nonpayable",
      "type": "function"
    },
    {
      "inputs": [
        {
          "internalType": "string",
          "name": "_name",
          "type": "string"
        },
        {
          "internalType": "uint256",
          "name": "_balance",
          "type": "uint256"
        },
        {
          "internalType": "string[]",
          "name": "_classesTaught",
          "type": "string[]"
        },
        {
          "internalType": "bool[7]",
          "name": "_daysAvailable",
          "type": "bool[7]"
        },
        {
          "internalType": "string[]",
          "name": "_currentTutors",
          "type": "string[]"
        },
        {
          "internalType": "address",
          "name": "_adr",
          "type": "address"
        }
      ],
      "name": "createStudent",
      "outputs": [],
      "stateMutability": "nonpayable",
      "type": "function"
    },
    {
      "inputs": [
        {
          "internalType": "string",
          "name": "_name",
          "type": "string"
        },
        {
          "internalType": "uint256",
          "name": "_balance",
          "type": "uint256"
        }
      ],
      "name": "setTutorBalance",
      "outputs": [],
      "stateMutability": "nonpayable",
      "type": "function"
    },
    {
      "inputs": [
        {
          "internalType": "string",
          "name": "_name",
          "type": "string"
        },
        {
          "internalType": "string[]",
          "name": "_classesTaught",
          "type": "string[]"
        }
      ],
      "name": "setTutorClassesTaught",
      "outputs": [],
      "stateMutability": "nonpayable",
      "type": "function"
    },
    {
      "inputs": [
        {
          "internalType": "string",
          "name": "_name",
          "type": "string"
        },
        {
          "internalType": "bool[7]",
          "name": "_daysAvailable",
          "type": "bool[7]"
        }
      ],
      "name": "setTutorDaysAvailable",
      "outputs": [],
      "stateMutability": "nonpayable",
      "type": "function"
    },
    {
      "inputs": [
        {
          "internalType": "string",
          "name": "_name",
          "type": "string"
        },
        {
          "internalType": "uint256",
          "name": "_price",
          "type": "uint256"
        }
      ],
      "name": "setTutorPrice",
      "outputs": [],
      "stateMutability": "nonpayable",
      "type": "function"
    },
    {
      "inputs": [
        {
          "internalType": "string",
          "name": "_name",
          "type": "string"
        },
        {
          "internalType": "string[]",
          "name": "_currentStudents",
          "type": "string[]"
        }
      ],
      "name": "setTutorCurrentStudents",
      "outputs": [],
      "stateMutability": "nonpayable",
      "type": "function"
    },
    {
      "inputs": [
        {
          "internalType": "string",
          "name": "_name",
          "type": "string"
        },
        {
          "internalType": "uint256",
          "name": "_balance",
          "type": "uint256"
        }
      ],
      "name": "setStudentBalance",
      "outputs": [],
      "stateMutability": "nonpayable",
      "type": "function"
    },
    {
      "inputs": [
        {
          "internalType": "string",
          "name": "_name",
          "type": "string"
        },
        {
          "internalType": "string[]",
          "name": "_classesRequested",
          "type": "string[]"
        }
      ],
      "name": "setStudentClassesRequested",
      "outputs": [],
      "stateMutability": "nonpayable",
      "type": "function"
    },
    {
      "inputs": [
        {
          "internalType": "string",
          "name": "_name",
          "type": "string"
        },
        {
          "internalType": "bool[7]",
          "name": "_daysAvailable",
          "type": "bool[7]"
        }
      ],
      "name": "setStudentDaysAvailable",
      "outputs": [],
      "stateMutability": "nonpayable",
      "type": "function"
    },
    {
      "inputs": [
        {
          "internalType": "string",
          "name": "_name",
          "type": "string"
        },
        {
          "internalType": "string[]",
          "name": "_currentTutors",
          "type": "string[]"
        }
      ],
      "name": "setStudentCurrentTutors",
      "outputs": [],
      "stateMutability": "nonpayable",
      "type": "function"
    },
    {
      "inputs": [
        {
          "internalType": "string",
          "name": "_name",
          "type": "string"
        }
      ],
      "name": "getTutor",
      "outputs": [
        {
          "components": [
            {
              "internalType": "string",
              "name": "name",
              "type": "string"
            },
            {
              "internalType": "uint256",
              "name": "balance",
              "type": "uint256"
            },
            {
              "internalType": "string[]",
              "name": "classesTaught",
              "type": "string[]"
            },
            {
              "internalType": "bool[7]",
              "name": "daysAvailable",
              "type": "bool[7]"
            },
            {
              "internalType": "string[]",
              "name": "currentStudents",
              "type": "string[]"
            },
            {
              "internalType": "uint256",
              "name": "priceForClass",
              "type": "uint256"
            },
            {
              "internalType": "address",
              "name": "wallet",
              "type": "address"
            }
          ],
          "internalType": "struct TutorSystem.Tutor",
          "name": "",
          "type": "tuple"
        }
      ],
      "stateMutability": "view",
      "type": "function",
      "constant": true
    },
    {
      "inputs": [
        {
          "internalType": "string",
          "name": "_name",
          "type": "string"
        }
      ],
      "name": "getStudent",
      "outputs": [
        {
          "components": [
            {
              "internalType": "string",
              "name": "name",
              "type": "string"
            },
            {
              "internalType": "uint256",
              "name": "balance",
              "type": "uint256"
            },
            {
              "internalType": "string[]",
              "name": "classesRequested",
              "type": "string[]"
            },
            {
              "internalType": "bool[7]",
              "name": "daysAvailable",
              "type": "bool[7]"
            },
            {
              "internalType": "string[]",
              "name": "currentTutors",
              "type": "string[]"
            },
            {
              "internalType": "address",
              "name": "wallet",
              "type": "address"
            }
          ],
          "internalType": "struct TutorSystem.Student",
          "name": "",
          "type": "tuple"
        }
      ],
      "stateMutability": "view",
      "type": "function",
      "constant": true
    },
    {
      "inputs": [
        {
          "internalType": "string",
          "name": "_name",
          "type": "string"
        }
      ],
      "name": "getTutorBalance",
      "outputs": [
        {
          "internalType": "uint256",
          "name": "",
          "type": "uint256"
        }
      ],
      "stateMutability": "view",
      "type": "function",
      "constant": true
    },
    {
      "inputs": [
        {
          "internalType": "string",
          "name": "_name",
          "type": "string"
        }
      ],
      "name": "getTutorPrice",
      "outputs": [
        {
          "internalType": "uint256",
          "name": "",
          "type": "uint256"
        }
      ],
      "stateMutability": "view",
      "type": "function",
      "constant": true
    },
    {
      "inputs": [
        {
          "internalType": "string",
          "name": "_name",
          "type": "string"
        }
      ],
      "name": "getTutorClassesTaught",
      "outputs": [
        {
          "internalType": "string[]",
          "name": "",
          "type": "string[]"
        }
      ],
      "stateMutability": "view",
      "type": "function",
      "constant": true
    },
    {
      "inputs": [
        {
          "internalType": "string",
          "name": "_name",
          "type": "string"
        }
      ],
      "name": "getTutorDaysAvailable",
      "outputs": [
        {
          "internalType": "bool[7]",
          "name": "",
          "type": "bool[7]"
        }
      ],
      "stateMutability": "view",
      "type": "function",
      "constant": true
    },
    {
      "inputs": [
        {
          "internalType": "string",
          "name": "_name",
          "type": "string"
        }
      ],
      "name": "getTutorCurrentStudents",
      "outputs": [
        {
          "internalType": "string[]",
          "name": "",
          "type": "string[]"
        }
      ],
      "stateMutability": "view",
      "type": "function",
      "constant": true
    },
    {
      "inputs": [
        {
          "internalType": "string",
          "name": "_name",
          "type": "string"
        }
      ],
      "name": "getStudentBalance",
      "outputs": [
        {
          "internalType": "uint256",
          "name": "",
          "type": "uint256"
        }
      ],
      "stateMutability": "view",
      "type": "function",
      "constant": true
    },
    {
      "inputs": [
        {
          "internalType": "string",
          "name": "_name",
          "type": "string"
        }
      ],
      "name": "getStudentClassesRequested",
      "outputs": [
        {
          "internalType": "string[]",
          "name": "",
          "type": "string[]"
        }
      ],
      "stateMutability": "view",
      "type": "function",
      "constant": true
    },
    {
      "inputs": [
        {
          "internalType": "string",
          "name": "_name",
          "type": "string"
        }
      ],
      "name": "getStudentDaysAvailable",
      "outputs": [
        {
          "internalType": "bool[7]",
          "name": "",
          "type": "bool[7]"
        }
      ],
      "stateMutability": "view",
      "type": "function",
      "constant": true
    },
    {
      "inputs": [
        {
          "internalType": "string",
          "name": "_name",
          "type": "string"
        }
      ],
      "name": "getStudentCurrentTutors",
      "outputs": [
        {
          "internalType": "string[]",
          "name": "",
          "type": "string[]"
        }
      ],
      "stateMutability": "view",
      "type": "function",
      "constant": true
    },
    {
      "inputs": [],
      "name": "showAllStudents",
      "outputs": [
        {
          "components": [
            {
              "internalType": "string",
              "name": "name",
              "type": "string"
            },
            {
              "internalType": "uint256",
              "name": "balance",
              "type": "uint256"
            },
            {
              "internalType": "string[]",
              "name": "classesRequested",
              "type": "string[]"
            },
            {
              "internalType": "bool[7]",
              "name": "daysAvailable",
              "type": "bool[7]"
            },
            {
              "internalType": "string[]",
              "name": "currentTutors",
              "type": "string[]"
            },
            {
              "internalType": "address",
              "name": "wallet",
              "type": "address"
            }
          ],
          "internalType": "struct TutorSystem.Student[]",
          "name": "",
          "type": "tuple[]"
        }
      ],
      "stateMutability": "view",
      "type": "function",
      "constant": true
    },
    {
      "inputs": [
        {
          "internalType": "string",
          "name": "_name",
          "type": "string"
        }
      ],
      "name": "deleteStudent",
      "outputs": [],
      "stateMutability": "nonpayable",
      "type": "function"
    },
    {
      "inputs": [
        {
          "internalType": "string",
          "name": "_name",
          "type": "string"
        }
      ],
      "name": "deleteTutor",
      "outputs": [],
      "stateMutability": "nonpayable",
      "type": "function"
    },
    {
      "inputs": [
        {
          "internalType": "uint256",
          "name": "_dayIndex",
          "type": "uint256"
        }
      ],
      "name": "showTutorsOnDay",
      "outputs": [
        {
          "components": [
            {
              "internalType": "string",
              "name": "name",
              "type": "string"
            },
            {
              "internalType": "uint256",
              "name": "balance",
              "type": "uint256"
            },
            {
              "internalType": "string[]",
              "name": "classesTaught",
              "type": "string[]"
            },
            {
              "internalType": "bool[7]",
              "name": "daysAvailable",
              "type": "bool[7]"
            },
            {
              "internalType": "string[]",
              "name": "currentStudents",
              "type": "string[]"
            },
            {
              "internalType": "uint256",
              "name": "priceForClass",
              "type": "uint256"
            },
            {
              "internalType": "address",
              "name": "wallet",
              "type": "address"
            }
          ],
          "internalType": "struct TutorSystem.Tutor[]",
          "name": "",
          "type": "tuple[]"
        }
      ],
      "stateMutability": "view",
      "type": "function",
      "constant": true
    },
    {
      "inputs": [
        {
          "internalType": "string",
          "name": "_class",
          "type": "string"
        }
      ],
      "name": "showTutorsOnClass",
      "outputs": [
        {
          "components": [
            {
              "internalType": "string",
              "name": "name",
              "type": "string"
            },
            {
              "internalType": "uint256",
              "name": "balance",
              "type": "uint256"
            },
            {
              "internalType": "string[]",
              "name": "classesTaught",
              "type": "string[]"
            },
            {
              "internalType": "bool[7]",
              "name": "daysAvailable",
              "type": "bool[7]"
            },
            {
              "internalType": "string[]",
              "name": "currentStudents",
              "type": "string[]"
            },
            {
              "internalType": "uint256",
              "name": "priceForClass",
              "type": "uint256"
            },
            {
              "internalType": "address",
              "name": "wallet",
              "type": "address"
            }
          ],
          "internalType": "struct TutorSystem.Tutor[]",
          "name": "",
          "type": "tuple[]"
        }
      ],
      "stateMutability": "view",
      "type": "function",
      "constant": true
    },
    {
      "inputs": [
        {
          "internalType": "string",
          "name": "_studentName",
          "type": "string"
        },
        {
          "internalType": "string",
          "name": "_class",
          "type": "string"
        },
        {
          "internalType": "uint256",
          "name": "_dayIndex",
          "type": "uint256"
        },
        {
          "internalType": "string",
          "name": "_tutorName",
          "type": "string"
        }
      ],
      "name": "matchStudentTutor",
      "outputs": [
        {
          "internalType": "bool",
          "name": "",
          "type": "bool"
        }
      ],
      "stateMutability": "nonpayable",
      "type": "function"
    },
    {
      "inputs": [
        {
          "internalType": "string",
          "name": "_studentName",
          "type": "string"
        },
        {
          "internalType": "uint256",
          "name": "_dayIndex",
          "type": "uint256"
        },
        {
          "internalType": "string",
          "name": "_tutorName",
          "type": "string"
        }
      ],
      "name": "updateMatch",
      "outputs": [],
      "stateMutability": "nonpayable",
      "type": "function"
    },
    {
      "inputs": [
        {
          "internalType": "string",
          "name": "_studentName",
          "type": "string"
        },
        {
          "internalType": "string",
          "name": "_tutorName",
          "type": "string"
        }
      ],
      "name": "studentPayTutor",
      "outputs": [],
      "stateMutability": "nonpayable",
      "type": "function"
    }
  ],
  "bytecode": "0x608060405234801561001057600080fd5b5061496a806100206000396000f3fe608060405234801561001057600080fd5b50600436106102065760003560e01c806385ff8df11161011a578063b3eb7fa5116100ad578063d8b82d161161007c578063d8b82d161461067e578063e0614f351461069a578063e3035372146106b6578063ee43f9f0146106e6578063f29c17081461071657610206565b8063b3eb7fa5146105bc578063bdd38669146105ec578063c7ef6bfb1461061c578063d02966121461064e57610206565b806398603521116100e957806398603521146105105780639ac5cd0414610540578063a94b8a9a1461055c578063b153ceb41461058c57610206565b806385ff8df11461048c5780638732db87146104a85780638955895f146104d85780638fe42140146104f457610206565b806339a2bae51161019d5780635ad14a4e1161016c5780635ad14a4e146103ad57806368addd36146103dd5780637e5c51251461041057806381a487e5146104405780638349b96e1461047057610206565b806339a2bae5146103155780633cf0ec4f146103315780634067289d146103615780634e3846221461039157610206565b806321a3b201116101d957806321a3b2011461028f57806328cbded8146102bf57806331592759146102db5780633630a455146102f757610206565b80630589c9561461020b5780630b89370c1461022757806318d820b5146102435780631dffa5d01461025f575b600080fd5b610225600480360381019061022091906136f3565b610732565b005b610241600480360381019061023c9190613add565b610767565b005b61025d6004803603810190610258919061391f565b610869565b005b610279600480360381019061027491906136b2565b6109d1565b60405161028691906142b8565b60405180910390f35b6102a960048036038101906102a49190613820565b610a62565b6040516102b69190614339565b60405180910390f35b6102d960048036038101906102d49190613748565b610bd3565b005b6102f560048036038101906102f091906138cb565b610c0d565b005b6102ff610c37565b60405161030c91906142f5565b60405180910390f35b61032f600480360381019061032a9190613748565b6110a5565b005b61034b600480360381019061034691906136b2565b6110df565b60405161035891906142d3565b60405180910390f35b61037b600480360381019061037691906136b2565b6111d9565b6040516103889190614442565b60405180910390f35b6103ab60048036038101906103a691906137b4565b611529565b005b6103c760048036038101906103c291906136b2565b611663565b6040516103d491906142d3565b60405180910390f35b6103f760048036038101906103f291906136b2565b61175d565b60405161040794939291906143b4565b60405180910390f35b61042a600480360381019061042591906136b2565b61184b565b6040516104379190614464565b60405180910390f35b61045a600480360381019061045591906136b2565b611876565b6040516104679190614464565b60405180910390f35b61048a600480360381019061048591906138cb565b6118a1565b005b6104a660048036038101906104a191906139f3565b6118cb565b005b6104c260048036038101906104bd91906136b2565b611a44565b6040516104cf91906142b8565b60405180910390f35b6104f260048036038101906104ed91906136b2565b611ad5565b005b61050e600480360381019061050991906136f3565b611d2d565b005b61052a600480360381019061052591906136b2565b611d62565b6040516105379190614464565b60405180910390f35b61055a60048036038101906105559190613748565b611d8c565b005b61057660048036038101906105719190613b5c565b611dc6565b6040516105839190614317565b60405180910390f35b6105a660048036038101906105a191906136b2565b61220e565b6040516105b391906142d3565b60405180910390f35b6105d660048036038101906105d19190613b5c565b612308565b6040516105e39190614354565b60405180910390f35b61060660048036038101906106019190613b5c565b6123b4565b6040516106139190614354565b60405180910390f35b610636600480360381019061063191906136b2565b612460565b60405161064593929190614376565b60405180910390f35b610668600480360381019061066391906136b2565b612548565b6040516106759190614420565b60405180910390f35b610698600480360381019061069391906138cb565b61288e565b005b6106b460048036038101906106af9190613748565b6128b8565b005b6106d060048036038101906106cb91906136b2565b6128f2565b6040516106dd91906142d3565b60405180910390f35b61070060048036038101906106fb91906136b2565b6129ec565b60405161070d9190614317565b60405180910390f35b610730600480360381019061072b91906136b2565b612f16565b005b80600283604051610743919061428a565b9081526020016040518091039020600301906007610762929190613178565b505050565b60008084604051610778919061428a565b908152602001604051809103902060030183600781106107c1577f4e487b7100000000000000000000000000000000000000000000000000000000600052603260045260246000fd5b602091828204019190066101000a81548160ff02191690831515021790555060006002826040516107f2919061428a565b9081526020016040518091039020600301836007811061083b577f4e487b7100000000000000000000000000000000000000000000000000000000600052603260045260246000fd5b602091828204019190066101000a81548160ff0219169083151502179055506108648382611529565b505050565b6040518060c001604052808781526020018681526020018581526020018481526020018381526020018273ffffffffffffffffffffffffffffffffffffffff168152506000876040516108bc919061428a565b908152602001604051809103902060008201518160000190805190602001906108e6929190613211565b5060208201518160010155604082015181600201908051906020019061090d929190613297565b50606082015181600301906007610925929190613178565b506080820151816004019080519060200190610942929190613297565b5060a08201518160050160006101000a81548173ffffffffffffffffffffffffffffffffffffffff021916908373ffffffffffffffffffffffffffffffffffffffff1602179055509050506001869080600181540180825580915050600190039060005260206000200160009091909190915090805190602001906109c8929190613211565b50505050505050565b6109d96132f7565b6002826040516109e9919061428a565b9081526020016040518091039020600301600780602002604051908101604052809291908260078015610a56576020028201916000905b82829054906101000a900460ff16151581526020019060010190602082600001049283019260010382029150808411610a205790505b50505050509050919050565b600080610a6e83611663565b90506000610a7b846109d1565b9050808560078110610ab6577f4e487b7100000000000000000000000000000000000000000000000000000000600052603260045260246000fd5b602002015115610bc45760005b8251811015610bc25786604051602001610add919061428a565b60405160208183030381529060405280519060200120838281518110610b2c577f4e487b7100000000000000000000000000000000000000000000000000000000600052603260045260246000fd5b6020026020010151604051602001610b44919061428a565b604051602081830303815290604052805190602001201415610baf57610b6b888787610767565b7f8f297781e19a46deea31d796a5e07b38165804001135ec7fde3f2a6da1f09fc36001604051610b9b9190614339565b60405180910390a160019350505050610bcb565b8080610bba906147df565b915050610ac3565b505b6000925050505b949350505050565b80600083604051610be4919061428a565b90815260200160405180910390206002019080519060200190610c08929190613297565b505050565b80600283604051610c1e919061428a565b9081526020016040518091039020600501819055505050565b6060600060018054905067ffffffffffffffff811115610c80577f4e487b7100000000000000000000000000000000000000000000000000000000600052604160045260246000fd5b604051908082528060200260200182016040528015610cb957816020015b610ca6613319565b815260200190600190039081610c9e5790505b50905060005b60018054905081101561109d57600060018281548110610d08577f4e487b7100000000000000000000000000000000000000000000000000000000600052603260045260246000fd5b90600052602060002001604051610d1f91906142a1565b90815260200160405180910390206040518060c0016040529081600082018054610d489061477c565b80601f0160208091040260200160405190810160405280929190818152602001828054610d749061477c565b8015610dc15780601f10610d9657610100808354040283529160200191610dc1565b820191906000526020600020905b815481529060010190602001808311610da457829003601f168201915b505050505081526020016001820154815260200160028201805480602002602001604051908101604052809291908181526020016000905b82821015610ea5578382906000526020600020018054610e189061477c565b80601f0160208091040260200160405190810160405280929190818152602001828054610e449061477c565b8015610e915780601f10610e6657610100808354040283529160200191610e91565b820191906000526020600020905b815481529060010190602001808311610e7457829003601f168201915b505050505081526020019060010190610df9565b50505050815260200160038201600780602002604051908101604052809291908260078015610f0e576020028201916000905b82829054906101000a900460ff16151581526020019060010190602082600001049283019260010382029150808411610ed85790505b5050505050815260200160048201805480602002602001604051908101604052809291908181526020016000905b82821015610fe8578382906000526020600020018054610f5b9061477c565b80601f0160208091040260200160405190810160405280929190818152602001828054610f879061477c565b8015610fd45780601f10610fa957610100808354040283529160200191610fd4565b820191906000526020600020905b815481529060010190602001808311610fb757829003601f168201915b505050505081526020019060010190610f3c565b5050505081526020016005820160009054906101000a900473ffffffffffffffffffffffffffffffffffffffff1673ffffffffffffffffffffffffffffffffffffffff1673ffffffffffffffffffffffffffffffffffffffff168152505082828151811061107f577f4e487b7100000000000000000000000000000000000000000000000000000000600052603260045260246000fd5b60200260200101819052508080611095906147df565b915050610cbf565b508091505090565b806000836040516110b6919061428a565b908152602001604051809103902060040190805190602001906110da929190613297565b505050565b60606000826040516110f1919061428a565b9081526020016040518091039020600201805480602002602001604051908101604052809291908181526020016000905b828210156111ce5783829060005260206000200180546111419061477c565b80601f016020809104026020016040519081016040528092919081815260200182805461116d9061477c565b80156111ba5780601f1061118f576101008083540402835291602001916111ba565b820191906000526020600020905b81548152906001019060200180831161119d57829003601f168201915b505050505081526020019060010190611122565b505050509050919050565b6111e161336b565b6002826040516111f1919061428a565b90815260200160405180910390206040518060e001604052908160008201805461121a9061477c565b80601f01602080910402602001604051908101604052809291908181526020018280546112469061477c565b80156112935780601f1061126857610100808354040283529160200191611293565b820191906000526020600020905b81548152906001019060200180831161127657829003601f168201915b505050505081526020016001820154815260200160028201805480602002602001604051908101604052809291908181526020016000905b828210156113775783829060005260206000200180546112ea9061477c565b80601f01602080910402602001604051908101604052809291908181526020018280546113169061477c565b80156113635780601f1061133857610100808354040283529160200191611363565b820191906000526020600020905b81548152906001019060200180831161134657829003601f168201915b5050505050815260200190600101906112cb565b505050508152602001600382016007806020026040519081016040528092919082600780156113e0576020028201916000905b82829054906101000a900460ff161515815260200190600101906020826000010492830192600103820291508084116113aa5790505b5050505050815260200160048201805480602002602001604051908101604052809291908181526020016000905b828210156114ba57838290600052602060002001805461142d9061477c565b80601f01602080910402602001604051908101604052809291908181526020018280546114599061477c565b80156114a65780601f1061147b576101008083540402835291602001916114a6565b820191906000526020600020905b81548152906001019060200180831161148957829003601f168201915b50505050508152602001906001019061140e565b505050508152602001600582015481526020016006820160009054906101000a900473ffffffffffffffffffffffffffffffffffffffff1673ffffffffffffffffffffffffffffffffffffffff1673ffffffffffffffffffffffffffffffffffffffff16815250509050919050565b600082604051611539919061428a565b90815260200160405180910390206001015460028260405161155b919061428a565b908152602001604051809103902060050154106115ad576040517f08c379a00000000000000000000000000000000000000000000000000000000081526004016115a490614400565b60405180910390fd5b6002816040516115bd919061428a565b9081526020016040518091039020600501546000836040516115df919061428a565b908152602001604051809103902060010160008282546115ff91906146be565b92505081905550600281604051611616919061428a565b908152602001604051809103902060050154600282604051611638919061428a565b908152602001604051809103902060010160008282546116589190614668565b925050819055505050565b6060600282604051611675919061428a565b9081526020016040518091039020600201805480602002602001604051908101604052809291908181526020016000905b828210156117525783829060005260206000200180546116c59061477c565b80601f01602080910402602001604051908101604052809291908181526020018280546116f19061477c565b801561173e5780601f106117135761010080835404028352916020019161173e565b820191906000526020600020905b81548152906001019060200180831161172157829003601f168201915b5050505050815260200190600101906116a6565b505050509050919050565b6002818051602081018201805184825260208301602085012081835280955050505050506000915090508060000180546117969061477c565b80601f01602080910402602001604051908101604052809291908181526020018280546117c29061477c565b801561180f5780601f106117e45761010080835404028352916020019161180f565b820191906000526020600020905b8154815290600101906020018083116117f257829003601f168201915b5050505050908060010154908060050154908060060160009054906101000a900473ffffffffffffffffffffffffffffffffffffffff16905084565b600060028260405161185d919061428a565b9081526020016040518091039020600101549050919050565b6000600282604051611888919061428a565b9081526020016040518091039020600501549050919050565b806002836040516118b2919061428a565b9081526020016040518091039020600101819055505050565b6040518060e001604052808881526020018781526020018681526020018581526020018481526020018381526020018273ffffffffffffffffffffffffffffffffffffffff16815250600288604051611924919061428a565b9081526020016040518091039020600082015181600001908051906020019061194e929190613211565b50602082015181600101556040820151816002019080519060200190611975929190613297565b5060608201518160030190600761198d929190613178565b5060808201518160040190805190602001906119aa929190613297565b5060a0820151816005015560c08201518160060160006101000a81548173ffffffffffffffffffffffffffffffffffffffff021916908373ffffffffffffffffffffffffffffffffffffffff160217905550905050600387908060018154018082558091505060019003906000526020600020016000909190919091509080519060200190611a3a929190613211565b5050505050505050565b611a4c6132f7565b600082604051611a5c919061428a565b9081526020016040518091039020600301600780602002604051908101604052809291908260078015611ac9576020028201916000905b82829054906101000a900460ff16151581526020019060010190602082600001049283019260010382029150808411611a935790505b50505050509050919050565b600081604051611ae5919061428a565b908152602001604051809103902060008082016000611b0491906133c4565b6001820160009055600282016000611b1c9190613404565b600382016000611b2c9190613425565b600482016000611b3c9190613404565b6005820160006101000a81549073ffffffffffffffffffffffffffffffffffffffff0219169055505060005b600180549050811015611d295781604051602001611b86919061428a565b6040516020818303038152906040528051906020012060018281548110611bd6577f4e487b7100000000000000000000000000000000000000000000000000000000600052603260045260246000fd5b90600052602060002001604051602001611bf091906142a1565b604051602081830303815290604052805190602001201415611d16576001808080549050611c1e91906146be565b81548110611c55577f4e487b7100000000000000000000000000000000000000000000000000000000600052603260045260246000fd5b9060005260206000200160018281548110611c99577f4e487b7100000000000000000000000000000000000000000000000000000000600052603260045260246000fd5b90600052602060002001908054611caf9061477c565b611cba92919061342c565b506001805480611cf3577f4e487b7100000000000000000000000000000000000000000000000000000000600052603160045260246000fd5b600190038181906000526020600020016000611d0f91906133c4565b9055611d29565b8080611d21906147df565b915050611b68565b5050565b80600083604051611d3e919061428a565b9081526020016040518091039020600301906007611d5d929190613178565b505050565b60008082604051611d73919061428a565b9081526020016040518091039020600101549050919050565b80600283604051611d9d919061428a565b90815260200160405180910390206004019080519060200190611dc1929190613297565b505050565b60606000805b600380549050811015611f19576000611eb060038381548110611e18577f4e487b7100000000000000000000000000000000000000000000000000000000600052603260045260246000fd5b906000526020600020018054611e2d9061477c565b80601f0160208091040260200160405190810160405280929190818152602001828054611e599061477c565b8015611ea65780601f10611e7b57610100808354040283529160200191611ea6565b820191906000526020600020905b815481529060010190602001808311611e8957829003601f168201915b50505050506109d1565b9050808560078110611eeb577f4e487b7100000000000000000000000000000000000000000000000000000000600052603260045260246000fd5b602002015115611f0557600183611f029190614668565b92505b508080611f11906147df565b915050611dcc565b5060008167ffffffffffffffff811115611f5c577f4e487b7100000000000000000000000000000000000000000000000000000000600052604160045260246000fd5b604051908082528060200260200182016040528015611f9557816020015b611f8261336b565b815260200190600190039081611f7a5790505b5090506000805b60038054905081101561220257600061208060038381548110611fe8577f4e487b7100000000000000000000000000000000000000000000000000000000600052603260045260246000fd5b906000526020600020018054611ffd9061477c565b80601f01602080910402602001604051908101604052809291908181526020018280546120299061477c565b80156120765780601f1061204b57610100808354040283529160200191612076565b820191906000526020600020905b81548152906001019060200180831161205957829003601f168201915b50505050506109d1565b90508087600781106120bb577f4e487b7100000000000000000000000000000000000000000000000000000000600052603260045260246000fd5b6020020151156121ee5761219a60038381548110612102577f4e487b7100000000000000000000000000000000000000000000000000000000600052603260045260246000fd5b9060005260206000200180546121179061477c565b80601f01602080910402602001604051908101604052809291908181526020018280546121439061477c565b80156121905780601f1061216557610100808354040283529160200191612190565b820191906000526020600020905b81548152906001019060200180831161217357829003601f168201915b50505050506111d9565b8484815181106121d3577f4e487b7100000000000000000000000000000000000000000000000000000000600052603260045260246000fd5b60200260200101819052506001836121eb9190614668565b92505b5080806121fa906147df565b915050611f9c565b50819350505050919050565b6060600282604051612220919061428a565b9081526020016040518091039020600401805480602002602001604051908101604052809291908181526020016000905b828210156122fd5783829060005260206000200180546122709061477c565b80601f016020809104026020016040519081016040528092919081815260200182805461229c9061477c565b80156122e95780601f106122be576101008083540402835291602001916122e9565b820191906000526020600020905b8154815290600101906020018083116122cc57829003601f168201915b505050505081526020019060010190612251565b505050509050919050565b6001818154811061231857600080fd5b9060005260206000200160009150905080546123339061477c565b80601f016020809104026020016040519081016040528092919081815260200182805461235f9061477c565b80156123ac5780601f10612381576101008083540402835291602001916123ac565b820191906000526020600020905b81548152906001019060200180831161238f57829003601f168201915b505050505081565b600381815481106123c457600080fd5b9060005260206000200160009150905080546123df9061477c565b80601f016020809104026020016040519081016040528092919081815260200182805461240b9061477c565b80156124585780601f1061242d57610100808354040283529160200191612458565b820191906000526020600020905b81548152906001019060200180831161243b57829003601f168201915b505050505081565b6000818051602081018201805184825260208301602085012081835280955050505050506000915090508060000180546124999061477c565b80601f01602080910402602001604051908101604052809291908181526020018280546124c59061477c565b80156125125780601f106124e757610100808354040283529160200191612512565b820191906000526020600020905b8154815290600101906020018083116124f557829003601f168201915b5050505050908060010154908060050160009054906101000a900473ffffffffffffffffffffffffffffffffffffffff16905083565b612550613319565b600082604051612560919061428a565b90815260200160405180910390206040518060c00160405290816000820180546125899061477c565b80601f01602080910402602001604051908101604052809291908181526020018280546125b59061477c565b80156126025780601f106125d757610100808354040283529160200191612602565b820191906000526020600020905b8154815290600101906020018083116125e557829003601f168201915b505050505081526020016001820154815260200160028201805480602002602001604051908101604052809291908181526020016000905b828210156126e65783829060005260206000200180546126599061477c565b80601f01602080910402602001604051908101604052809291908181526020018280546126859061477c565b80156126d25780601f106126a7576101008083540402835291602001916126d2565b820191906000526020600020905b8154815290600101906020018083116126b557829003601f168201915b50505050508152602001906001019061263a565b5050505081526020016003820160078060200260405190810160405280929190826007801561274f576020028201916000905b82829054906101000a900460ff161515815260200190600101906020826000010492830192600103820291508084116127195790505b5050505050815260200160048201805480602002602001604051908101604052809291908181526020016000905b8282101561282957838290600052602060002001805461279c9061477c565b80601f01602080910402602001604051908101604052809291908181526020018280546127c89061477c565b80156128155780601f106127ea57610100808354040283529160200191612815565b820191906000526020600020905b8154815290600101906020018083116127f857829003601f168201915b50505050508152602001906001019061277d565b5050505081526020016005820160009054906101000a900473ffffffffffffffffffffffffffffffffffffffff1673ffffffffffffffffffffffffffffffffffffffff1673ffffffffffffffffffffffffffffffffffffffff16815250509050919050565b8060008360405161289f919061428a565b9081526020016040518091039020600101819055505050565b806002836040516128c9919061428a565b908152602001604051809103902060020190805190602001906128ed929190613297565b505050565b6060600082604051612904919061428a565b9081526020016040518091039020600401805480602002602001604051908101604052809291908181526020016000905b828210156129e15783829060005260206000200180546129549061477c565b80601f01602080910402602001604051908101604052809291908181526020018280546129809061477c565b80156129cd5780601f106129a2576101008083540402835291602001916129cd565b820191906000526020600020905b8154815290600101906020018083116129b057829003601f168201915b505050505081526020019060010190612935565b505050509050919050565b60606000805b600380549050811015612bb0576000612ad660038381548110612a3e577f4e487b7100000000000000000000000000000000000000000000000000000000600052603260045260246000fd5b906000526020600020018054612a539061477c565b80601f0160208091040260200160405190810160405280929190818152602001828054612a7f9061477c565b8015612acc5780601f10612aa157610100808354040283529160200191612acc565b820191906000526020600020905b815481529060010190602001808311612aaf57829003601f168201915b5050505050611663565b905060005b8151811015612b9b5785604051602001612af5919061428a565b60405160208183030381529060405280519060200120828281518110612b44577f4e487b7100000000000000000000000000000000000000000000000000000000600052603260045260246000fd5b6020026020010151604051602001612b5c919061428a565b604051602081830303815290604052805190602001201415612b8857600184612b859190614668565b93505b8080612b93906147df565b915050612adb565b50508080612ba8906147df565b9150506129f2565b5060008167ffffffffffffffff811115612bf3577f4e487b7100000000000000000000000000000000000000000000000000000000600052604160045260246000fd5b604051908082528060200260200182016040528015612c2c57816020015b612c1961336b565b815260200190600190039081612c115790505b5090506000805b600380549050811015612f0a576000612d1760038381548110612c7f577f4e487b7100000000000000000000000000000000000000000000000000000000600052603260045260246000fd5b906000526020600020018054612c949061477c565b80601f0160208091040260200160405190810160405280929190818152602001828054612cc09061477c565b8015612d0d5780601f10612ce257610100808354040283529160200191612d0d565b820191906000526020600020905b815481529060010190602001808311612cf057829003601f168201915b5050505050611663565b905060005b8151811015612ef55787604051602001612d36919061428a565b60405160208183030381529060405280519060200120828281518110612d85577f4e487b7100000000000000000000000000000000000000000000000000000000600052603260045260246000fd5b6020026020010151604051602001612d9d919061428a565b604051602081830303815290604052805190602001201415612ee257612e8e60038481548110612df6577f4e487b7100000000000000000000000000000000000000000000000000000000600052603260045260246000fd5b906000526020600020018054612e0b9061477c565b80601f0160208091040260200160405190810160405280929190818152602001828054612e379061477c565b8015612e845780601f10612e5957610100808354040283529160200191612e84565b820191906000526020600020905b815481529060010190602001808311612e6757829003601f168201915b50505050506111d9565b858581518110612ec7577f4e487b7100000000000000000000000000000000000000000000000000000000600052603260045260246000fd5b6020026020010181905250600184612edf9190614668565b93505b8080612eed906147df565b915050612d1c565b50508080612f02906147df565b915050612c33565b50819350505050919050565b600281604051612f26919061428a565b908152602001604051809103902060008082016000612f4591906133c4565b6001820160009055600282016000612f5d9190613404565b600382016000612f6d9190613425565b600482016000612f7d9190613404565b60058201600090556006820160006101000a81549073ffffffffffffffffffffffffffffffffffffffff0219169055505060005b6003805490508110156131745781604051602001612fcf919061428a565b604051602081830303815290604052805190602001206003828154811061301f577f4e487b7100000000000000000000000000000000000000000000000000000000600052603260045260246000fd5b9060005260206000200160405160200161303991906142a1565b604051602081830303815290604052805190602001201415613161576003600160038054905061306991906146be565b815481106130a0577f4e487b7100000000000000000000000000000000000000000000000000000000600052603260045260246000fd5b90600052602060002001600382815481106130e4577f4e487b7100000000000000000000000000000000000000000000000000000000600052603260045260246000fd5b906000526020600020019080546130fa9061477c565b61310592919061342c565b50600380548061313e577f4e487b7100000000000000000000000000000000000000000000000000000000600052603160045260246000fd5b60019003818190600052602060002001600061315a91906133c4565b9055613174565b808061316c906147df565b915050612fb1565b5050565b826007601f016020900481019282156132005791602002820160005b838211156131d157835183826101000a81548160ff0219169083151502179055509260200192600101602081600001049283019260010302613194565b80156131fe5782816101000a81549060ff02191690556001016020816000010492830192600103026131d1565b505b50905061320d91906134b9565b5090565b82805461321d9061477c565b90600052602060002090601f01602090048101928261323f5760008555613286565b82601f1061325857805160ff1916838001178555613286565b82800160010185558215613286579182015b8281111561328557825182559160200191906001019061326a565b5b50905061329391906134b9565b5090565b8280548282559060005260206000209081019282156132e6579160200282015b828111156132e55782518290805190602001906132d5929190613211565b50916020019190600101906132b7565b5b5090506132f391906134d6565b5090565b6040518060e00160405280600790602082028036833780820191505090505090565b6040518060c001604052806060815260200160008152602001606081526020016133416132f7565b815260200160608152602001600073ffffffffffffffffffffffffffffffffffffffff1681525090565b6040518060e001604052806060815260200160008152602001606081526020016133936132f7565b81526020016060815260200160008152602001600073ffffffffffffffffffffffffffffffffffffffff1681525090565b5080546133d09061477c565b6000825580601f106133e25750613401565b601f01602090049060005260206000209081019061340091906134b9565b5b50565b508054600082559060005260206000209081019061342291906134d6565b50565b5060009055565b8280546134389061477c565b90600052602060002090601f01602090048101928261345a57600085556134a8565b82601f1061346b57805485556134a8565b828001600101855582156134a857600052602060002091601f016020900482015b828111156134a757825482559160010191906001019061348c565b5b5090506134b591906134b9565b5090565b5b808211156134d25760008160009055506001016134ba565b5090565b5b808211156134f657600081816134ed91906133c4565b506001016134d7565b5090565b600061350d613508846144a4565b61447f565b9050808285602086028201111561352357600080fd5b60005b858110156135535781613539888261365e565b845260208401935060208301925050600181019050613526565b5050509392505050565b600061357061356b846144ca565b61447f565b9050808382526020820190508260005b858110156135b057813585016135968882613673565b845260208401935060208301925050600181019050613580565b5050509392505050565b60006135cd6135c8846144f6565b61447f565b9050828152602081018484840111156135e557600080fd5b6135f084828561473a565b509392505050565b600081359050613607816148ef565b92915050565b600082601f83011261361e57600080fd5b600761362b8482856134fa565b91505092915050565b600082601f83011261364557600080fd5b813561365584826020860161355d565b91505092915050565b60008135905061366d81614906565b92915050565b600082601f83011261368457600080fd5b81356136948482602086016135ba565b91505092915050565b6000813590506136ac8161491d565b92915050565b6000602082840312156136c457600080fd5b600082013567ffffffffffffffff8111156136de57600080fd5b6136ea84828501613673565b91505092915050565b600080610100838503121561370757600080fd5b600083013567ffffffffffffffff81111561372157600080fd5b61372d85828601613673565b925050602061373e8582860161360d565b9150509250929050565b6000806040838503121561375b57600080fd5b600083013567ffffffffffffffff81111561377557600080fd5b61378185828601613673565b925050602083013567ffffffffffffffff81111561379e57600080fd5b6137aa85828601613634565b9150509250929050565b600080604083850312156137c757600080fd5b600083013567ffffffffffffffff8111156137e157600080fd5b6137ed85828601613673565b925050602083013567ffffffffffffffff81111561380a57600080fd5b61381685828601613673565b9150509250929050565b6000806000806080858703121561383657600080fd5b600085013567ffffffffffffffff81111561385057600080fd5b61385c87828801613673565b945050602085013567ffffffffffffffff81111561387957600080fd5b61388587828801613673565b93505060406138968782880161369d565b925050606085013567ffffffffffffffff8111156138b357600080fd5b6138bf87828801613673565b91505092959194509250565b600080604083850312156138de57600080fd5b600083013567ffffffffffffffff8111156138f857600080fd5b61390485828601613673565b92505060206139158582860161369d565b9150509250929050565b600080600080600080610180878903121561393957600080fd5b600087013567ffffffffffffffff81111561395357600080fd5b61395f89828a01613673565b965050602061397089828a0161369d565b955050604087013567ffffffffffffffff81111561398d57600080fd5b61399989828a01613634565b94505060606139aa89828a0161360d565b93505061014087013567ffffffffffffffff8111156139c857600080fd5b6139d489828a01613634565b9250506101606139e689828a016135f8565b9150509295509295509295565b60008060008060008060006101a0888a031215613a0f57600080fd5b600088013567ffffffffffffffff811115613a2957600080fd5b613a358a828b01613673565b9750506020613a468a828b0161369d565b965050604088013567ffffffffffffffff811115613a6357600080fd5b613a6f8a828b01613634565b9550506060613a808a828b0161360d565b94505061014088013567ffffffffffffffff811115613a9e57600080fd5b613aaa8a828b01613634565b935050610160613abc8a828b0161369d565b925050610180613ace8a828b016135f8565b91505092959891949750929550565b600080600060608486031215613af257600080fd5b600084013567ffffffffffffffff811115613b0c57600080fd5b613b1886828701613673565b9350506020613b298682870161369d565b925050604084013567ffffffffffffffff811115613b4657600080fd5b613b5286828701613673565b9150509250925092565b600060208284031215613b6e57600080fd5b6000613b7c8482850161369d565b91505092915050565b6000613b918383613e79565b60208301905092915050565b6000613ba98383613e97565b905092915050565b6000613bbd8383613fdc565b905092915050565b6000613bd18383614110565b905092915050565b613be2816146f2565b82525050565b613bf1816146f2565b82525050565b613c0081614576565b613c0a81846145e1565b9250613c1582614527565b8060005b83811015613c46578151613c2d8782613b85565b9650613c38836145ad565b925050600181019050613c19565b505050505050565b613c5781614576565b613c6181846145ec565b9250613c6c82614527565b8060005b83811015613c9d578151613c848782613b85565b9650613c8f836145ad565b925050600181019050613c70565b505050505050565b6000613cb082614581565b613cba81856145f7565b935083602082028501613ccc85614531565b8060005b85811015613d085784840389528151613ce98582613b9d565b9450613cf4836145ba565b925060208a01995050600181019050613cd0565b50829750879550505050505092915050565b6000613d2582614581565b613d2f8185614608565b935083602082028501613d4185614531565b8060005b85811015613d7d5784840389528151613d5e8582613b9d565b9450613d69836145ba565b925060208a01995050600181019050613d45565b50829750879550505050505092915050565b6000613d9a8261458c565b613da48185614619565b935083602082028501613db685614541565b8060005b85811015613df25784840389528151613dd38582613bb1565b9450613dde836145c7565b925060208a01995050600181019050613dba565b50829750879550505050505092915050565b6000613e0f82614597565b613e19818561462a565b935083602082028501613e2b85614551565b8060005b85811015613e675784840389528151613e488582613bc5565b9450613e53836145d4565b925060208a01995050600181019050613e2f565b50829750879550505050505092915050565b613e8281614704565b82525050565b613e9181614704565b82525050565b6000613ea2826145a2565b613eac818561463b565b9350613ebc818560208601614749565b613ec5816148b5565b840191505092915050565b6000613edb826145a2565b613ee5818561464c565b9350613ef5818560208601614749565b613efe816148b5565b840191505092915050565b6000613f14826145a2565b613f1e818561465d565b9350613f2e818560208601614749565b80840191505092915050565b60008154613f478161477c565b613f51818661465d565b94506001821660008114613f6c5760018114613f7d57613fb0565b60ff19831686528186019350613fb0565b613f8685614561565b60005b83811015613fa857815481890152600182019150602081019050613f89565b838801955050505b50505092915050565b6000613fc660208361464c565b9150613fd1826148c6565b602082019050919050565b6000610180830160008301518482036000860152613ffa8282613e97565b915050602083015161400f602086018261426c565b50604083015184820360408601526140278282613ca5565b915050606083015161403c6060860182613bf7565b5060808301518482036101408601526140558282613ca5565b91505060a083015161406b610160860182613bd9565b508091505092915050565b60006101808301600083015184820360008601526140948282613e97565b91505060208301516140a9602086018261426c565b50604083015184820360408601526140c18282613ca5565b91505060608301516140d66060860182613bf7565b5060808301518482036101408601526140ef8282613ca5565b91505060a0830151614105610160860182613bd9565b508091505092915050565b60006101a083016000830151848203600086015261412e8282613e97565b9150506020830151614143602086018261426c565b506040830151848203604086015261415b8282613ca5565b91505060608301516141706060860182613bf7565b5060808301518482036101408601526141898282613ca5565b91505060a083015161419f61016086018261426c565b5060c08301516141b3610180860182613bd9565b508091505092915050565b60006101a08301600083015184820360008601526141dc8282613e97565b91505060208301516141f1602086018261426c565b50604083015184820360408601526142098282613ca5565b915050606083015161421e6060860182613bf7565b5060808301518482036101408601526142378282613ca5565b91505060a083015161424d61016086018261426c565b5060c0830151614261610180860182613bd9565b508091505092915050565b61427581614730565b82525050565b61428481614730565b82525050565b60006142968284613f09565b915081905092915050565b60006142ad8284613f3a565b915081905092915050565b600060e0820190506142cd6000830184613c4e565b92915050565b600060208201905081810360008301526142ed8184613d1a565b905092915050565b6000602082019050818103600083015261430f8184613d8f565b905092915050565b600060208201905081810360008301526143318184613e04565b905092915050565b600060208201905061434e6000830184613e88565b92915050565b6000602082019050818103600083015261436e8184613ed0565b905092915050565b600060608201905081810360008301526143908186613ed0565b905061439f602083018561427b565b6143ac6040830184613be8565b949350505050565b600060808201905081810360008301526143ce8187613ed0565b90506143dd602083018661427b565b6143ea604083018561427b565b6143f76060830184613be8565b95945050505050565b6000602082019050818103600083015261441981613fb9565b9050919050565b6000602082019050818103600083015261443a8184614076565b905092915050565b6000602082019050818103600083015261445c81846141be565b905092915050565b6000602082019050614479600083018461427b565b92915050565b600061448961449a565b905061449582826147ae565b919050565b6000604051905090565b600067ffffffffffffffff8211156144bf576144be614886565b5b602082029050919050565b600067ffffffffffffffff8211156144e5576144e4614886565b5b602082029050602081019050919050565b600067ffffffffffffffff82111561451157614510614886565b5b61451a826148b5565b9050602081019050919050565b6000819050919050565b6000819050602082019050919050565b6000819050602082019050919050565b6000819050602082019050919050565b60008190508160005260206000209050919050565b600060079050919050565b600081519050919050565b600081519050919050565b600081519050919050565b600081519050919050565b6000602082019050919050565b6000602082019050919050565b6000602082019050919050565b6000602082019050919050565b600081905092915050565b600081905092915050565b600082825260208201905092915050565b600082825260208201905092915050565b600082825260208201905092915050565b600082825260208201905092915050565b600082825260208201905092915050565b600082825260208201905092915050565b600081905092915050565b600061467382614730565b915061467e83614730565b9250827fffffffffffffffffffffffffffffffffffffffffffffffffffffffffffffffff038211156146b3576146b2614828565b5b828201905092915050565b60006146c982614730565b91506146d483614730565b9250828210156146e7576146e6614828565b5b828203905092915050565b60006146fd82614710565b9050919050565b60008115159050919050565b600073ffffffffffffffffffffffffffffffffffffffff82169050919050565b6000819050919050565b82818337600083830152505050565b60005b8381101561476757808201518184015260208101905061474c565b83811115614776576000848401525b50505050565b6000600282049050600182168061479457607f821691505b602082108114156147a8576147a7614857565b5b50919050565b6147b7826148b5565b810181811067ffffffffffffffff821117156147d6576147d5614886565b5b80604052505050565b60006147ea82614730565b91507fffffffffffffffffffffffffffffffffffffffffffffffffffffffffffffffff82141561481d5761481c614828565b5b600182019050919050565b7f4e487b7100000000000000000000000000000000000000000000000000000000600052601160045260246000fd5b7f4e487b7100000000000000000000000000000000000000000000000000000000600052602260045260246000fd5b7f4e487b7100000000000000000000000000000000000000000000000000000000600052604160045260246000fd5b6000601f19601f8301169050919050565b7f496e73756666696369656e742062616c616e636520666f722073747564656e74600082015250565b6148f8816146f2565b811461490357600080fd5b50565b61490f81614704565b811461491a57600080fd5b50565b61492681614730565b811461493157600080fd5b5056fea2646970667358221220f812cccff9a86da64d07a223c48831645d6ef98c9fee8a8d81d9dde15dab5f1364736f6c63430008020033",
  "immutableReferences": {},
  "source": "// SPDX-License-Identifier: MIT\r\n\r\npragma solidity ^0.8.2;\r\n\r\n\r\n/**\r\n * @title TutorSystem\r\n * @dev This smart contract stores student and tutors and has functionality for the Student-Tutor System\r\n */\r\ncontract TutorSystem {\r\n  \r\n    struct Tutor {\r\n        string name;\r\n        uint256 balance;\r\n        string[] classesTaught;\r\n        bool[7] daysAvailable; // True if available that day False if not\r\n        string[] currentStudents;\r\n        uint256 priceForClass;\r\n        address wallet;\r\n    }\r\n\r\n    struct Student {\r\n        string name;\r\n        uint256 balance;\r\n        string[] classesRequested;\r\n        bool[7] daysAvailable;\r\n        string[] currentTutors;\r\n        address wallet;\r\n    }\r\n\r\n    // Map name to students\r\n    mapping(string => Student) public students;\r\n    string[] public studentNames;\r\n    \r\n    mapping(string => Tutor) public tutors;\r\n    string[] public tutorNames;\r\n\r\n    event Matched(bool matchResult);\r\n\r\n\r\n    // Constructors for Tutor and Student\r\n    function createTutor(string memory _name, uint256 _balance, string[] memory _classesTaught, bool[7] memory _daysAvailable, string[] memory _currentStudents, uint256 _price, address _adr) public {\r\n        tutors[_name] = Tutor(_name, _balance, _classesTaught, _daysAvailable, _currentStudents, _price, _adr);\r\n        tutorNames.push(_name);\r\n    }\r\n\r\n    function createStudent(string memory _name, uint256 _balance, string[] memory _classesTaught, bool[7] memory _daysAvailable, string[] memory _currentTutors, address _adr) public {\r\n        students[_name] = Student(_name, _balance, _classesTaught, _daysAvailable, _currentTutors, _adr);\r\n        studentNames.push(_name);\r\n    }\r\n\r\n\r\n    // Setters (The search is always going to be initiated with address)\r\n    function setTutorBalance(string memory _name, uint256 _balance) public {\r\n        tutors[_name].balance = _balance;\r\n    }\r\n\r\n    function setTutorClassesTaught(string memory _name, string[] memory _classesTaught) public {\r\n        tutors[_name].classesTaught = _classesTaught;\r\n    }\r\n\r\n    function setTutorDaysAvailable(string memory _name, bool[7] memory _daysAvailable) public {\r\n        tutors[_name].daysAvailable = _daysAvailable;\r\n    }\r\n\r\n    function setTutorPrice(string memory _name, uint256 _price) public {\r\n        tutors[_name].priceForClass = _price;\r\n    }\r\n\r\n    function setTutorCurrentStudents(string memory _name, string[] memory _currentStudents) public {\r\n        tutors[_name].currentStudents = _currentStudents;\r\n    }\r\n\r\n    function setStudentBalance(string memory _name, uint256 _balance) public {\r\n        students[_name].balance = _balance;\r\n    }\r\n\r\n    function setStudentClassesRequested(string memory _name, string[] memory _classesRequested) public {\r\n        students[_name].classesRequested = _classesRequested;\r\n    }\r\n\r\n    function setStudentDaysAvailable(string memory _name, bool[7] memory _daysAvailable) public {\r\n        students[_name].daysAvailable = _daysAvailable;\r\n    }\r\n\r\n    function setStudentCurrentTutors(string memory _name, string[] memory _currentTutors) public {\r\n        students[_name].currentTutors = _currentTutors;\r\n    }\r\n\r\n\r\n    // Getters\r\n    function getTutor(string memory _name) public view returns(Tutor memory) {\r\n        return tutors[_name];\r\n    }\r\n\r\n    function getStudent(string memory _name) public view returns(Student memory) {\r\n        return students[_name];\r\n    }\r\n\r\n    function getTutorBalance(string memory _name) public view returns (uint256) {\r\n        return tutors[_name].balance;\r\n    }\r\n\r\n    function getTutorPrice(string memory _name) public view returns (uint256) {\r\n        return tutors[_name].priceForClass;\r\n    }\r\n\r\n    function getTutorClassesTaught(string memory _name) public view returns (string[] memory) {\r\n        return tutors[_name].classesTaught;\r\n    }\r\n\r\n    function getTutorDaysAvailable(string memory _name) public view returns (bool[7] memory) {\r\n        return tutors[_name].daysAvailable;\r\n    }\r\n\r\n    function getTutorCurrentStudents(string memory _name) public view returns (string[] memory) {\r\n        return tutors[_name].currentStudents;\r\n    }\r\n\r\n    function getStudentBalance(string memory _name) public view returns (uint256) {\r\n        return students[_name].balance;\r\n    }\r\n\r\n    function getStudentClassesRequested(string memory _name) public view returns (string[] memory) {\r\n        return students[_name].classesRequested;\r\n    }\r\n\r\n    function getStudentDaysAvailable(string memory _name) public view returns (bool[7] memory) {\r\n        return students[_name].daysAvailable;\r\n    }\r\n\r\n    function getStudentCurrentTutors(string memory _name) public view returns (string[] memory) {\r\n        return students[_name].currentTutors;\r\n    }\r\n\r\n    // Addtional System Functions\r\n    \r\n    // Return all Student names and their addresses\r\n    function showAllStudents() public view returns (Student[] memory) {\r\n        Student[] memory AllStudents = new Student[](studentNames.length);\r\n        for (uint i = 0; i < studentNames.length; i++) {\r\n            AllStudents[i] = students[studentNames[i]];\r\n        }\r\n        return AllStudents;\r\n    }  \r\n\r\n    function deleteStudent(string memory _name) public {\r\n        delete students[_name];\r\n        for (uint i = 0; i < studentNames.length; i++) {\r\n            if (keccak256(abi.encodePacked(studentNames[i])) == keccak256(abi.encodePacked(_name))) {\r\n                studentNames[i] = studentNames[studentNames.length - 1];\r\n                studentNames.pop();\r\n                break;\r\n            }\r\n        }\r\n    }\r\n\r\n    function deleteTutor(string memory _name) public {\r\n        delete tutors[_name];\r\n        for (uint i = 0; i < tutorNames.length; i++) {\r\n            if (keccak256(abi.encodePacked(tutorNames[i])) == keccak256(abi.encodePacked(_name))) {\r\n                tutorNames[i] = tutorNames[tutorNames.length - 1];\r\n                tutorNames.pop();\r\n                break;\r\n            }\r\n        }\r\n\r\n    }\r\n\r\n    function showTutorsOnDay(uint256 _dayIndex) public view returns (Tutor[] memory) {\r\n        \r\n        uint256 tutorNum = 0;\r\n\r\n        for (uint i = 0; i < tutorNames.length; i++) {\r\n            bool[7] memory theDays = getTutorDaysAvailable(tutorNames[i]);\r\n            if (theDays[_dayIndex]) {\r\n                tutorNum += 1;\r\n            }\r\n        }\r\n\r\n        Tutor[] memory availableTutors = new Tutor[](tutorNum);\r\n        uint256 count = 0;\r\n\r\n        for (uint i = 0; i < tutorNames.length; i++) {\r\n            bool[7] memory theDays = getTutorDaysAvailable(tutorNames[i]);\r\n            if (theDays[_dayIndex]) {\r\n                availableTutors[count] = getTutor(tutorNames[i]); \r\n                count += 1;\r\n            }\r\n        }\r\n\r\n        return availableTutors;\r\n    }\r\n\r\n\r\n    function showTutorsOnClass(string memory _class) public view returns (Tutor[] memory) {\r\n        \r\n        uint256 tutorNum = 0;\r\n\r\n         for (uint i = 0; i < tutorNames.length; i++) {\r\n            string[] memory classes = getTutorClassesTaught(tutorNames[i]);\r\n            for (uint j = 0; j < classes.length; j++) {\r\n                if (keccak256(abi.encodePacked(classes[j])) == keccak256(abi.encodePacked(_class))) {\r\n                    tutorNum += 1;\r\n                }\r\n            }   \r\n        }\r\n\r\n        Tutor[] memory availableTutors = new Tutor[](tutorNum);\r\n        uint256 count = 0;\r\n\r\n        for (uint i = 0; i < tutorNames.length; i++) {\r\n            string[] memory classes = getTutorClassesTaught(tutorNames[i]);\r\n            for (uint j = 0; j < classes.length; j++) {\r\n                if (keccak256(abi.encodePacked(classes[j])) == keccak256(abi.encodePacked(_class))) {\r\n                    availableTutors[count] = getTutor(tutorNames[i]); \r\n                    count += 1;\r\n                }\r\n            }   \r\n        }\r\n\r\n        return availableTutors;\r\n    }\r\n\r\n    function matchStudentTutor(string memory _studentName, string memory _class, uint256 _dayIndex, string memory _tutorName) public returns (bool) {\r\n\r\n        string[] memory classes = getTutorClassesTaught(_tutorName);\r\n        bool[7] memory theDays = getTutorDaysAvailable(_tutorName);\r\n\r\n        if (theDays[_dayIndex]) {\r\n            for (uint i = 0; i < classes.length; i++) {\r\n                 if (keccak256(abi.encodePacked(classes[i])) == keccak256(abi.encodePacked(_class))) {\r\n                    updateMatch(_studentName, _dayIndex, _tutorName);\r\n                    emit Matched(true);\r\n                    return true;\r\n                 }\r\n            }\r\n        }\r\n\r\n        return false;\r\n    }\r\n\r\n\r\n    function updateMatch(string memory _studentName, uint256 _dayIndex, string memory _tutorName) public {\r\n        // No longer available in those days\r\n        students[_studentName].daysAvailable[_dayIndex] = false;\r\n        tutors[_tutorName].daysAvailable[_dayIndex] = false;\r\n        studentPayTutor(_studentName, _tutorName);\r\n    }\r\n\r\n\r\n    function studentPayTutor(string memory _studentName, string memory _tutorName) public {\r\n        require(tutors[_tutorName].priceForClass < students[_studentName].balance, \"Insufficient balance for student\");\r\n        students[_studentName].balance -= tutors[_tutorName].priceForClass;\r\n        tutors[_tutorName].balance += tutors[_tutorName].priceForClass;\r\n    }    \r\n\r\n}",
  "sourcePath": "C:\\Users\\berta\\Desktop\\Decentralized-Tutor\\contracts\\TutorSystem.sol",
  "compiler": {
    "name": "solc",
    "version": "0.8.2+commit.661d1103.Emscripten.clang"
  },
  "schemaVersion": "3.4.16",
  "updatedAt": "2024-06-21T13:48:31.577Z",
  "networkType": "ethereum",
  "devdoc": {
    "details": "This smart contract stores student and tutors and has functionality for the Student-Tutor System",
    "kind": "dev",
    "methods": {},
    "title": "TutorSystem",
    "version": 1
  },
  "userdoc": {
    "kind": "user",
    "methods": {},
    "version": 1
  }
}